:100000000C9446060C946E060C946E060C946E06C8
:100010000C946E060C946E060C946E060C946E0690
:100020000C946E060C946E060C946E060C946E0680
:100030000C946E060C946E060C946E060C946E0670
:100040000C9426290C946E060C94F22E0C94252FF9
:100050000C946E060C946E060C946E060C946E0650
:100060000C946E060C946E0608036F00207E12003E
:100070000000000B00010000030B0B04F605000755
:10008000050B02F60A00080C0B01F61600070E0B12
:1000900002F52300070B0B02F62D00080A0B01F7EF
:1000A000370003050B04F63900040E0B05F640007B
:1000B000040E0B02F6470008070B02F64E00080973
:1000C0000B02F8570003050B03FF590009020B014F
:1000D000FB5C0002020B04FF5D00070F0B02F46BD8
:1000E00000070C0B02F57600070B0B02F6800008E8
:1000F0000C0B01F58C00080C0B02F59800070A0B9D
:1001000002F7A100090B0B01F6AE00080C0B02F57B
:10011000BA00080B0B01F6C500070C0B02F5D00066
:10012000080C0B02F5DC0002080B04F9DE00030BDF
:100130000B03F9E30009080B01F8EC0009060B01B9
:10014000F9F30009080B01F8FC00080B0B02F60795
:1001500001090F0B01F518010B0B0B00F628010A22
:100160000B0B01F63601090B0B01F643010A0B0BD1
:1001700000F65101090B0B01F65E01090B0B01F6AC
:100180006B010A0B0B01F67901090B0B01F68601D5
:10019000060B0B03F68F010A0B0B01F69D010A0BF0
:1001A0000B01F6AB01090B0B01F6B8010B0B0B00B1
:1001B000F6C8010B0B0B00F6D8010B0B0B00F6E891
:1001C00001090B0B01F6F5010B0E0B00F6090209F4
:1001D0000B0B01F61602090B0B01F62302090B0BA0
:1001E00001F630020B0B0B00F640020B0B0B00F676
:1001F00050020A0B0B00F65E020A0B0B00F66C02B3
:100200000A0B0B00F67A02080B0B02F68502040EAD
:100210000B05F68C02070F0B02F49A02040E0B0278
:10022000F6A10207060B02F5A7020B020B0003AAB8
:100230000203030B03F5AC0209080B01F9B5020A2E
:100240000B0B00F6C30209080B01F9CC020A0B0BD9
:1002500001F6DA0209080B01F9E302080B0B02F6BA
:10026000EE02090C0B01F9FC02090B0B01F6090364
:10027000080B0B02F61403060F0B02F62003090B02
:100280000B01F62D03080B0B02F638030B080B00CD
:10029000F9430309080B01F94C0309080B01F9554F
:1002A000030B0C0B00F966030B0C0B00F977030929
:1002B000080B01F9800308080B02F98803080B0BEF
:1002C00001F6930309080B01F99C030B080B00F9D5
:1002D000A7030B080B00F9B20309080B01F9BB03D4
:1002E0000A0C0B00F9CA0307080B02F9D103040E2C
:1002F0000B03F6D803020E0B05F6DC03040E0B0409
:10030000F6E30309040B01FAFFFFD21F80EC891208
:1003100024403636367F7F36FFFF3C3C3C0018FFDA
:10032000FE3C1F1F83468DF0C18300612244866717
:100330003711224C703C7E6060307BDFCEFF7FC97E
:10034000243766CCCCCC6631CE6633333366C818DE
:1003500018FFFF3C3C66181818FFFF181818186B98
:1003600048FFFFC0F0020C1860C3060C3061830C1C
:1003700018200038FBBE3C78F1E3C7DDF1C038F34C
:1003800060C183060C18FDF83CFEC70303060C1879
:1003900070E3FFFF7CFE0303031E1E070303FE7CC6
:1003A0001C38B164D9BFFF3E7C7E3F180FC7F31CD9
:1003B0000603C3FF9F800F3F306060DCFEE3C36332
:1003C0007E3CFFFFC3030606060C0C0C1838FB1E10
:1003D0003C6F9F63C78FF1C03C7EE6C3C3E77F3BA2
:1003E000060EFCF0F00F6C001AD2000183870E0F8E
:1003F00080E01C03FFFFC0000FFFFCC0780F01E08E
:10040000F9E3C1807CFEC7030E1C00000030301EE3
:100410001F1CDC6C767B6DB6DB6FF3FC0633F87863
:100420003C07C0380581B0360FE1FC71DF7FEF80FB
:10043000FF3FE619867F1FE61D8360FFFFF01FBFA9
:10044000D8F83C0603018061BFC7C0FE3FE61983B0
:1004500060D8360D8361BFEFE0FFFFD86DB7C3E111
:10046000B0C361FFFFE0FFFFD86DB7C3E1B0C0606C
:100470007C3E001F9FE61B06C0300C7F1FE19FE300
:10048000F0F7FBD8CC6633F9FCC6637BFDE0FFF3E5
:100490000C30C30C33FFC01FC7F0300C0300CC334B
:1004A0000CC73F87C0F7BDE661B0781F06E19863CF
:1004B0003CFF3CFC7E0C06030180C66331FFFFE07D
:1004C000E0FE3DC73DE7BCD79BB37660DE3FC7800B
:1004D000E1FE3DE33C66CCDD99B31E63DE3BC30029
:1004E0001F07F1C7707C0780F01F0771C7F07C0001
:1004F000FE7F986C361BF9F8C0607C3E001F07F148
:10050000C7707C0780F01F0771C7F07C0C33FE7F3B
:1005100080FC7F18CC6673F1F0CC637DFE603FBF3A
:10052000F0780F03F83F83C3FFBF80FFFFF67B3DEA
:1005300098C06030183F1F80F1FE3D8330660CC1CB
:1005400098330660C7F07C00FBFF7DC318C31836E4
:1005500006C0500E01C01000FBFEF60D936EDBB717
:10056000ADEE7B8EE318F3FCF738FC1E0301E0CC04
:1005700073BCFF3CF3FCF738CC1E0780C0300C0F77
:10058000C3F0FEFEC6CC18183063C3FFFFFFCCCC0F
:10059000CCCCCCFF010306060C0C18183030606080
:1005A000C080FF3333333333FF1071E36C7040FF8F
:1005B000FFFC88807E3F8FCFEE361BFEFFE03806C3
:1005C00001BC7F9C760D8371FFEEF03FBFF8783C55
:1005D0000705FE7E0380E018F67FB8EC1B06E39F5C
:1005E000F3FC3E3FB0FFFFFE01FE7E1F3F307E7EEC
:1005F00030303030FEFE3FBFF9D86C3739FC76031F
:10060000018FC7C0E070180DC7F3998CC6637BFDDE
:10061000E0181800787818181818FFFF18603FFCC9
:1006200030C30C30C30FFF80E070180DE6F3E1E03B
:10063000F86E73F9E0787818181818181818FFFF72
:10064000FD9FF99B33666CCDBDFFBFEE7F98CC66F6
:10065000331BDFEF3E3FB8F83C1F1DFC7CEF1FF95A
:10066000C3B03606E1DFF378600C03E07C001EEFD8
:10067000FF87606C0DC39FF0F600C0180F81F07704
:10068000BFCF06030183F9FC3FFFC3FC3FC3FFFC60
:10069000606060FEFE606060617F3EE77398CC66DC
:1006A0003319FE7FFBFF7CC618C1B036038070F1A2
:1006B000FE3DBB3763F8770EE18CF7FBCD8383C338
:1006C000BBDFEFF3FCF618CC330781E0300C060FEC
:1006D000C3F0FFFF30C30C7FFF376666CC666673DE
:1006E000FFFFFFF0CE6666336666EC707CF3C0C039
:1006F0003210181808181808000000000000000048
:10070000000000000013144412000000000000323A
:1007100050AA55AA110000000000000000000000CF
:1007200000000000FFFF1F000000000000000000AC
:100730000000003E5B4F5B3E3E6B4F6B3E1C3E7CC1
:100740003E1C183C7E3C181C577D571C1C5E7F5E6F
:100750001C00183C1800FFE7C3E7FF00182418002E
:10076000FFE7DBE7FF30483A060E262979292640C5
:100770007F050507407F05253F5A3CE73C5A7F3EF1
:100780001C1C08081C1C3E7F14227F22145F5F0083
:100790005F5F06097F017F006689956A606060601F
:1007A0006094A2FFA29408047E040810207E20100A
:1007B00008082A1C08081C2A08081E101010100C13
:1007C0001E0C1E0C30383E3830060E3E0E06000061
:1007D00000000000005F00000007000700147F1405
:1007E0007F14242A7F2A1223130864623649562074
:1007F000500008070300001C2241000041221C0099
:100800002A1C7F1C2A08083E080800807030000857
:1008100008080808000060600020100804023E512B
:1008200049453E00427F40007249494946214149BD
:100830004D331814127F1027454545393C4A494924
:100840003141211109073649494936464949291E8E
:10085000000014000000403400000008142241147D
:1008600014141414004122140802015909063E41CF
:100870005D594E7C1211127C7F494949363E4141F7
:1008800041227F4141413E7F494949417F09090950
:10089000013E414151737F0808087F00417F4100BC
:1008A0002040413F017F081422417F404040407F6B
:1008B000021C027F7F0408107F3E4141413E7F09B8
:1008C0000909063E4151215E7F09192946264949F9
:1008D000493203017F01033F4040403F1F20402039
:1008E0001F3F4038403F6314081463030478040337
:1008F0006159494D43007F414141020408102000E5
:100900004141417F04020102044040404040000355
:1009100007080020545478407F2844443838444421
:100920004428384444287F385454541800087E0919
:100930000218A4A49C787F0804047800447D400039
:100940002040403D007F1028440000417F40007C53
:10095000047804787C080404783844444438FC184B
:1009600024241818242418FC7C080404084854542F
:10097000542404043F44243C4040207C1C2040205C
:100980001C3C4030403C44281028444C9090907CC3
:100990004464544C440008364100000077000000D5
:1009A0004136080002010204023C2623263C1EA117
:1009B000A161123A4040207A385454555921555576
:1009C0007941225454784221555478402054557925
:1009D000400C1E52721239555555593954545459B8
:1009E00039555454580000457C410002457D420071
:1009F00001457C407D1211127DF0282528F07C54A1
:100A00005545002054547C547C0A097F4932494999
:100A100049323A4444443A324A4848303A41412102
:100A20007A3A42402078009DA0A07D3D4242423D5E
:100A30003D4040403D3C24FF2424487E4943662BF2
:100A40002FFC2F2BFF0929F620C0887E0903205494
:100A50005479410000447D413048484A3238404092
:100A6000227A007A0A0A727D0D19317D2629292FF2
:100A700028262929292630484D402038080808080A
:100A800008080808382F10C8ACBA2F102834FA000C
:100A9000007B000008142A142222142A140855008E
:100AA000550055AA55AA55AAFF55FF55FF0000004D
:100AB000FF00101010FF00141414FF001010FF00AE
:100AC000FF1010F010F0141414FC001414F700FFC1
:100AD0000000FF00FF1414F404FC141417101F107E
:100AE000101F101F1414141F00101010F00000002D
:100AF000001F101010101F10101010F01000000038
:100B0000FF101010101010101010FF10000000FF48
:100B1000140000FF00FF00001F10170000FC04F489
:100B200014141710171414F404F40000FF00F71441
:100B3000141414141414F700F714141417141010C8
:100B40001F101F141414F4141010F010F000001FE4
:100B5000101F0000001F14000000FC140000F01023
:100B6000F01010FF10FF141414FF141010101F00C9
:100B7000000000F010FFFFFFFFFFF0F0F0F0F0FFCB
:100B8000FFFF0000000000FFFF0F0F0F0F0F3844A2
:100B9000443844FC4A4A4A347E02020606027E0277
:100BA0007E0263554941633844443C04407E201E24
:100BB0002006027E020299A5E7A5991C2A492A1C53
:100BC0004C7201724C304A4D4D303048784830BC40
:100BD000625A463D3E494949007E0101017E2A2A6A
:100BE0002A2A2A44445F444440514A444040444AEB
:100BF00051400000FF0103E080FF000008086B6B1C
:100C0000083612362436060F090F060000181800A1
:100C100000001010003040FF0101001F01011E0004
:100C2000191D1712003C3C3C3C0000000000000075
:100C3000000800020100000304070000000000009B
:100C40000000010204081020408001020408102066
:100C50000102040810200404040404040404020231
:100C60000202020203030303030300000000230047
:100C70002600290000000000250028002B000000AD
:100C80000000240027002A000D12552F11241FBE3A
:100C9000CFEFD8E0DEBFCDBF12E0A0E0B1E0ECE5E1
:100CA000F8E602C005900D92A637B107D9F726E005
:100CB000A6E7B2E001C01D92A23AB207E1F716E042
:100CC000C6E4D6E004C02197FE010E942E31C43450
:100CD000D107C9F70E94842F0C942C340C94000087
:100CE00090E080E008950895282F392F41E0672B88
:100CF00009F440E04195F901F896285A3C4F419398
:100D0000E217F307E1F708958F929F92AF92BF9297
:100D1000CF92DF92EF92FF920F931F93CF93DF93C7
:100D2000E82FF92F862F972F042F152F422F532F9F
:100D300099230CF4B3C020853185821793070CF0FA
:100D4000ADC011230CF4AAC062857385061717077E
:100D50000CF0A4C0DF01A65ABC4F6C91662329F0A9
:100D6000B901681B790BCB0101972689223009F460
:100D7000AAC0233009F4B6C0213009F49CC0DF01B9
:100D8000AA59BC4F2D913C911197821B930B4C019A
:100D90000AF484C014960D90BC91A02D8A179B076D
:100DA00008F07CC058019F0128593C4FE901688137
:100DB00079819801261B370B0AF470C08F01045902
:100DC0001C4FE801088119812017310708F066C01F
:100DD0008F010C591C4FE801088119817F01D0EA6D
:100DE000ED1ADCEFFD0AE701E880F9800E9D600155
:100DF0000F9DD00C1E9DD00C11247F01D5EAED1A59
:100E0000DCEFFD0AE701F8802C193D09FF2049F0CD
:100E10009B01200F311F215031092C0D3D1D2A1936
:100E20003B093323DCF120173107C0F5B695A795B0
:100E3000B695A795B695A795A29F8001A39F100D83
:100E4000B29F100D1124BC0199200CF454C075956B
:100E500067957595679575956795600F711F452B1B
:100E600009F453C0DF01A60FB71FAC0147705078DB
:100E700099230CF443C087E090E09C01241B350BC0
:100E800081E090E0EC0102C0CC0FDD1F2A95E2F773
:100E9000E60FF71F80AD8C2BD8968C93DF91CF9106
:100EA0001F910F91FF90EF90DF90CF90BF90AF9088
:100EB0009F908F90089524813581201B310B8C01E8
:100EC000C90101975CCF24813581E901C81BD90B89
:100ED000CE01019726813781201B310B89010150FA
:100EE00011094DCF26813781281B390BC801890193
:100EF0000150110944CF695F7F4FA9CF415051097B
:100F0000486F5F6F4F5F5F4FB6CFDF01A60FB71F10
:100F1000AC01477050789923A4F087E090E09C01E1
:100F2000241B350B81E090E002C0880F991F2A95A1
:100F3000E2F78095E60FF71F90AD8923D8968C9342
:100F4000ADCF41505109486F5F6F4F5F5F4FE5CFA5
:100F500008952F923F924F925F926F927F928F925D
:100F6000AF92CF92EF92FF920F931F93CF93DF93A5
:100F7000CDB7DEB728970FB6F894DEBF0FBECDBF52
:100F8000282E392EF101EE59FC4F8081918181305C
:100F9000910509F450C0F101E05AFC4F6081718164
:100FA000349640815181649F9001659F300D749FFC
:100FB000300D11243C97A081A983AA2309F48CC188
:100FC00001976817790708F0F1C0CA01820F931FD3
:100FD000F101E859FC4FE080F1802E0D3F1D349661
:100FE000608171818E0D9F1DE60EF71E8E159F0587
:100FF00008F47C012E153F0508F001C1F101E55A06
:10100000FC4F8081882309F4D5C0420F531F4E192D
:101010005F093F9680819181489FB001499F700D83
:10102000589F700D112476956795769567957695FE
:101030006795CB01C2C03A9720812983222309F406
:1010400080C0339680818823D1F0D10116962D91EE
:101050003C91719680819181281B390B3297408198
:101060005181249FC001259F900D349F900D112424
:1010700096958795969587959695879503C080E078
:1010800090E0DC01F1017B96FA83E9839101285C11
:101090003F4FA901480F591F5E834D83210154E939
:1010A000451A5CEF550AD201ED90FC903101B6E98A
:1010B0006B1ABCEF7B0AF30100811181205D3C4F6C
:1010C0003C832B83D9012D913C913497F887EF8392
:1010D00040815181812CA12CC12C6D817E8189811F
:1010E0009A810E94C817D2010D911C91F3012081B1
:1010F0003181AB81BC814D915C91EF81F88560813C
:10110000718189819A810E94BD1BD201ED90FC9072
:10111000F30100811181AB81BC812D913C91EF8164
:10112000F88540815181D1015B96ED91FC9100845D
:10113000F185E02D6D817E8189819A8109951982E1
:10114000B4C03101BBE16B0E711C2101E8E34E0E0E
:10115000511CD1011696ED90FC90179714960D91A5
:101160001C91812CA12CC12C30E020E050E040E00B
:10117000B201C3010E94C81760E0C3010E94E41AD3
:10118000F101E680F78004811581038CF48DE02D58
:101190000084F185E02D30E020E050E040E0B20135
:1011A000C3010995C3010E94E6167FC0F101868143
:1011B00097810ECF80E090E0DC01F101E75AFC4F0F
:1011C0004081442399F1E21AF30AF101E659FC4FF8
:1011D00000811181349740815181B101685C7F4F5A
:1011E000680F791FD1015B96ED91FC910084F18528
:1011F000E02D812CA12CC12CC1014B960995F10148
:10120000E05AFC4F808191810196918380833296D0
:101210002081318182179307F1F532971182108274
:10122000379780818823B9F019823FC0E21AF30A08
:10123000719600811181349740815181B101685CC0
:101240007F4F680F791F812CA12CC12CC1014B96B7
:101250000E94C817D4CF73960081118132972081E4
:101260003181329740815181329760817181C10112
:101270004B960E94BD1BF101E75AFC4F81E0808331
:10128000D101ED91FC9102A0F3A1E02D6FEF7FEF72
:10129000C10109950AC0D101ED91FC9102A0F3A111
:1012A000E02D6FEF7FEFC1010995898128960FB678
:1012B000F894DEBF0FBECDBFDF91CF911F910F918C
:1012C000FF90EF90CF90AF908F907F906F905F9056
:1012D0004F903F902F900895F101E75AFC4F808185
:1012E000882309F44BC0C1014B96F101E680F780D9
:1012F000E21AF30A4E155F0508F47A01D10114963B
:101300000D911C9115975B96ED91FC910084F185F0
:10131000E02D812CA12CC12C50E040E0B101685C93
:101320007F4F0995F101E05AFC4F80819181019630
:101330009183808332962081318182179307E9F56A
:1013400032971182108237978081811131C060E01D
:10135000C1014B960E94E41AF101E75AFC4F81E06B
:101360008083D101ED91FC9102A0F3A1E02D6FEFFC
:101370007FEFC1010995B1E0B98397CFF101E68014
:10138000F780E21AF30A4E155F0508F47A01D101DD
:1013900014960D911C91812CA12CC12C50E040E0A1
:1013A000B101685C7F4FC1014B960E94C817BACF4C
:1013B000C1014B960E94E61678CFD101ED91FC91C8
:1013C00002A0F3A1E02D6FEF7FEFC1010995B1E01D
:1013D000B9836BCF8F929F92AF92BF92CF92DF92E1
:1013E000EF92FF920F931F93CF93DF93CDB7DEB7AA
:1013F00065970FB6F894DEBF0FBECDBF8DE0E0E07D
:10140000F1E0DE01119601900D928A95E1F761E01D
:1014100086E792E00E94DD2168E670E086E792E0D0
:101420000E947D250F2EF6E78F2EF2E09F2EF02DE5
:10143000D40153961C921E92529751961C921E9262
:101440005097FE0174965F01CE0142966C01DE0159
:1014500050967D018E01025F1F4F30E020E050E08A
:1014600040E0BE016F5F7F4FC4010E945227F4012C
:10147000A084B1848A899B89A81AB90AB694A794D2
:101480008E859F85A81AB90AC284D3848C899D89C8
:10149000C81AD90AD694C79488899989C81AD90ACA
:1014A0001092CE051092DD051092DC051092DF053A
:1014B0001092DE05848195819093E1058093E0058B
:1014C000868197819093E3058093E2050190F081F6
:1014D000E02D02A0F3A1E02D6FEF7FEFC40109958D
:1014E0001092D7051092D6051092CF050F2EFEEC64
:1014F0008F2EF5E09F2EF02D1FEF0F2EF6E7EF2E2B
:10150000F2E0FF2EF02DEEEAF2E01193E815F90576
:10151000E1F7D7011D96BC92AE921C971F96DC9204
:10152000CE921E97BE016F5F7F4FC7010E94302B86
:10153000C7010E94A9078111E6CF65960FB6F894FE
:10154000DEBF0FBECDBFDF91CF911F910F91FF90F6
:10155000EF90DF90CF90BF90AF909F908F900895C5
:101560002F923F924F925F926F927F928F929F92B3
:10157000AF92BF92CF92DF92EF92FF920F931F93A1
:10158000CF93DF93CDB7DEB7E6970FB6F894DEBF03
:101590000FBECDBF80E1EDE0F1E0DE0111960190DC
:1015A0000D928A95E1F788E0EDE1F1E0DE015196D8
:1015B00001900D928A95E1F780E1E5E2F1E0DE012C
:1015C000599601900D928A95E1F786E0E5E3F1E006
:1015D000DE01999601900D928A95E1F761E086E728
:1015E00092E00E94DD2168E670E086E792E00E94CA
:1015F0007D250F2EF6E78F2EF2E09F2EF02DD401E1
:1016000053961C921E92529751961C921E9250977E
:10161000FE01F5965F01CE01C3966C01DE01D19605
:101620007D018E01015D1F4F30E020E050E040E081
:10163000BE016F5F7F4FC4010E945227F401C08436
:10164000D1848BA99CA9C81AD90AD694C7948FA50E
:1016500098A9C81AD90AE284F3848DA99EA9E81A28
:10166000F90AF694E79489A99AA9E81AF90A109256
:10167000CE051092DD051092DC051092DF05109268
:10168000DE05848195819093E1058093E005868154
:1016900097819093E3058093E2050190F081E02D1E
:1016A00002A0F3A1E02D6FEF7FEFC4010995109226
:1016B000D7051092D6051092CF050F2EFEEA2F2ED9
:1016C000F2E03F2EF02D0F2EFEEC8F2EF5E09F2E38
:1016D000F02DBB24BA9406E712E0EEEAF2E0B192F4
:1016E000E815F905E1F7D8011D96DC92CE921C971A
:1016F0001F96FC92EE921E97BE016F5F7F4FC8014E
:101700000E94302BC8010E94A9078111E6CF81E910
:1017100092E00E94E91668E873E180E090E00E94A0
:10172000A629FE01F5965F01CE01C3966C01DE018C
:10173000D1967D018E01015D1F4F30E020E050E029
:1017400040E0BE016F5E7F4F86E792E00E94522725
:1017500060907E0270907F028BA99CA9681A790A1A
:1017600076946794809180029091810263E070E0AA
:101770000E94D5308DA99EA9969587952B01480E7C
:10178000591E30E020E050E040E0BE01675E7F4F30
:1017900086E792E00E945227E0907E02F0907F025E
:1017A0008BA99CA9E81AF90AF694E7948091800223
:1017B00090918102880F991F63E070E00E94D530FC
:1017C000CDA8DEA8D694C794C60ED71EA6E7B2E071
:1017D000ED91FC91119702A0F3A1E02D6FEF7FEF47
:1017E000CD0109951092D7051092D6051092CF051C
:1017F000BB24BA9406E712E0F101B192E815F905AD
:10180000E1F7F8017586648657864686BE016F5EED
:101810007F4FC8010E94302BD8011D96FC92EE929A
:101820001C971F96DC92CE921E97BE01675E7F4F7B
:10183000C8010E94302BC8010E94A9078111DCCF8A
:1018400068E873E180E090E00E94A629FE01F59629
:101850005F01CE01C3966C01DE01D1967D018E0140
:10186000015D1F4F30E020E050E040E0BE016F5FBF
:101870007F4F86E792E00E94522760907E02709030
:101880007F028BA99CA9681A790A76946794809143
:1018900080029091810263E070E00E94D5308DA9B2
:1018A0009EA9969587952B01480E591E30E020E0A1
:1018B00050E040E0BE01675D7F4F86E792E00E9406
:1018C0005227E0907E02F0907F028BA99CA9E81A33
:1018D000F90AF694E7948091800290918102880F32
:1018E000991F63E070E00E94D530CDA8DEA8D694A1
:1018F000C794C60ED71EA6E7B2E0ED91FC911197F2
:1019000002A0F3A1E02D6FEF7FEFCD0109951092BA
:10191000D7051092D6051092CF05BB24BA9406E7DE
:1019200012E0F101B192E815F905E1F7F8017586C9
:10193000648657864686BE016F5F7F4FC8010E944E
:10194000302BD8011D96FC92EE921C971F96DC92CC
:10195000CE921E97BE01675D7F4FC8010E94302B5B
:10196000C8010E94A9078111DCCF81E992E00E94A1
:10197000E916E6960FB6F894DEBF0FBECDBFDF9135
:10198000CF911F910F91FF90EF90DF90CF90BF907C
:10199000AF909F908F907F906F905F904F903F900F
:1019A0002F9008952F923F924F925F926F927F9265
:1019B0008F929F92AF92BF92CF92DF92EF92FF925F
:1019C0000F931F93CF93DF93CDB7DEB72E970FB64C
:1019D000F894DEBF0FBECDBF0E94EA0968E670E052
:1019E00086E792E00E947D25E6E7F2E0138A128AFC
:1019F000118A108A912C0F2EFCED6F2EF5E07F2EB0
:101A0000F02D0F2EFEEDAF2EF5E0BF2EF02D0F2E98
:101A1000F0EE4F2EF5E05F2EF02D0F2EF2EECF2ED2
:101A2000F5E0DF2EF02D882483940F2EF6ED2F2E77
:101A3000F5E03F2EF02DA9C0D5014D935C93F20146
:101A400031832083D6018D939C9380917A0290916B
:101A50007B02861B970B821B930BF3019183808380
:101A6000D2C0A6E7B2E01496ED91FC911597E41B65
:101A7000F50BAF01481B590BF301518340831696B8
:101A80008D919C91861B970B821B930BD5018D9397
:101A90009C93B9C0F30171836083D2012D933C9371
:101AA000F6019183808320917C0230917D02241B7A
:101AB000350B281B390BD5012D933C93A4C0887F8F
:101AC000089691838083287FF30131832083E091FE
:101AD0007602F091770202A0F3A1E02D6FEF7FEF85
:101AE00086E792E00995D1011D921C92EFECF5E09A
:101AF0001082F12CE12C04E110E026E430E04FE00C
:101B000050E06AE070E086E792E00E948C2086E771
:101B100092E00E94A9078111ECCF60ED77E080E0B0
:101B200090E00E94A629E0917602F091770202A04F
:101B3000F3A1E02D6FEF7FEF86E792E00995D101E9
:101B40001D921C92EFECF5E01082EE24EA94FE2C3C
:101B500004E110E026E430E04FE050E06AE070E09D
:101B600086E792E00E948C2086E792E00E94A90717
:101B70008111EBCF68EE73E080E090E00E94A6292F
:101B80009394F4E09F1609F455C0692D86E792E01E
:101B90000E94DD2180917E0290917F02AC018B300A
:101BA000910510F04AE050E0D3014D935C932091F1
:101BB000800230918102B9012031310510F06FE0CF
:101BC00070E0F50171836083841B950B8734910568
:101BD00010F086E490E0D2018D939C93261B370B86
:101BE0002531310510F024E130E0F6013183208306
:101BF000E0918C02E23009F434CFE33009F44ACFAB
:101C0000E13009F419CFEEECF5E08082D3012D919B
:101C10003C91C90187709927F20140815181840F5D
:101C2000951FAC0147705527452B09F048CF91838C
:101C3000808349CF1E860F2EFAE0DF2EF02DB12CC7
:101C40000F2EF6ED2F2EF5E03F2EF02D912C1B865A
:101C50001C861D86F7C25093DF054093DE05309346
:101C6000E1052093E0059093E3058093E2058091E0
:101C70007A0290917B02861B970B821B930BECEDF3
:101C8000F5E09183808320C3A6E7B2E01496ED913E
:101C9000FC911597E41BF50BAF01481B590BECEDBC
:101CA000F5E05183408316968D919C91861B970B8E
:101CB000821B930B9093DF058093DE0505C3ACED8B
:101CC000B5E06D937C933093E1052093E00590930C
:101CD000E3058093E20520917C0230917D02241B74
:101CE000350B281B390B3093DF052093DE05ECC242
:101CF000887F08969093E1058093E00500C3EEECA1
:101D0000F5E08081882309F4A3C08091D105882360
:101D1000E1F020917C0230917D028091E20590916A
:101D2000E305281B390B4091E0055091E105249F04
:101D3000C001259F900D349F900D11249695879595
:101D4000969587959695879502C080E090E09C01D6
:101D500022553D4F3A832983A2EEB5E0ED90FC90E9
:101D6000E0EEF5E0008111810F2EFEED6F2EF5E023
:101D70007F2EF02DD3012D913C91ECEDF5E04081CB
:101D80005181812CA12CC12C69817A8181E992E059
:101D90000E94C817A2EEB5E00D911C91E0EEF5E0AF
:101DA00020813181D3014D915C91ECEDF5E06081B2
:101DB000718181E992E00E94BD1BA2EEB5E0ED9039
:101DC000FC90E0EEF5E000811181D3012D913C9172
:101DD000ECEDF5E040815181E0919102F0919202A9
:101DE0000084F185E02D69817A8181E992E009958D
:101DF00064EF71E080E090E00E94A629E985FA8511
:101E00003196FA87E9873B9709F4E3C1A6E7B2E088
:101E1000ED91FC91119702A0F3A1E02D6FEF7FEF00
:101E2000CD010995F10111821082AFECB5E01C9251
:101E300049855A859A0150E040E02D833E834F83C7
:101E400058870F2EFEED6F2EF5E07F2EF02DBAC0D5
:101E5000E0907C02F0907D0200917A0210917B026A
:101E6000812CA12CC12C30E020E050E040E06EEA53
:101E700072E081E992E00E94C81760E081E992E097
:101E80000E94E41AE0907C02F0907D0200917A02B8
:101E900010917B02E0919102F09192020084F18511
:101EA000E02D30E020E050E040E06EEA72E081E9B1
:101EB00092E0099581E992E00E94E61699CF80911F
:101EC0007C0290917D02D6C0892D9B85EFECF5E0D8
:101ED0004081442309F455C0E21AF30AE0EEF5E02C
:101EE00000811181ECEDF5E040815181BC0162552A
:101EF0007D4FE0919102F09192020084F185E02DF6
:101F0000812CA12CC12C81E992E00995D1018D9100
:101F10009C911197019611969C938E93E8EDF5E0B4
:101F2000208131818217930709F040C01D921C92D5
:101F3000AFECB5E08C9181115BCFE2EEF5E0008172
:101F40001181A0EEB5E02D913C91F30140815181CA
:101F5000ACEDB5E06D917C9181E992E00E94BD1BF2
:101F600081E0EFECF5E08083A6E7B2E0ED91FC9133
:101F7000119702A0F3A1E02D6FEF7FEFCD0109953E
:101F800021C0E21AF30AE0EEF5E000811181ECEDE8
:101F9000F5E040815181BC0162557D4F812CA12C1F
:101FA000C12C81E992E00E94C817B0CFA6E7B2E049
:101FB000ED91FC91119702A0F3A1E02D6FEF7FEF5F
:101FC000CD010995EE24EA94FE2C04E110E026E40C
:101FD00030E04FE050E06D2D7B2D86E792E00E94CF
:101FE0008C20D0928202B09283025092850240925D
:101FF00084026D817E818F8198850E942B2823E346
:1020000033E34FE551E469837A838B839C83698151
:102010007A818B819C810E94682822E030E0462FE3
:10202000572F682F792F86E792E00E94A62DA8ED02
:10203000B5E08D919C918130910509F460CED1017C
:102040006D917C91EAEDF5E040815181649F9001B2
:10205000659F300D749F300D1124AEECB5E0EC910E
:10206000EE23D1F101976817790708F028CFCA014C
:10207000820F931FF301E080F1802E0D3F1DA2EE31
:10208000B5E06D917C918E0D9F1DE60EF71E8E15AD
:102090009F0508F47C012E153F0508F037CFE1EDD0
:1020A000F5E08081882309F40FCF420F531F4E19AA
:1020B0005F09A0EEB5E08D919C91489FB001499FCA
:1020C000700D589F700D11247695679576956795DC
:1020D00076956795CB01FACEEFECF5E08081882309
:1020E00009F44BC0E0907C02F0907D02E21AF30A02
:1020F0004E155F0508F47A0100917A0210917B0277
:10210000E0919102F09192020084F185E02D812C02
:10211000A12CC12C50E040E06EEA72E081E992E02F
:102120000995D1018D919C911197019611969C93DF
:102130008E93E8EDF5E02081318182179307E1F578
:102140001D921C92AFECB5E08C91811130C060E023
:1021500081E992E00E94E41A81E0EFECF5E08083EF
:10216000A6E7B2E0ED91FC91119702A0F3A1E02D5A
:102170006FEF7FEFCD01099525CFE0907C02F090C5
:102180007D02E21AF30A4E155F0508F47A01009108
:102190007A0210917B02812CA12CC12C50E040E0EE
:1021A0006EEA72E081E992E00E94C817BACF81E935
:1021B00092E00E94E6161CCEA6E7B2E0ED91FC91FB
:1021C000119702A0F3A1E02D6FEF7FEFCD010995EC
:1021D000F9CE68EE73E080E090E00E94A629E091DD
:1021E0007602F091770202A0F3A1E02D6FEF7FEF6E
:1021F00086E792E00995F10111821082AFECB5E01B
:102200001C92EE24EA94FE2C04E110E026E430E077
:102210004FE050E06D2D7B2D86E792E00E948C20F0
:1022200086E792E00E94A9078111EBCF68EE73E088
:1022300080E090E00E94A629BE85BF5FBE87B430D3
:1022400009F46CC06E8586E792E00E94DD218091E2
:102250007E0290917F02AC018B30910510F04D2DE4
:102260005B2DACEDB5E04D935C93209180023091F5
:102270008102B9012031310510F06FE070E07093F8
:10228000DF056093DE05841B950B8734910510F004
:1022900086E490E09093E1058093E005261B370BE0
:1022A0002531310510F024E130E03093E30520932F
:1022B000E205E0918C02E23009F4E6CCE33009F467
:1022C000FECCE13009F4C7CC81E0EEECF5E0808390
:1022D000ACEDB5E02D913C91C901877099274091F3
:1022E000E0055091E105840F951FAC01477055271B
:1022F000452B09F0FDCC9093E1058093E005287F04
:10230000ECEDF5E03183208321E030E03A87298746
:102310000F2EFDE14F2E512CF02D78CD2E960FB6BD
:10232000F894DEBF0FBECDBFDF91CF911F910F910B
:10233000FF90EF90DF90CF90BF90AF909F908F90E5
:102340007F906F905F904F903F902F900895CF9324
:10235000DF930E94CF1284EE95E090939F068093C6
:102360009E068BE391E00E944D311F9281E08F9396
:102370001F928F9389E491E09F938F930E9439314C
:1023800040E052EC61E070E081E992E00E94451C7F
:10239000C6E7D2E01092CE051092D7051092D6056E
:1023A0001092DD051092DC051092DF051092DE051B
:1023B0008C819D819093E1058093E0058E819F81C2
:1023C0009093E3058093E20561E0CE010E94DD2158
:1023D0001B8A1A8A198A188A68EE73E080E090E0F6
:1023E0000E94A6290E94EA0968EE73E080E090E06E
:1023F0000E94A6290E94D20C68EE73E080E090E073
:102400000E94A6290E94B00A0F900F900F900F9083
:102410000F900F90DF91CF9108950F93CF93DF939B
:10242000CDB7DEB76D970FB6F894DEBF0FBECDBF48
:1024300007E029E048E06AE0CE0101960E94E71536
:1024400048E251E060E870E086E792E00E94FC21FB
:10245000E6E7F2E08DE691E0918380838B819C81B9
:10246000968F858F8D819E8190A3878F8F81988590
:1024700092A381A3898583A38A8584A38B8585A361
:102480008C8586A38D8587A38E8580A78F8581A760
:10249000888982A789899A89AB89BC8983A794A7EF
:1024A000A5A7B6A78D8987A78E8980AB8F89988DC0
:1024B00092AB81AB898D83AB8A8D84AB8B8D85ABE1
:1024C0008C8D86AB8D8D87AB86EC91E0948F838F5E
:1024D00082E390E09093DB058093DA054681578193
:1024E0009A0136952795ABE7B4E10E940B3196959A
:1024F000879562E3689F9001699F300D1124E1E0A8
:10250000F0E04217530711F4F0E0E0E09A0136954D
:102510002795ABE7B4E10E940B3196958795E80FBC
:10252000F91FF093D905E093D8051092D1051092C8
:10253000CE051092D7051092D6051092DD051092A7
:10254000DC051092DF051092DE0580917A029091F1
:102550007B029093E1058093E0055093E30540935F
:10256000E2056D960FB6F894DEBF0FBECDBFDF91CA
:10257000CF910F910895E0ECF0E0908195FFFDCFB1
:102580008093C600E0ECF0E0808186FFFDCFE0ECB8
:10259000F0E080818064808390E080E00895E4EE44
:1025A000F5E08BEB92E1918780871386128682E0BB
:1025B0008383158614861092C5008CE08093C40036
:1025C00088E08093C10086E08093C2000895A82F20
:1025D000B92FED91FC9111970680F781E02DCD0187
:1025E000099508958F92AF92CF92EF92FF920F9339
:1025F0001F93CF93DF93CDB7DEB7A82FB92FED91FF
:10260000FC9111970084F185E02DCD010995DF91B2
:10261000CF911F910F91FF90EF90CF90AF908F903F
:1026200008957F928F929F92AF92BF92CF92DF9246
:10263000EF92FF920F931F93CF93DF93CDB7DEB747
:10264000A82FB92F88899989ED91FC9111977C88E1
:102650007F927B887F927A887F929F938F93028468
:10266000F385E02DCD0109950F900F900F900F90FD
:102670000F90DF91CF911F910F91FF90EF90DF901E
:10268000CF90BF90AF909F908F907F9008950895C6
:102690004F925F926F927F928F92AF92CF92DF9222
:1026A000EF92FF920F931F93CF93DF93CDB7DEB7D7
:1026B000682E792EA62FB72F422F532F202F312F80
:1026C0000E2D1F2DEC2CFD2CCA2CA82C109759F088
:1026D000F30180819181FC01408451848988BD018E
:1026E000C301F2010995DF91CF911F910F91FF90E6
:1026F000EF90DF90CF90AF908F907F906F905F9032
:102700004F9008954F925F926F927F928F929F9217
:10271000AF92BF92CF92DF92EF92FF920F931F93EF
:10272000CF93DF93CDB7DEB7682E792EA62FB72FC4
:10273000422F532F202F312F0E2D1F2DEC2CFD2C2F
:10274000CA2CDB2CA82CB92C8D899E891097C9F036
:10275000F30180809180698D6F93688D6F936F898D
:102760006F939F938F93F401428453848B889C884A
:10277000BD01C301F20109950F900F900F900F90CA
:102780000F90DF91CF911F910F91FF90EF90DF900D
:10279000CF90BF90AF909F908F907F906F905F9001
:1027A0004F9008952F923F924F925F926F927F9237
:1027B0008F929F92AF92BF92CF92DF92EF92FF9251
:1027C0000F931F93CF93DF9300D000D000D0CDB7ED
:1027D000DEB7682E792E6D837E8349835A832B83DF
:1027E0003C83B02ED12ED301ED91FC910084F18574
:1027F000E02DC3010995D301ED91FC9100A0F1A159
:10280000E02D0E2D1F2D2B2D3D2D4B815C816981DF
:102810007A81C3010995D301ED91FC910084F18582
:10282000E02D0B2D1D2D2B813C8149815A816D811D
:102830007E81C301099526960FB6F894DEBF0FBEC0
:10284000CDBFDF91CF911F910F91FF90EF90DF905F
:10285000CF90BF90AF909F908F907F906F905F9040
:102860004F903F902F9008952F923F924F925F92FA
:102870006F927F928F929F92AF92BF92CF92DF9290
:10288000EF92FF920F931F93CF93DF93CDB7DEB7F5
:1028900060970FB6F894DEBF0FBECDBF682E792EBD
:1028A0006F83788749875A872B873C870D871E87D8
:1028B000EF86F88AC982DA82AB82BC828D829E82E0
:1028C0005DA04EA03FA028A4D301ED91FC91B9A535
:1028D000BF932F923F924F925F920284F385E02D37
:1028E0008D809E80AB80BC80C980DA80EF84F888C0
:1028F0000D851E852B853C8549855A856F81788598
:10290000C3010995D301ED91FC9100A0F1A1E02D47
:10291000052D142D2D813E814B815C8169817A8149
:10292000C3010995D301ED91FC91B9A5BF932F92F5
:102930003F924F925F920284F385E02D8D809E80BE
:10294000AB80BC80C980DA80EF84F8880D851E8555
:102950002B853C8549855A856F817885C30109950A
:102960000FB6F894DEBF0FBECDBF60960FB6F894D9
:10297000DEBF0FBECDBFDF91CF911F910F91FF90B2
:10298000EF90DF90CF90BF90AF909F908F907F900F
:102990006F905F904F903F902F9008952F923F92AD
:1029A0004F925F926F927F928F929F92AF92BF925F
:1029B000CF92DF92EF92FF920F931F93CF93DF930B
:1029C000CDB7DEB729970FB6F894DEBF0FBECDBFE7
:1029D000682E792E6E837F834887598729833A83AF
:1029E000902E1B83EC82FD82BE8CD301ED91FC9175
:1029F000BF920484F585E02DEC80FD801B81298148
:102A00003A81488559856E817F81C3010995D3013B
:102A1000ED91FC9100A0F1A1E02D0C2D1D2D2C813C
:102A20003D81492D5B8169817A81C3010995D3017B
:102A3000ED91FC91BF920484F585E02DEC80FD8042
:102A4000092D1B8129813A81488559856E817F81B5
:102A5000C30109950F900F9029960FB6F894DEBF29
:102A60000FBECDBFDF91CF911F910F91FF90EF90DF
:102A7000DF90CF90BF90AF909F908F907F906F909E
:102A80005F904F903F902F9008952F923F924F92DA
:102A90005F926F927F928F929F92AF92BF92CF92EE
:102AA000DF92EF92FF920F931F93CF93DF93CDB7F7
:102AB000DEB760970FB6F894DEBF0FBECDBF682EAD
:102AC000792E6D837E834F83588729873A870B87BA
:102AD0001C87ED86FE86CF86D88AA982BA828B8231
:102AE0009C825DA04EA03FA028A4D301ED91FC9153
:102AF000BBA5BF938AA58F9399A59F932F923F92D1
:102B00004F925F920684F785E02D8B809C80A98090
:102B1000BA80CF84D888ED84FE840B851C852985F6
:102B20003A854F8158856D817E81C3010995D30116
:102B3000ED91FC9100A0F1A1E02D032D122D252D8A
:102B4000342D4B815C8169817A81C3010995D30160
:102B5000ED91FC91BBA5BF938AA58F9399A59F93F7
:102B60002F923F924F925F920684F785E02D8B80E3
:102B70009C80A980BA80CF84D888ED84FE840B85A0
:102B80001C8529853A854F8158856D817E81C301D9
:102B900009950FB6F894DEBF0FBECDBF60960FB695
:102BA000F894DEBF0FBECDBFDF91CF911F910F9183
:102BB000FF90EF90DF90CF90BF90AF909F908F905D
:102BC0007F906F905F904F903F902F9008958F92DD
:102BD0009F92AF92BF92CF92DF92EF920F93CF93DB
:102BE000DF93C82FD92F81E08F938F931F921F926D
:102BF00096E09F938F9388E28F936894882487F858
:102C0000912C0F2EF0E8AF2EF6E9BF2EF8E9CF2E6B
:102C1000D12CF02DEE24E394CE010E94541C86ECBE
:102C200091E0998388838DB79EB707960FB6F89485
:102C30009EBF0FBE8DBFDF91CF910F91EF90DF90C0
:102C4000CF90BF90AF909F908F9008958F929F925A
:102C5000AF92BF92CF92DF92EF92FF920F931F93AA
:102C6000CF93DF93D82FC92F862E972EC42ED52E23
:102C7000E22EF32EA02EB12E61E10E94AE1D63E084
:102C80008D2F9C2F0E94071E64E48D2F9C2F0E9485
:102C9000AE1D84011695079516950795169507950F
:102CA000602F8D2F9C2F0E94071EB7016150710964
:102CB000680D791D769567957695679576956795F4
:102CC0008D2F9C2F0E94071E65E48D2F9C2F0E9444
:102CD000AE1D6C2D8D2F9C2F0E94071E6D2D8D2FEC
:102CE0009C2F0E94071E6FEF6A0D6C0D8D2F9C2F7D
:102CF0000E94071E81E0A81AB108AC0CBD1C6B2D08
:102D00008D2F9C2F0E94071E6EE48D2F9C2F0E94FA
:102D1000AE1D602F8D2F9C2F0E94071E6FE48D2FFC
:102D20009C2F0E94AE1D6C2D8D2F9C2F0E94071E84
:102D30006D2D8D2F9C2F0E94071EDF91CF911F912B
:102D40000F91FF90EF90DF90CF90BF90AF909F904A
:102D50008F900895CF93DF93C82FD92F8A8D882322
:102D600029F081E08A8FDF91CF91089562E2CE0150
:102D70000E94AE1D60ECCE010E94071E60E2CE01F3
:102D80000E94AE1D40E550E065E971E0CE010E9471
:102D9000191DE7CFCF93DF93C82FD92F62E2CE0161
:102DA0000E94AE1D63ECCE010E94071E60E2CE01C0
:102DB0000E94AE1D44E650E06EE971E0CE010E9433
:102DC000191D1A8E1B8EDF91CF9108950E94CA168D
:102DD0000895CF93DF93C82FD92FCE010E94CA1632
:102DE0008D8588231CF4DF91CF91089560E1CE0199
:102DF0000E94AE1D61E0CE010E94071E81E08C8F13
:102E0000F2CF0F931F93CF93DF93C82FD92F8C8DC1
:102E1000811148C061E0CE010E94AE1D67E2CE0183
:102E20000E94071E61E0CE010E94071E60E0CE01F5
:102E30000E94071E6CE0CE010E94AE1D67EDCE0120
:102E40000E94071E66EDCE010E94071E6DE9CE01AD
:102E50000E94071E6CE2CE010E94AE1D68EACE0100
:102E60000E94071E6AE3CE010E94AE1D6AE1CE01F8
:102E70000E94071E6BE3CE010E94AE1D68E0CE01EA
:102E80000E94071E08E211E020E830E050E040E038
:102E900070E060E0CE010E942616DF91CF911F9175
:102EA0000F910895CE010E94941CB4CFCF93DF936D
:102EB000C82FD92FCE010E9401174FE16FE077E0B4
:102EC000CE010E94521ECE010E94AA161B8EDF91D7
:102ED000CF910895CF93DF93C82FD92FCE010E94B1
:102EE00001174FE160EF76E0CE010E94521ECE0145
:102EF0000E94AA1681E08B8FDF91CF910895FF92F7
:102F00000F931F93CF93DF93C82FD92FF62E8B8D5E
:102F1000882319F108E211E020E830E050E040E0B9
:102F200070E060E0CE010E9426160C2F1D2F64E297
:102F3000CE010E94AE1DD0E0C0E06F2D802F912FFA
:102F40000E94071E2196C03882E1D807B1F7DF91B1
:102F5000CF911F910F91FF900895CE010E946A17A3
:102F6000D9CFA82FB92F58961C92589759968C9163
:102F70005997882349F0ED91FC9111970480F581D0
:102F8000E02DCD0109950895CD010E947F17089588
:102F90002F923F924F925F926F927F928F92AF9259
:102FA000BF92CF92DF92EF92FF920F931F93CF9336
:102FB000DF93CDB7DEB760970FB6F894DEBF0FBED4
:102FC000CDBF89839A83662E772E442E552E222ECE
:102FD000332EE986FA86A981BA8158968C91589742
:102FE000882349F0ED91FC9111970680F781E02D3F
:102FF0006FEFCD01099561E070E080E090E00E9404
:10300000A629095F1F4FC80199230CF4A8C0FC0131
:10301000F595E795F595E795F595E795FC87EB87A9
:10302000C2018770907855200CF49BC09201281B38
:10303000390BC9012B853C85220F331F220F331F0B
:10304000220F331F7C0199230CF490C0AC01420F76
:10305000531F4038510524F020E830E0281B390B7D
:1030600049855A85420D531D483251400CF481C0A8
:1030700048E251E042195309D701A81BB90BBE879A
:10308000AD87F901EA1BFB0BFE83ED831E161F06BD
:103090000CF0BEC03C822B8233200CF46DC02B811F
:1030A0003C8122193309388B2F87BA01621B730BBD
:1030B00078876F83161617060CF0AAC0A981BA810B
:1030C0005B968C915B97882309F459C00F81188512
:1030D0002D813E814B815C81B70189819A810E945B
:1030E0002616B980DA8064E289819A810E94AE1D39
:1030F000ED80FE80FF200CF446C0F594E794F59433
:10310000E794F594E794EB85FC85FC83EB834D8491
:103110005E845520E4F15594479455944794559412
:10312000479489859A8501972F853889821B930B4F
:103130004B855C85849F1001859F300C949F300CDB
:103140001124240C351C429FC001439F900D529FB7
:10315000900D1124480E591E1A8219824BC00796F1
:1031600056CF0197886F9F6F019660CFF12CE12CAD
:103170006DCF49855A8580CF1C821B8290CFCD01AF
:103180000E946A17A3CFB7E0EB0EF11CB6CFF7E0B1
:103190004F0E511CC0CFF801E40DF51D12C0E60D15
:1031A000F71D608113C08B2D9D2D0E94071E0F5FA0
:1031B0001F4F0E151F0574F4AA2069F3F801E20DE4
:1031C000F31D882061F3E60DF71D6491CC2059F3BF
:1031D0006095E9CF89819A8101969A838983AB8131
:1031E000BC812A1A3B0A4A0E5B1EEF81F885E8175C
:1031F000F90741F06D817E81683071055CF310E064
:1032000000E0DACF61E070E080E090E00E94A62963
:1032100060960FB6F894DEBF0FBECDBFDF91CF91A1
:103220001F910F91FF90EF90DF90CF90BF90AF90E4
:103230008F907F906F905F904F903F902F90089568
:103240002F923F924F925F926F927F928F929F92B6
:10325000AF92BF92CF92DF92EF92FF920F931F93A4
:10326000CF93DF93CDB7DEB72D970FB6F894DEBFBF
:103270000FBECDBF282E392E462E572E49835A8396
:103280002E833F83602E712EEB82FC82EC2CFD2C72
:103290000A2D1B2DC82CD92CD10158968C915897EA
:1032A000882341F0ED91FC910680F781E02D6FEFCE
:1032B000C101099561E070E080E090E00E94A629DC
:1032C00077200CF447C1EB81FC81FF230CF442C151
:1032D000DD200CF43FC12AA13BA133230CF43AC1F9
:1032E00049815A8155230CF435C1461557050CF018
:1032F00031C16E817F8177230CF42CC16E177F075B
:103300000CF028C1CA018770907855230CF4C3C013
:10331000A980BA80A81AB90A2B813C818E819F812D
:10332000281B390BAAA1BBA1A217B3070CF49D015E
:10333000C70187709078FF200CF4B2C0E81AF90A30
:10334000C3018A199B09C816D9060CF4C601079651
:10335000AC010AF4AAC0CA01887F6701FF200CF4FF
:10336000A7C0A701480F591F4038510524F080E835
:1033700090E08E199F09A901400F511F483251401A
:1033800024F028E231E0201B310B46018E189F0803
:10339000FC01E819F909F987E8871E161F060CF0E9
:1033A000D9C0780111230CF486C0A701401B510B32
:1033B0005D874C87B901641B750B7B876A8716167E
:1033C00017060CF0C7C0D1015B968C91882309F4D5
:1033D00075C00A851B8528853985A701B601C101FD
:1033E0000E94261629823D8264E2C1010E94AE1D20
:1033F000E884F984FF200CF465C0F594E794F59413
:10340000E794F594E794C30107963C010AF45EC083
:103410007594679475946794759467946501BB205F
:103420000CF458C0D594C794D594C794D594C79438
:10343000C40199230CF452C095958795959587956D
:10344000959587958C0D9D1D4E815F812C853D85C1
:10345000420F531F9A01209530956B817C81260F76
:10346000371F269D5001279DB00C369DB00C1124AE
:10347000A80EB91E469D6001479DD00C569DD00CEC
:103480001124C80ED91E912C812C7C826B823CA009
:103490002DA07EA052C00197886F9F6F019638CFF4
:1034A0000197886F9F6F019649CF495F5F4F53CF58
:1034B000D12CC12C56CFF12CE12C77CFC1010E9429
:1034C0006A1787CFB7E0EB0EF11C97CFE7E06E0EDF
:1034D000711C9ECFF7E0CF0ED11CA4CF0796ACCFC6
:1034E000F801EC0DFD1D12C0E40DF51D608113C047
:1034F00089819D810E94071E0F5F1F4F0E151F05BA
:1035000074F4222069F3F801EA0DFB1D772061F3C2
:10351000E40DF51D6491332059F36095E9CF9FEFD9
:10352000891A990AAB81BC81AA1ABB0ACA0EDB1E92
:10353000EA85FB85E815F90539F0888599850897AE
:1035400074F310E000E0DDCF61E070E080E090E037
:103550000E94A6292D960FB6F894DEBF0FBECDBFF0
:10356000DF91CF911F910F91FF90EF90DF90CF905F
:10357000BF90AF909F908F907F906F905F904F9093
:103580003F902F900895CF93DF93D82FC92F62E2F9
:103590000E94AE1D64EC8D2F9C2F0E94071E60E2DE
:1035A0008D2F9C2F0E94AE1D40E456E068EA71E02A
:1035B0008D2F9C2F0E94191D6FEF8D2F9C2F0E9425
:1035C000AE1DDF91CF9108950F931F93CF93DF939B
:1035D000C82FD92F6623A1F0E881F98100A0F1A1BD
:1035E000E02D08E211E020E830E050E040E070E03B
:1035F00060E0CE010995DF91CF911F910F91089561
:103600008B8D811105C0CE010E94C31A198EF3CF94
:10361000CE010E945617F7CFCF93DF93D82FC92F33
:1036200062E20E94AE1D64E08D2F9C2F0E94071E57
:1036300060E28D2F9C2F0E94AE1D44EA51E065EBA5
:1036400071E08D2F9C2F0E94191D6FEF8D2F9C2FE5
:103650000E94AE1DDF91CF910895CF92DF92FF922D
:103660000F931F93CF93DF93C82ED92EF62E81E0B0
:10367000F601808F818D811152C0F601838D8823E0
:1036800009F473C008E211E020E830E050E040E0C7
:1036900070E060E0C6010E9426160C2D1D2D64E22C
:1036A000C6010E94AE1DD0E0C0E06F2D802F912F8B
:1036B0000E94071E2196C038F2E1DF07B1F7C6016C
:1036C0000E940C1BF601838D882309F452C008E286
:1036D00011E020E830E050E040E070E060E0C6013A
:1036E0000E9426160C2D1D2D64E2C6010E94AE1DFF
:1036F000D0E0C0E06F2D802F912F0E94071E2196F1
:10370000C038F2E1DF07B1F7C6010E940C1BDF9160
:10371000CF911F910F91FF90DF90CF900895C60138
:103720000E94561708E211E020E830E050E040E047
:1037300070E060E0C6010E9426160C2D1D2D64E28B
:10374000C6010E94AE1DD0E0C0E06F2D802F912FEA
:103750000E94071E2196C038F2E1DF07B1F7C601CB
:103760000E94C31AF601118EADCFC6010E946A17DE
:1037700089CFC6010E946A17AACFAF92BF92CF929B
:10378000DF92EF92FF920F931F93CF93DF93C82F97
:10379000D92F862F972F642F752FA22EB32E202F6F
:1037A000312F498D411150C0AC0147705078992399
:1037B0000CF453C0841B950BAC01477050789923CF
:1037C0000CF452C0A41AB50A7C0199230CF453C01E
:1037D0006B0177230CF452C0AC014A0D5B1D4038DD
:1037E000510534F06894AA24A7F8B12CA81AB90A94
:1037F000AB01420F531F4832514024F028E231E020
:10380000261B370BA701481B590BA41AB50AC60182
:10381000861B970B8901081B190B8B8D882389F157
:103820009501A601B701CE010E942616CE010E9485
:103830000C1BDF91CF911F910F91FF90EF90DF90C4
:10384000CF90BF90AF900895E881F981068CF78DF5
:10385000E02D60E0CE010995ECCF41505109486F51
:103860005F6F4F5F5F4FA6CF41505109486F5F6F49
:103870004F5F5F4FA7CFF12CE12CAACFD12CC12CE9
:10388000ABCFCE010E946A17CBCF0F93A82FB92FD1
:10389000ED91FC9111970280F381E02D00E021E091
:1038A000CD0109950F9108958F929F92AF92BF928B
:1038B000CF92DF92EF920F93CF93DF93CDB7DEB726
:1038C000E82FF92F84E092E09183808393828282B3
:1038D0008D859E85958384838F859889978386833C
:1038E000898980878A8981878B89828763874487D2
:1038F00025870687E786A08AB18AC28AD38A148A76
:1039000080E5868B81E0878B808F818F128E138E6E
:10391000148EDF91CF910F91EF90DF90CF90BF90F9
:10392000AF909F908F900895CF93DF93C82FD92F9A
:103930008D858823DCF09D899923D9F060E00E9471
:10394000A22A61E08D850E94632A64E170E080E034
:1039500090E00E94A62962E08D850E94632A68ECAF
:1039600070E080E090E00E94A6291C8EDF91CF914C
:10397000089561E00E94A22A61E08D850E94632A79
:1039800064E170E080E090E00E94A62960E08D850F
:103990000E94A22A64E170E080E090E00E94A629E3
:1039A00061E08D850E94A22A68EC70E080E090E0E2
:1039B0000E94A629DACF0F93CF93DF93C82FD92F78
:1039C000288F298F0D8B1A8E1B8E1C8E4115510549
:1039D0006105710591F48B858823BCF48C8588235F
:1039E000E4F4CE010E94941C8E858823F4F40E9496
:1039F000F427DF91CF910F91089526E08FEF95E0A6
:103A00000E948F2E81E08C8BE6CF61E00E94A22A7B
:103A100061E08B850E94632AE1CF61E00E94A22AC7
:103A200061E08C850E94632ADCCF60E00E94632AFB
:103A3000DECFCF92DF92EF92FF920F931F93CF933F
:103A4000DF9300D000D000D0CDB7DEB78D839E834A
:103A5000062F172F842F952FAD81BE811E962C9196
:103A600022230CF465C061E070E080E090E00E94E9
:103A7000A6290E946E29C62ED72EE82EF92EED819A
:103A8000FE8186850E94D52AAD81BE811F962C912C
:103A9000022E000C330B8217930719F561E070E0DA
:103AA00080E090E00E94A6290E946E2969837A83B3
:103AB0008B839C83DC01CB018C199D09AE09BF0966
:103AC000ED81FE81408951896289738948175907C0
:103AD0006A077B07A0F66EEE71E08FEF95E00E941B
:103AE000682B0115110559F1AD81BE8154968C9159
:103AF000882329F10E946E299B01AC012C193D09F4
:103B00004E095F0969017A01B8018FEF95E00E94C3
:103B1000302B6CEF71E08FEF95E00E94302B2AE0A4
:103B200030E0B701A6018FEF95E00E940A2C07C094
:103B30009C0150E040E0CA01B9010E94A6292696E6
:103B40000FB6F894DEBF0FBECDBFDF91CF911F91AE
:103B50000F91FF90EF90DF90CF9008951F93CF9338
:103B6000DF93C82FD92F162F9E898F892091F405B6
:103B7000222341F03FB7F8942091F405213039F128
:103B80003093F2059CBD8DBD8C8588235CF58B85BB
:103B9000882364F51EBD00000DB407FEFDCF8EB571
:103BA0008B8588233CF58C85882344F58091F4052A
:103BB000882349F09FB7F8948091F405813011F182
:103BC0008091F2058FBFDF91CF911F9108952DB3A2
:103BD0002093F2054DB32091F305209524232DBBAE
:103BE0003FBFD0CF60E00E94A22AD1CF60E00E9408
:103BF000A22AD0CF61E00E94A22AD5CF61E00E9424
:103C0000A22AD4CF8091F2058DBB9FBFDCCF1F933A
:103C1000CF93DF93C82FD92F162F9E898F8920919C
:103C2000F405222341F03FB7F8942091F4052130A8
:103C300009F13093F2059CBD8DBD8B8588232CF551
:103C40001EBD00000DB407FEFDCF8EB58B85882309
:103C500004F58091F405882349F09FB7F89480918A
:103C6000F4058130D1F08091F2058FBFDF91CF91C3
:103C70001F9108952DB32093F2054DB32091F305C4
:103C8000209524232DBB3FBFD6CF60E00E94A22AFF
:103C9000D7CF61E00E94A22ADCCF8091F2058DBBD4
:103CA0009FBFE4CFCF92DF92EF92FF921F93CF930B
:103CB000DF93C82FD92FE62EF72E142F9E898F89D8
:103CC0002091F405222349F02FB7F8943091F405A0
:103CD000313009F44CC02093F2059CBD8DBD8C851C
:103CE00088230CF04FC08B8588230CF04FC06701F0
:103CF0008FEFC81AD80AF701E490EEBC00000DB4AB
:103D000007FEFDCF8EB58C8588230CF043C0812F34
:103D10008150990BAC01181619068CF4EC2DFD2D71
:103D200091E09C1984918EBD00000DB407FEFDCF7B
:103D30008EB5892F8E0F3196841715069CF38B85CF
:103D4000882364F58091F405882349F09FB7F8949F
:103D50008091F405813031F18091F2058FBFDF91C0
:103D6000CF911F91FF90EF90DF90CF9008953DB3DA
:103D70003093F2054DB33091F305309534233DBBBC
:103D80002FBFABCF60E00E94A22AADCF60E00E94BF
:103D9000A22AADCF61E00E94A22AB9CF61E00E94C1
:103DA000A22AD0CF8091F2058DBB9FBFD8CF2F9292
:103DB0003F924F925F926F927F928F929F92AF92BB
:103DC000BF92CF92DF92EF92FF920F931F93CF9308
:103DD000DF9300D000D000D0CDB7DEB7A82EB92E2B
:103DE000862E972E842F952F2D833E83C02ED12E85
:103DF000E982FA829601281B390B3901DAF12D810B
:103E00003E81281939098901D2F1061517055CF49C
:103E10003D812E81DE82CD82C32ED22E382D292DDA
:103E20004C01832F922F2D813E81281539050CF4EA
:103E30006CC0AD81BE81A819B909BC83AB83960162
:103E4000281B390B29010AF483C0EB80FC80FF207A
:103E50000CF483C0F594E7948C159D05CCF46C01AB
:103E60009D818E819E828D82892E982E222423947C
:103E7000312C33C066247724621A730AC0CF00271E
:103E80001127021B130BC1CF22242394312C25C0F0
:103E90006C019D818E819E828D82892E982E222496
:103EA0002A94322C1AC0D501ED91FC910484F58539
:103EB000E02D29813A81A6016D817E81C501099598
:103EC000E418F508DAF04D815E814F5F5F4F5E8345
:103ED0004D83841695060CF444C0061517051CF78F
:103EE000D501ED91FC910484F585E02D29813A817D
:103EF0004D815E81B601C5010995E2CFC20CD31C8C
:103F00002B813C81E20EF31EDECFD4012D813E8158
:103F1000A21BB30BBC83AB839C012C193D09290167
:103F200072F0EB80FC80FF207CF0F594E794C816DB
:103F3000D9060CF4A9CF22242A94322CCECF4424C3
:103F40005524421A530AEDCF3FEFE31AF30AEDCF9F
:103F500044245524421A530A78CFBFEFEB1AFB0AC8
:103F600079CF26960FB6F894DEBF0FBECDBFDF9196
:103F7000CF911F910F91FF90EF90DF90CF90BF9066
:103F8000AF909F908F907F906F905F904F903F90F9
:103F90002F9008950895A82FB92FED91FC911197B6
:103FA0000084F185E02DCD01099508950F931F93AD
:103FB000A82FB92FED91FC911197048CF58DE02D70
:103FC000CD0109951F910F9108950F931F93A82F6D
:103FD000B92FED91FC911197068CF78DE02DCD0155
:103FE00009951F910F910895EF92FF920F931F93E0
:103FF000A82FB92FED91FC91119700A0F1A1E02D10
:10400000CD0109951F910F91FF90EF9008950895AC
:104010008F929F92AF92BF92CF92DF92EF92FF92D8
:104020000F931F93CF93DF93C82FD92F862E972EF0
:10403000A42EB52EC22ED32EE02EF12EE881F981CA
:104040000284F385E02DCE010995CA0CDB1C8601A4
:1040500001501109E881F9810488F589E02D282DA6
:10406000392DA501682D792DCE010995E881F981B9
:104070000688F789E02DCE010995DF91CF911F9138
:104080000F91FF90EF90DF90CF90BF90AF909F90F7
:104090008F9008958F929F92AF92BF92CF92DF92AE
:1040A000EF92FF920F931F93CF93DF93C82FD92FD7
:1040B000A62EB72E842E952EC22ED32EE02EF12EB4
:1040C000E881F9810284F385E02DCE0109959501FF
:1040D0002C0D3D1D21503109E881F9810488F589B5
:1040E000E02D082D192D482D592DB501CE0109952A
:1040F000E881F9810688F789E02DCE010995DF91E5
:10410000CF911F910F91FF90EF90DF90CF90BF90D4
:10411000AF909F908F9008956F927F928F929F9211
:10412000AF92BF92CF92DF92EF92FF920F931F93C5
:10413000CF93DF93C82ED92EC62FD72F642E752E7E
:10414000A22EB32E802E912ED601ED91FC910284E9
:10415000F385E02DC6010995AC0EBD1ECA15DB0521
:104160009CF4D601ED91FC910088F189E02D0E2D93
:104170001F2D282D392D462D572DBE01C60109951D
:104180002196CA15DB0569F7D601ED91FC910688E9
:10419000F789E02DC6010995DF91CF911F910F910D
:1041A000FF90EF90DF90CF90BF90AF909F908F9057
:1041B0007F906F900895EF92FF920F931F93A82F17
:1041C000B92FE62EF72E1A960D911C911B97189673
:1041D0002D913C911997ED91FC91119700A0F1A1BF
:1041E000E02D50E040E070E060E0CD0109951F91C6
:1041F0000F91FF90EF9008956F927F928F929F9210
:10420000AF92BF92CF92DF92EF92FF920F931F93E4
:10421000CF93DF93C82ED92E662E772E842E952E1F
:10422000A22EB32EC02FD12F6A147B0479F18C16E5
:104230009D0609F443C0D601ED91FC910284F385FB
:10424000E02DC6010995D601ED91FC910488F58910
:10425000E02D8E019501A401B301C6010995D60197
:10426000ED91FC910688F789E02DC6010995DF9153
:10427000CF911F910F91FF90EF90DF90CF90BF9063
:10428000AF909F908F907F906F900895C815D9053B
:104290001CF44E01C42FD52F9E01281939092F5F18
:1042A0003F4FD601ED91FC91048CF58DE02D0E2D44
:1042B0001F2DA401B301C6010995D9CFA614B704D7
:1042C0001CF43501A62EB72E9501261937092F5F4C
:1042D0003F4FD601ED91FC91068CF78DE02D0E2D10
:1042E0001F2DA401B301C6010995C1CF6F927F9222
:1042F0008F929F92AF92BF92CF92DF92EF92FF92F6
:104300000F931F93CF93DF93C82FD92FC62ED72E8D
:10431000A42EB52E622E732E802E912EE881F98167
:104320000284F385E02DCE010995E881F9810288A8
:10433000F389E02D0E2D1F2D9301A501B601CE01AD
:104340000995A501480D591D41505109E881F98190
:104350000288F389E02D9301B601CE010995E88129
:10436000F9810088F189E02D9401A501B601CE0103
:104370000995B601660D771D61507109E881F981D3
:104380000088F189E02D9401A501CE010995E8810D
:10439000F9810688F789E02DCE010995DF91CF914B
:1043A0001F910F91FF90EF90DF90CF90BF90AF9053
:1043B0009F908F907F906F900895E82FF92F6370F2
:1043C000668B623079F020F4662361F0613049F445
:1043D0008681978191878087848195819387828761
:1043E000089508958481958191878087868197813A
:1043F0009387828708950895E82FF92F13821282F8
:1044000080E392E09183808364837583468357833E
:104410006087718742875387168A158614861786A8
:10442000168681E0858B848B2FEF3FEF338B228BB9
:10443000318B208B878B108E128E118E08952F92C8
:104440003F924F925F926F927F928F929F92AF9224
:10445000BF92CF92DF92EF92FF920F931F93CF9371
:10446000DF93CDB7DEB7A2970FB6F894DEBF0FBECD
:10447000CDBF682E792E262E372E4A8B5B8B2B8351
:104480000E831F838E2C9F2CCD82AC8AD30159962C
:104490004D915C915A974115510509F460C0FA019C
:1044A00034969491329725913491BB81B91BC901FF
:1044B000E7E0BE9F800D911D1124FA018590949034
:1044C000FC01C590D490FC01329644903196249121
:1044D0002F8B329624912C870696FC018491182FFD
:1044E000FD81F23008F475C1422F220F550B5B8716
:1044F0004A87682F880F770B7C8F6B8FD301ED91E4
:10450000FC910284F385E02DC3010995BF89BB238B
:1045100009F4E3C1188A1D8A1982FC89EF2FF0E0A3
:10452000FC83EB833D81232F30E0398728874A893C
:104530005B89410F511D17FD5A955A8F498FB10163
:104540008C85680F711D87FD7A9578A36F8F98858C
:104550009C87A985AE8749A2B0E0BD8F9BC1189604
:104560008D919C911997281639060CF0BEC11A96A8
:104570008D919C911B97EA89FB89E817F9070CF04C
:10458000B4C12C2D30E03A832983C901880F991FCB
:10459000820F931F880F991FAC01420D531D5E8F30
:1045A0004D8F141615060CF0A0C16A2D70E07B87A4
:1045B0006A87660F771F660F771F660F771F78A3CE
:1045C0006F8FCB018E0F9F1F181619060CF08DC12F
:1045D00058968C91811105C08B81803B10F08F5FC4
:1045E0008B83D301ED91FC910284F385E02DC3010F
:1045F0000995FB81EF2FF0E0CF01880F991F880FFD
:10460000991F8E0F9F1F3D81232F30E0398B288B00
:10461000A1014B5F5F4F5E8B4D8B3D862C863F86A5
:104620002E8682199309BC01625D784F788F6F8B5B
:104630007C89472E512C8A899B899C8F8B8F3AA22B
:1046400029A279C0D301ED91FC910684F785E02D74
:1046500071010A851B8529813A81A5016B817885C5
:10466000C3010995E98DFA8DF595E795FA8FE98FE4
:10467000E98DFFEFCF1ADF0AA40CB51C28E0C216A3
:10468000D10409F446C02E2F30E03A8F298FE0FF85
:1046900016C03D813130B1F64C89413099F6D301D5
:1046A000ED91FC910484F585E02D91014B8D5C8D9D
:1046B0004C0D5D1D6C857D85C3010995D3CF2814F4
:1046C000390481F2BD81B13089F0D301ED91FC91C3
:1046D0000684F785E02D74010A851B8529813A81BE
:1046E000A5016B817885C3010995BCCFEC89E130C8
:1046F00061F7D301ED91FC910484F585E02D9401DF
:104700004B8D5C8D4C0D5D1D6C857D85C3010995C0
:10471000A9CF4E855F8568897989460F571F5F87C6
:104720004E878C859D8501969D878C87AD89BE8936
:104730008A179B0791F0EF89F88DAC85BD85EA0F4C
:10474000FB1FE491BE85BB833F84AA88BB88D12C24
:10475000C12C38862E803F8096CF29A03AA0EE81CA
:10476000FF81E815F905C1F0FD81F130F1F06D8DA3
:104770007E8DE981FA816E1B7F0BD301ED91FC9157
:104780000684F785E02D74010F8D18A129813A81E7
:104790004A895B89C3010995D301ED91FC91068893
:1047A000F789E02DC3010995A0C02C892130F9F6C5
:1047B000B1016B5F7F4FD301ED91FC910088F189CE
:1047C000E02D840128E030E04A895B89C301099526
:1047D000E3CF3C89323008F087CE1C8E1B8E1B86BF
:1047E0001A868CCE5520ACF0550C4394BD8D4B16DB
:1047F00008F045C089A1877099A19F5F99A3811195
:10480000F1CFC6010196F401EC0DFD1D54906C0131
:10481000E9CFAD81A130F9F08A859B85840D911D8A
:10482000E885F9858E9FB0018F9F700D9E9F700D5A
:104830001124620D731DD301ED91FC910684F7855F
:10484000E02DEE80FF800B811C812C853E85A5012B
:10485000C3010995C9CFBC89B130F1F6D301ED91FF
:10486000FC910484F585E02D2E813F814D895E8980
:104870006F8D78A1640D711DC3010995B5CFB9A3E2
:104880005D8EE889EB0FE88BF981FF5FF9832F8953
:10489000F21718F5E9A1EE23B9F38B8D9C8DF98100
:1048A0008F0F911D2B813C81829F5001839FB00C03
:1048B000929FB00C11244A895B89A40EB51E4888CA
:1048C000512C698D7A8D6F0F711D7E8B6D8B852DAF
:1048D0005D8CED8F49A2482E8DCFD301ED91FC91D7
:1048E0000688F789E02DC3010995A2960FB6F894C2
:1048F000DEBF0FBECDBFDF91CF911F910F91FF9013
:10490000EF90DF90CF90BF90AF909F908F907F906F
:104910006F905F904F903F902F9008958F929F924D
:10492000AF92CF92EF92FF920F931F93CF93DF93AB
:10493000C82FD92F262F898D9A8D009709F467C02B
:104940006A3009F4BFC06D3009F4CAC0FC01349666
:104950003491631708F4C4C03196E491E61708F463
:10496000BFC0FC01329685909490462F431BE7E030
:104970004E9F800C911C1124F40132963491319693
:10498000E4913323B9F1EE23A9F1F4013596E491D2
:104990004F89442311F16C890E2E000CFF0BE30F9D
:1049A000F11D6E9FA0016F9F500D11246C857D85B8
:1049B000460F571F688579856417750774F41D863F
:1049C0001C860696FC0184919D894E855F85989F83
:1049D000400D511D11245F874E87EA88FB880889A6
:1049E00019894E855F856C857D85AD88CC88CE0123
:1049F0000E941F22F4013496E4912C898C859D85B8
:104A00002E9F800D911D11249D878C8769C06A306F
:104A100009F447C06D3009F463C08F89882319F108
:104A20008C89482F50E0CA01880F991F840F951F69
:104A3000880F991F4C855D85840F951F4885598582
:104A40004817590784F41D861C868D8990E0880FCD
:104A5000991F880F991F880F991F4E855F85840FB6
:104A6000951F9F878E87EA88FB88088919894E855C
:104A70005F856C857D85AD88CC88CE010E941F2224
:104A80008C89282F30E0C901880F991F820F931F4E
:104A9000880F991F2C853D85820F931F9D878C87DA
:104AA0001FC01D861C868D8990E0880F991F880F76
:104AB000991F880F991F2E853F85820F931F9F870F
:104AC0008E870EC01D861C86FC013696E4912D89CA
:104AD0008E859F852E9F800D911D11249F878E8727
:104AE00081E090E0DF91CF911F910F91FF90EF90C7
:104AF000CF90AF909F908F900895E82FF92F862F39
:104B0000972F009771F0218D328D232B19F0928F02
:104B1000818F0895268537852A5F3F4F37872687FF
:104B2000F6CF218D328D232B91F3268537852650A4
:104B3000310937872687EBCF2F923F925F926F9292
:104B40007F928F929F92AF92BF92CF92DF92EF921D
:104B5000FF920F931F93CF93DF93A82FB92F842E2B
:104B6000952E622E732E802F912FCE2DDF2D2C2D82
:104B70003D2D4A2D5B2D59960D911C915A9701158B
:104B8000110509F4E3C06A3009F4B9C06D3009F4C5
:104B9000CBC0F801349674913196E491E62E062E3E
:104BA000000CFF087E151F0411F00CF0BDC0EE15BF
:104BB0001F040CF4B9C00E5F1F4FF801059114914A
:104BC000671BE7E06E9F000D111D1124F80132965E
:104BD000D4903196B4903196A490319674913196D8
:104BE000C49057966C915797662381F1ED2DF0E0B4
:104BF000E70FF11D77FDFA9554966C9154976E9FCF
:104C000080016F9F100D1124F401E080F180F70105
:104C1000E00FF11F18960D911C9119970E171F07A1
:104C2000ACF4F401118210825996ED91FC915A97DF
:104C30003696F49055966C915597F3010081118149
:104C40006F9D000D111D11241183008354961C913A
:104C50005497E12EF12C55965C907103F0011124CC
:104C6000D4016D917C91E60FF71F052D6C2D60032B
:104C700010011124D3016D907C90B101660D771D58
:104C80003F011D9D600C711C1124B1E06B1A71086D
:104C9000DB015B9CA00DB11D11246D0101E0C01A68
:104CA000D108DC010D911C911197E017F10714F464
:104CB000ED93FC93888199816817790714F47983BF
:104CC0006883F901808191818615970514F47182BA
:104CD0006082DA018D919C9111978C159D0514F4D9
:104CE000CD92DC92AE9C9001AF9C300D1124F4016A
:104CF00080819181820F931F9183808315C0F4017D
:104D0000118210825996ED91FC915A973696E49152
:104D100055962C91D3018D919C9111972E9F800DCA
:104D2000911D11248D939C93DF91CF911F910F9131
:104D3000FF90EF90DF90CF90BF90AF909F908F90BB
:104D40007F906F905F903F902F9008956A3009F4A4
:104D500094C06D3049F357966C915797662361F173
:104D600054966C915497E62FF0E0BF01660F771FC1
:104D70006E0F7F1F660F771FF40100811181600F96
:104D8000711F1896ED91FC911997E617F707A4F497
:104D9000F4011182108255966C91559770E0660F60
:104DA000771F660F771F660F771FF3010081118150
:104DB000600F711F718360835496EC9154976E2F2E
:104DC00070E0FB01EE0FFF1FE60FF71F8F01000FD2
:104DD000111FF40160817181F801E60FF71F7F0157
:104DE00001E0E01AF10855966C91559770E0660F56
:104DF000771F660F771F660F771FF3010081118100
:104E0000600F711F61507109F901008111810E1548
:104E10001F0514F4F182E082FA0120813181261706
:104E2000370714F471836083F40120813181FC0120
:104E3000408151812417350714F431832083F30115
:104E400080819181288139818217930714F4998395
:104E5000888354968C91282F30E0C901880F991FC0
:104E6000820F931F880F991FD4012D913C911197A8
:104E7000820F931F8D939C9357CFF4011182108260
:104E800055968C9190E0880F991F880F991F880F75
:104E9000991FD3012D913C911197820F931F8D93F0
:104EA0009C9342CF2F923F924F925F926F927F924C
:104EB0008F929F92AF92BF92CF92DF92EF92FF922A
:104EC0000F931F93CF93DF93CDB7DEB760970FB6E5
:104ED000F894DEBF0FBECDBF682E792E5A87498762
:104EE0003C872B87402E512EED86FE862C2C3D2CA8
:104EF000AF86B88AF20151834083ED85FE85318308
:104F00002083EF85F88911821082F10111821082CD
:104F1000F301808591859A838983828593859C831B
:104F20008B838FEF9FEF9E838D8398878F83862E51
:104F3000972EF40161914F016623D9F0CE010796B7
:104F40005C01FE0135966F0104977C018E010F5FB5
:104F50001F4F9E01255F3F4FAE01475F5F4FC3016B
:104F60000E949C25F40160819FEF891A990A6111C2
:104F7000E5CF8D819E8129813A81821793074CF07C
:104F8000F20131832083821B930B0196F1019183FF
:104F900080838F8198852B813C81821793075CF0F9
:104FA000ED85FE8531832083821B930B0196EF856F
:104FB000F8899183808360960FB6F894DEBF0FBEA8
:104FC000CDBFDF91CF911F910F91FF90EF90DF90B8
:104FD000CF90BF90AF909F908F907F906F905F9099
:104FE0004F903F902F900895CF93CFB7F894809132
:104FF000F505811123C0E0E6FCE08491ECE4FCE0DF
:105000009491E82FF0E0EE0FFF1FE258F34FA591C7
:10501000B491EC91E923D1F061E08AE00E94632A27
:105020008CB580618CBD8CB580648CBD61E08DE0F9
:105030000E94632A61E08BE00E94632A8091F5055B
:105040008F5F8093F505CFBFCF91089561E08AE02F
:105050000E94A22AE1CFE89409C097FB3EF4909504
:105060008095709561957F4F8F4F9F4F9923A9F041
:10507000F92F96E9BB279395F695879577956795D0
:10508000B795F111F8CFFAF4BB0F11F460FF1BC014
:105090006F5F7F4F8F4F9F4F16C0882311F096E9A7
:1050A00011C0772321F09EE8872F762F05C0662355
:1050B00071F096E8862F70E060E02AF09A95660F0E
:1050C000771F881FDAF7880F9695879597F90895C7
:1050D0000E947B280C94EC280E94DE2838F00E9465
:1050E000E52820F0952311F00C94D5280C94DB28AA
:1050F00011240C9420290E94FD2870F3959FC1F380
:10510000950F50E0551F629FF001729FBB27F00D75
:10511000B11D639FAA27F00DB11DAA1F649F6627CA
:10512000B00DA11D661F829F2227B00DA11D621F19
:10513000739FB00DA11D621F839FA00D611D221FD3
:10514000749F3327A00D611D231F849F600D211DB7
:10515000822F762F6A2F11249F5750409AF0F1F03A
:1051600088234AF0EE0FFF1FBB1F661F771F881FA3
:1051700091505040A9F79E3F510580F00C94D528DE
:105180000C9420295F3FE4F3983ED4F386957795FD
:105190006795B795F795E7959F5FC1F7FE2B880F49
:1051A000911D9695879597F9089597F99F6780E8DF
:1051B00070E060E008959FEF80EC089500240A9469
:1051C0001616170618060906089500240A941216E2
:1051D0001306140605060895092E0394000C11F415
:1051E000882352F0BB0F40F4BF2B11F460FF04C0C2
:1051F0006F5F7F4F8F4F9F4F089557FD9058440F1B
:10520000551F59F05F3F71F04795880F97FB991F25
:1052100061F09F3F79F087950895121613061406E2
:10522000551FF2CF4695F1DF08C01616170618066F
:10523000991FF1CF86957105610508940895E8944A
:10524000BB2766277727CB0197F908951F921FB6D2
:105250001F9211242F933F938F939F93AF93BF93EC
:105260008091F7059091F805A091F905B091FA05A4
:105270003091F60526E0230F2D3720F40296A11D6C
:10528000B11D05C029E8230F0396A11DB11D209370
:10529000F6058093F7059093F805A093F905B09370
:1052A000FA058091FB059091FC05A091FD05B09158
:1052B000FE050196A11DB11D8093FB059093FC0591
:1052C000A093FD05B093FE05BF91AF919F918F9183
:1052D0003F912F911F901FBE1F901895CF93DF9382
:1052E00000D000D0CDB7DEB73FB7F8948091FB0572
:1052F0009091FC05A091FD05B091FE0526B5A89BF7
:1053000005C02F3F19F00196A11DB11D3FBFBA2F57
:10531000A92F982F8827820F911DA11DB11D880FDD
:10532000991FAA1FBB1F880F991FAA1FBB1F9C0193
:10533000AD01220F331F441F551FCA01B9010F9041
:105340000F900F900F90DF91CF9108958F929F92C1
:10535000AF92BF92CF92DF92EF92FF92CF93DF9303
:1053600000D000D0CDB7DEB7C62ED72EE82EF92E4E
:105370000E946E29862E972EA82EB92EC114D10414
:10538000E104F10439F10E94822F07C0C114D10455
:10539000E104F104F9F00E94822F0E946E29DC01E1
:1053A000CB0188199909AA09BB09883E9340A10538
:1053B000B10560F321E0C21AD108E108F10888EED6
:1053C000880E83E0981EA11CB11CC114D104E10415
:1053D000F10419F70F900F900F900F90DF91CF917C
:1053E000FF90EF90DF90CF90BF90AF909F908F9005
:1053F0000895789484B5826084BD84B5816084BD4D
:1054000085B5826085BD85B5816085BDEEE6F0E03D
:10541000808181608083E1E8F0E010828081826099
:105420008083808181608083E0E8F0E0808181601A
:105430008083E1EBF0E0808184608083E0EBF0E04A
:10544000808181608083EAE7F0E0808184608083EE
:1054500080818260808380818E7F8083808180686C
:1054600080831092C10008958430E9F088F482307E
:1054700001F1833031F4E0E8F0E080818F778083C0
:105480000895813021F484B58F7784BD08950895FF
:10549000873099F0883031F4E0EBF0E080818F7D47
:1054A000808308950895E0E8F0E080818F7D808317
:1054B000089584B58F7D84BD0895E0EBF0E0808190
:1054C0008F7780830895CF93DF9390E0FC01EE5BAC
:1054D000F34F24918A5A934FFC0184918823D1F091
:1054E00090E0880F991FFC01E258F34FA591B49109
:1054F000FC01EC58F34FC591D49161110EC09FB7D8
:10550000F8948C91E22FE0958E238C938881E82388
:10551000E8839FBFDF91CF910895623039F08FB754
:10552000F894EC91E22BEC938FBFF4CF9FB7F894F3
:105530003C91822F809583238C93E881E22BE88332
:105540009FBFE8CF1F93CF93DF93D62F282F30E054
:10555000F901E25DF34F8491F901EE5BF34F149191
:10556000F901EA5AF34FC491CC23A1F0811116C07E
:10557000EC2FF0E0EE0FFF1FEC58F34FA591B49124
:105580008FB7F894D1110DC09C91E12FE095E923DC
:10559000EC938FBFDF91CF911F9108950E94342A21
:1055A000E7CFEC91E12BEC93F4CFCF93DF93282F4F
:1055B00030E0F901E25DF34F8491F901EE5BF34FC6
:1055C000D491F901EA5AF34FC491CC23A1F081118F
:1055D0000FC0EC2FF0E0EE0FFF1FE659F34FA5913F
:1055E000B491EC91ED2381E090E039F480E005C0C6
:1055F0000E94342AEECF80E090E0DF91CF910895B1
:10560000CF92DF92EF92FF920F931F93CF93DF938E
:10561000E82EF92EC62FD72FC42ED52EC114D104B3
:10562000E9F010E000E0D701ED91FC910190F081EC
:10563000E02D68812196C7010995892B29F00F5F1C
:105640001F4FC016D10679F7C801DF91CF911F9186
:105650000F91FF90EF90DF90CF9008958601F4CFE7
:10566000CF93DF93C82FD92FA62FB72F109799F07C
:10567000FD0101900020E9F73197AF014A1B5B0B58
:10568000E881F9810280F381E02DBD01CE01099509
:10569000DF91CF91089580E090E0FACFA82FB92F45
:1056A000ED91FC9111970190F081E02DCD010995CC
:1056B0000895A82FB92FED91FC9111970280F381E5
:1056C000E02D42E050E066E671E0CD0109950895D5
:1056D0000F931F93CF93DF93D82FC92F0E94302BA6
:1056E000082F192F8D2F9C2F0E94592B800F911F4F
:1056F000DF91CF911F910F9108954F925F926F921A
:105700007F92AF92BF92CF92DF92EF92FF920F9370
:105710001F93CF93DF93CDB7DEB7A1970FB6F89461
:10572000DEBF0FBECDBFC82ED92E142F052FB62E2B
:10573000A72E19A2223048F07E0181E2E80EF11C6A
:10574000422E512C712C612C0BC02AE0F5CF605DEC
:10575000F70162937F0184159505A605B705A0F0B2
:10576000612F702F8B2D9A2DA30192010E94E93099
:10577000812F902FAB2DBA2D122F032FB42EA52ED3
:105780006A302CF3695CE4CF309729F10190002056
:10579000E9F73197AF014E195F09D601ED91FC9100
:1057A0000280F381E02DB701C6010995A1960FB6DD
:1057B000F894DEBF0FBECDBFDF91CF911F910F9147
:1057C000FF90EF90DF90CF90BF90AF907F906F9061
:1057D0005F904F90089580E090E0E8CFA82FB92F18
:1057E000822F932F892B51F4ED91FC911197019009
:1057F000F081E02D642FCD0109950895CD010E941F
:105800007D2B0895242F352FAB0170E060E00E94BE
:10581000EE2B08950F931F93CF93DF93D82FC92FAB
:105820000E94EE2B082F192F8D2F9C2F0E94592B91
:10583000800F911FDF91CF911F910F9108957F925B
:105840008F929F92AF92BF92CF92DF92EF92FF9290
:105850000F931F93CF93DF93CDB7DEB72A970FB681
:10586000F894DEBF0FBECDBFA82EB92EC42ED52E04
:10587000E62EF72ECD82DE82EF82F886022FA70178
:105880009601CA01B9010E94D0308111F0C08D810A
:105890009E81AF81B885BF7789839A83AB83BC83B0
:1058A0002FEF3FEF4FE75FE7BC01CD010E94D03003
:1058B00081110DC02FEF3FEF4FE75FE769817A81DC
:1058C0008B819C810E94013018160CF4D9C02FEFF7
:1058D0003FEF4FE75FE46D817E818F8198850E9465
:1058E000CB3018160CF4EAC02FEF3FEF4FE75FEC18
:1058F0006D817E818F8198850E94013088230CF410
:10590000E6C020E030E0A9016D817E818F8198851D
:105910000E94013088230CF4E3C01A861986002304
:1059200009F4EFC010E060E070E080E09FE320E069
:1059300030E040E251E469837A838B839C83698100
:105940007A818B819C810E940630712E1F5F01132A
:10595000EECF262F372F482F592F6D817E818F81D3
:1059600098850E94952F69837A838B839C836981B4
:105970007A818B819C810E947830862E972EE82E2A
:10598000F92E0E942B28262F372F482F592F698157
:105990007A818B819C810E94942FC62ED72E082F4E
:1059A000192F2AE030E0482D592D6E2D7F2D8A2D9C
:1059B0009B2D0E94EE2BE82EF92E6EE28A2D9B2D58
:1059C0000E944E2BE80EF91EA985BA85AE0DBF1DAB
:1059D000BE83AD8320E030E040E251E4C982DA8248
:1059E0000B831C8369817A818B819C810E9468284A
:1059F000862E972E082F192F69837A838B839C8399
:105A000069817A818B819C810E947830C62ED72E45
:105A10004AE050E0B6018A2D9B2D0E94022CAD81F8
:105A2000BE81A80FB91FBE83AD83C601B0E0A0E060
:105A300089839A83AB83BC83BC01CD010E942B2850
:105A4000262F372F482F592F89829A820B831C8348
:105A500069817A818B819C810E94942FC62ED72EDA
:105A6000082F192F7A949FEF7912B4CF11C068E5EF
:105A700072E08A2D9B2D0E94302B8D839E8308C05F
:105A80006CE572E08A2D9B2D0E94302B8D839E83C6
:105A90008D819E812A960FB6F894DEBF0FBECDBFD2
:105AA000DF91CF911F910F91FF90EF90DF90CF90FA
:105AB000BF90AF909F908F907F90089560E672E0C6
:105AC0008A2D9B2D0E94302B8D839E83E1CF60E633
:105AD00072E08A2D9B2D0E94302B8D839E83D8CF20
