:100000000C948C040C94B4040C94B4040C94B404B8
:100010000C94B4040C94B4040C94B4040C94B40480
:100020000C94B4040C94B4040C94B4040C94B40470
:100030000C94B4040C94B4040C94B4040C94B40460
:100040000C94B8130C94B4040C94B4040C94B4043D
:100050000C94B4040C94B4040C94B4040C94B40440
:100060000C94A8110C94B4045F0004030505040566
:10007000061614FDFC0EFC0EFE028805D70834207F
:100080000600602C012111C4253443E2E0C0424443
:1000900099C4418404002209A564464182170223C1
:1000A0001F8B616449424C424C42E660E26046422A
:1000B0004C42E660E26046424C424C420800242337
:1000C00049A65B2930AC4622A224A224A422C8E679
:1000D00020E420C628A224A422A42242A62C300870
:1000E00000252CEEE17B65464A64224826444826DA
:1000F000244A26424A24DD8870CC98884854884C8B
:1001000090884C508C4C8C92A0A8A950002623D0EB
:10011000258C8B5644524652467242B478A6C64647
:1001200068822468A66A886A8AA6E620E4660400D3
:100130002708A2642EE16000281205A23347446418
:10014000446444466F6664668404291105A2334101
:1001500048664666469F8C888CA8012A12E7E045CF
:100160006524C94484C88844C4489211002B0E4AAF
:10017000215C4950A3830323418D002C0CE4602BA8
:1001800043E22062241B002D0865E034E141002E8B
:100190000B84202C43E2204202002F10C6213C4950
:1001A0005190A22045418A8214013014C9255C6710
:1001B0006862444662C6BF99901199189A01310C41
:1001C000C7295C4768A468FFC9013217C9255C8745
:1001D000466462C66642666C6A6C6A4A4CD5C14126
:1001E000013319C9255C87466462C66642664C685D
:1001F000526E42C6CD84C84C09003419C9255C2F03
:100200004E6C8A51C44CC848CC48CC44D0C481D42C
:10021000D854013517C9255CE320E22430A14DCC28
:10022000DCD8848C9B09919912003618C9255CA7EB
:1002300064858C8DC4D8C408C51A6F26642646848C
:1002400066003712C9255CE141D994989C989CD8E6
:10025000AAB18D003818C9255C674846428AAAE8C9
:1002600042C4C824E4A88AAA46860600391AC925C9
:100270005C674864624662C69B89099289B1091924
:100280001B8991911A003A0F24253443E220424CF5
:10029000E2204202003B1084653343E220424CE2FC
:1002A0002062241B003C0C4A215C518C8833420E96
:1002B000053D0CC9A45CE1013DCCC101013E0C4AE5
:1002C000215C419067449C09023F14C92154A74412
:1002D000E4C66642664CF7106254644200402ACF7E
:1002E0002184EB6C4C463244A644424409898C0874
:1002F000898C08858C88841A1109251322221344BD
:1003000092316362074100411ECE1D742F5A7696CA
:100310003262324430662E662C6AEA40286C286EBF
:10032000446E82AA004222CC2174E1606686646831
:10033000646864686466E62068C9D4C4D4C4D4C45C
:10034000D4C4D0C4810C004318CC2174A92484C522
:1003500098C45821CB0D23E622C66268A46A0044E3
:1003600023CE2184E1606A88666C646C646E626E80
:10037000626E626E626E626E626C646C6488E4606F
:1003800008004523CB216CE1806268624A62262422
:100390006226246244E868446826682624622C6247
:1003A0004A62E8E000461FCB216CE1806268624A45
:1003B0006226246226246244E86844682668266827
:1003C000709D15004720CD217CA9248684644C644F
:1003D0004C623062306274D541D8C8D4C8D40C099C
:1003E000554904004822CE2184A1A8626C646C6443
:1003F0006C646C646CE4A0646C646C646C646C64C9
:100400006C646CA2A800490BC5254CA16264FF8BEB
:10041000024A15CA1D64AB6C6E9FC84C904C904C40
:10042000088D880C11014B20CE2184A1A6644A6856
:10043000486A466C446E42D0F06E826C846A86686C
:1004400088668AA2C6004C11CA2164A16C6E7F1511
:10045000311531243173604D33D1219CC1AC848C72
:10046000A68A26622862266426622664266226649C
:1004700024642666226426662264268666266866CA
:10048000266866642868A226A6004E25CE218481AF
:10049000AA826A862A882AA828054D500849500C45
:1004A0004550505114511451D8CC98485908004F18
:1004B00018CE2184C98C84666C646C62D00F27C608
:1004C00046C66648C88C00501ACC2174E140688644
:1004D00064886288628862886286E42068728775B0
:1004E0000051204E2283C98C84666C646C62D02FCC
:1004F000682646464466246628CA8C8527224B47D0
:10050000005223CD2184E1806688646A646A646A4B
:100510006468E6206A666866688666686668666813
:10052000C26802005319CA2164872264C590C4546A
:100530000499D595995559D5C9444809005413CB08
:10054000216CE1C064CD8CCC8CCC4CD0E07E5703C8
:100550005522CE2184A1A8626C642E662E662E667A
:100560002E662E662E662E662E662E662E6848CE67
:100570000800561FCF1D74C1A8826C662E882A6C95
:100580002A6C2A6E2670267222742276783A3C0EE5
:1005900000572FD41D9CC1C2A482866866682A8831
:1005A00086266C86266C86268C2282227022642205
:1005B00070226422908674687468362C382C0C0083
:1005C000581DCF218CC3A486688A466E44D0949867
:1005D000B4D450844C686A88668CA2C8005917CD80
:1005E000217CC186824A662A88466A268C22B0729D
:1005F000740F6F005A1ACC216CE14158D944184548
:10060000141DE1201DAB08B288B1B28383005B0AE0
:1006100004A633C144FF4F085C14C8214C414C4E22
:100620004C4E4C4E4C4E4C4E4C4E4C005D0A04A26F
:10063000338144FF4F0C5E0F08A14D474C8A88461A
:10064000440B2122015F0849604BE10101600985EB
:10065000A43E4166910061142A215CE3646642680D
:100660008C6662CDC4CCC4089301621ACC1D64812F
:10067000722F886846A626A626A626A626A626683F
:1006800046246A006310292154A764C4A86CAB886F
:1006900019191200641ACC216C8F72471423331479
:1006A0005313531353135313532333441404651434
:1006B0002A215C87686462C8E8E0406E2C6248A624
:1006C00004006610C8213C87466257433653FBA896
:1006D0000600671FEB215B5370C4686446484648B8
:1006E0006664C848F220E820426A424C6248E60646
:1006F000006819CC216C81722F6A4848864686466C
:1007000086468646864686264A0A690BC521346394
:10071000642DC97E516A10471633697B10A2FD9182
:1007200085850809006B18CC216C81724F4A66845C
:1007300046C226C4AE2688466866282A0C6C0AC5BE
:1007400021348164FF17056D1A3321A481A2C2866A
:10075000A4846468C9D092A125434B86960CAD2829
:10076000696E182C216C81A2868464686468646850
:10077000646864686468A2A4006F102B2164A76891
:100780006662CA571333433500701CAC1D63618425
:100790008866646A626A626A626A626A826664829F
:1007A0006872611D00711AAC216387446486626AB5
:1007B000626A626A626A626A6486886272C302728C
:1007C0001028214C814284426244626A473500739A
:1007D00014292154852244466228C2E8CAAA482224
:1007E000A204007412A72144272C4A68C664684FEB
:1007F000224642280075172C216CA1846468646825
:100800006468646864686468844D050176152A1D0F
:100810004CA16462286428662468248A8C4E50089F
:1008200000771E301D7CA1A264626628646628667B
:1008300084246884248A848C844E48504808007834
:10084000142B2164C1828D0C8554DD5C95048D0CC4
:10085000058501791DAB2163A166622A642A66269B
:1008600068266A226C226E70324A266A226E0E0058
:100870007A0F292154E180A686889B22A203027B5D
:100880000F05A233474464278A64467623247C07F5
:10089000C2315CE1077D1005A233414866641B212B
:1008A00011913D51037E0C6A246565C541C4C80899
:1008B0000000000004FFFF0000000000080002012B
:1008C0000000030407000000000000000001020413
:1008D00008102040800102040810200102040810C2
:1008E00020040404040404040402020202020203B9
:1008F0000303030303000000002300260029000077
:10090000000000250028002B000000000024002724
:10091000002A000045055C1111241FBECFEFD8E06E
:10092000DEBFCDBF12E0A0E0B1E0E0E1FDE202C039
:1009300005900D92A631B107D9F725E0A6E1B2E006
:1009400001C01D92AE3BB207E1F714E0CCE8D4E061
:1009500004C02197FE010E94B015CA38D107C9F71B
:100960000E94A0150C94BD150C94000090E080E04E
:1009700008950895CF92DF92EF92FF920F931F9305
:10098000CF93DF93082F192FC62FD72FC42ED52E24
:10099000C114D104F9F0CC0EDD1EF12CE12CCE01F6
:1009A0002196D801ED91FC910190F081E02DDC01C0
:1009B0006C91C8010995E80EF91ECC16DD0679F791
:1009C000C701DF91CF911F910F91FF90EF90DF90C2
:1009D000CF9008957601F4CF0F931F93CF93DF93B9
:1009E000C82FD92F8E010C5F1F4FFE01E058FF4F1B
:1009F0000190F081E02DC8010995282F392F2E3F55
:100A00008FEF380738F081E090E0DF91CF911F91B0
:100A10000F910895FE01ED57FF4FCE57DF4F4081F4
:100A20006881C8010E94CB0E9881980F9883EBCF04
:100A30008AE192E00E94CE0A8AE192E00E94400799
:100A400060E08AE192E00E94DB0A08958AE192E088
:100A50000E94CB0B68E670E08AE192E00E94C90F29
:100A600028E031E044E160E08AE192E00E946F0F0B
:100A70008AE192E00E94E00B8111ECCF68EE73E016
:100A800080E090E00E9438140895CF93DF93C6E190
:100A9000D2E01B821A8289E191E0998388838CE0FD
:100AA0009AE0909397028093960210929802109287
:100AB00099028AE192E00E94190A85E291E0998305
:100AC000888327EA35E04EE456E06DE271E08AE182
:100AD00092E00E94750529E048E06AE08AE192E030
:100AE0000E943A07DF91CF910895CF92DF92EF9263
:100AF000FF920F931F93CF93DF930F92CDB7DEB783
:100B0000E82EF92EC62ED72E022F132F242F352F85
:100B100043E753E16DEB79E00E94F508CE010196C1
:100B20000E94E50F682F792F0C2D1D2D24E537E04D
:100B300049818E2D9F2D0E948B080F90DF91CF91C0
:100B40001F910F91FF90EF90DF90CF9008950F933A
:100B50001F93CF93DF9300D000D0CDB7DEB789834A
:100B60009A836C32D8F481E06A3278F4683209F4FE
:100B70004DC080E0693249F4842F90E0B0E0A0E0FD
:100B8000BC01CD010E94381481E00F900F900F90AE
:100B90000F90DF91CF911F910F9108956D3209F45D
:100BA00052C084EB860F823000F180E0603468F33D
:100BB000862F8F73E981FA81E80FF11D178D1F3F92
:100BC00009F46AC0607309F45CC0803109F45FC045
:100BD000812F0E9473159C0191E0232B09F490E072
:100BE000E981FA81928F81E0D0CF4423B1F16F7314
:100BF00089819A81860F911D9A83898362E0DC0145
:100C00005F968C910E94011581E0BFCF09811A8106
:100C1000015E1F4F81E0898309C062E00E940115D7
:100C2000B981B631B8F5E981EF5FE983D8018D91DB
:100C30008D018F3FA9F399819150903170F761E058
:100C40000E940115F0CF82E090E0433010F485E07F
:100C500090E00E948B1481E098CF6F73A981BA81D4
:100C6000A60FB11DBA83A98361E05F968C910E94A3
:100C7000011560E0E981FA81878D0E94401581E0CD
:100C800084CF642F812F0E94401581E07ECF0E9487
:100C90009E159ECF81E079CF81E077CFCF92DF9212
:100CA000EF92FF92CF93DF93C82FD92F822F932FEC
:100CB000683109F44BC060F0693109F4AFC080E0DD
:100CC0006032E9F56AE4CE010E944E0B81E037C044
:100CD0006431C9F06731A9F4442309F4C5C0FC01AB
:100CE00041500196480F592F511D81918EBD000032
:100CF0000DB407FEFDCF8EB54E175F07B1F781E04B
:100D00001EC080E01CC08C859D85AE85BF85892B6B
:100D10008A2B8B2B51F4E881F98180859185A285FE
:100D2000B3858C879D87AE87BF87E881F981418134
:100D300069E4CE010E944E0B0E94951081E0DF9184
:100D4000CF91FF90EF90DF90CF900895E881F981E7
:100D5000848538E0823039F03CE0833021F034E0A3
:100D6000813009F030E04C855D856E857F854115C9
:100D700089E058078DE36807710508F079C091E0B4
:100D80000F2EF0E8CF2EF4E8DF2EFEE1EF2EF12C4F
:100D9000F02D4C155D056E057F0540F4F694E79443
:100DA000D794C7949F5F9630A1F797E021E0292759
:100DB000822F90E0959587958370832B8065922F85
:100DC00091702091F404222341F02FB7F8943091D0
:100DD000F4043130C1F02093F2048CBD9DBDE88154
:100DE000F981408169E4CE010E944E0BA881B9814E
:100DF000EA85FB8530E020E012964C916CE2CE0152
:100E0000099581E09CCF3DB33093F2044DB330910E
:100E1000F304309534233DBB2FBFDFCFA881B981C8
:100E2000EA85FB8530E020E013964C916CE2CE0120
:100E30000995E881F981418169E4CE010E944E0B58
:100E40008091F404882391F09FB7F8948091F40482
:100E5000813029F08091F2048FBF81E070CF209122
:100E6000F2042DBB9FBF6BCF81E069CF81E067CFDC
:100E700090E09CCFE82FF92F60A741A722A7089503
:100E8000CF93DF93D82FC92F0E94CB0B8D2F9C2F90
:100E90000E94E00B8111FACF60E08D2F9C2F0E9401
:100EA000B50BDF91CF910895AF92BF92CF92DF92B1
:100EB000EF92FF920F93CF93DF93A82EB92E942F2A
:100EC0009770C1E0D0E0092E02C0CC0FDD1F0A945C
:100ED000E2F77C2F75018AE7E80EF11CD7018C91AF
:100EE0008230D8F0C0E050E0487FF501E1ACF2ACD0
:100EF000C080D180D60150968C91849F6001859FDF
:100F0000D00C1124F601E60FF11DEE0DFF1D00239C
:100F100041F0A50146585F4F25C0813021F770E0B0
:100F2000E2CF215030E02F5F3F4F2E0F3F1F8081D7
:100F30008C2B872781932E173F07C9F7DF91CF911D
:100F40000F91FF90EF90DF90CF90BF90AF900895FA
:100F5000C82F813029F071E0C1E002C0CC0F770FBB
:100F6000222361F380818C2B872780839F5F97707A
:100F700021509111F3CFD501DD968C91E80FF11D31
:100F8000DA018C91823020F371E0EACFCF93DF93C6
:100F9000E82FF92FA081B18183AD982F990F990F78
:100FA000990F96AF50969C915097903208F09FE120
:100FB000990F990F990F95AF24AD922F990F990F13
:100FC000990F97AF51963C915197682F620F7727F1
:100FD000771F3617170614F4832F821BEF01C05CAE
:100FE000DF4F98832196880F880F880F890F888399
:100FF00080EF2196888354968D919C915597813FDF
:10100000910508F48883ED5BFF4F56968C918083A1
:10101000DF91CF9108950E94C60708950F93CF9353
:10102000DF93C82FD92F9E01255B3F4FCE01875BF1
:101030009F4FDE01A65BBF4FBE01685B7F4FF9018A
:101040000081FC0120814C91FB016081CE010E9456
:10105000300A811107C0CC58DF4F1882DF91CF9141
:101060000F91089581E0FE01EC58FF4F8083BC97FB
:10107000808134979081981708F48083FE01E75BA4
:10108000FF4F808134979081891708F48083FE0197
:10109000E65BFF4F808134979081981708F4808336
:1010A000FE01E55BFF4F8081349790818917B0F690
:1010B0008083D4CFFC01EC5BFF4F10823196DC01C2
:1010C000AE5BBF4F2C912083319612972C912083D9
:1010D000319611962C9120830E940E0808950F934B
:1010E0000E9415100F910895A82FB92FFD01E85BFC
:1010F000FF4F10823296108231978FEF80833296A5
:101100008083D796ED91FC91D8970280F381E02DF2
:10111000CD01099508950F931F93CF93DF93C82FA7
:10112000D92FE02FF12FDE01A45BBF4F11961C9247
:101130001E923EAB2DAB7AAF69AF4BAF1CAE1D9686
:101140001C9290961C92119681E08C9311968C9330
:10115000F8AFEFAB0190F081E02DCE010995CE0103
:101160000E947408CE010E94C10FC45ADF4F18823A
:10117000DF91CF911F910F91089580E00895A82FDE
:10118000B92F11961C921E928DEB98E015969C93A8
:101190008E93149717969C938E93169719969C93FB
:1011A0008E9318971B969C938E931A9755961C9224
:1011B000559758961C92589759961C9259971C9679
:1011C0001D921D921D921C921F978FEF56968C9325
:1011D00056975B968C935B97FD017F96D5962FEF84
:1011E0002193EA17FB07E1F70895AF92BF92CF92E0
:1011F000DF92EF92FF920F931F93CF93DF93C82F4D
:10120000D92FA62EB72EC42ED52EE22EF32ECE0128
:101210000E94BF08AC82BD82CE82DF82E886F9865A
:101220000A871B87CE010E94C10ADF91CF911F91CF
:101230000F91FF90EF90DF90CF90BF90AF90089507
:10124000CF93DF93D82FC92F0E942D0B8D2F9C2F6A
:101250000E94071362E38D2F9C2F0E94C41245E564
:1012600068E08D2F9C2F0E94DE124AEA6CE08D2FE1
:101270009C2F0E94DE1242E26AE08D2F9C2F0E947A
:10128000DE1263EC71E08D2F9C2F0E942113DF9101
:10129000CF910895AF92BF92CF92DF92EF92FF92DB
:1012A0000F931F93CF93DF93082F192FC62EE42E91
:1012B000F52EC8010E940713D801ED91FC911197FA
:1012C0008189F701C481C095C80F838190E0880FA0
:1012D000991F880F991F880F991F5496AC90A80EDC
:1012E000B92EB11C6FE4C8010E94C4126A2DC80156
:1012F0000E94D1126B2DC8010E94D1126EE4C80168
:101300000E94C4126C2FC8010E94D11264E2C8016D
:101310000E94C4121DC04AE952E068E0C8010E9460
:10132000FA122896DA94DD2081F09E018AE992E093
:10133000F901DC01019640812F5F3F4F40954C93AE
:10134000B2E0823A9B07A1F7E6CFCA94CC2039F0ED
:10135000D7011296DC901297CD91DC91E6CFC801AF
:101360000E941413DF91CF911F910F91FF90EF9086
:10137000DF90CF90BF90AF900895CF93DF93D82F99
:10138000C92F842F6B3081F160F06F30E9F180E07C
:10139000603139F563E371E08D2F0E94211381E004
:1013A00020C06930C1F080E06A30D9F48D2F0E94EE
:1013B000610A68E871E08D2F9C2F0E94211366EF6F
:1013C00071E08D2F9C2F0E9421138D2F9C2F0E9446
:1013D000200981E006C063ED71E08D2F0E94570A5D
:1013E00081E0DF91CF910895411107C066EF71E070
:1013F0008D2F0E94211381E0F4CF6BEE71E08D2FD1
:101400000E94211381E0EDCF422F532F682F8D2FA3
:101410000E944A0981E0E5CF662329F06A3031F065
:10142000862F90E008958FEF9FEF08958FEF9FEF45
:101430000895FC01118E0895461738F4821760F064
:1014400081E0241760F080E00895821738F481E08D
:10145000241728F080E0089581E0089580E0089541
:10146000FF920F931F93CF93DF93C82FD92FF62EA0
:10147000122F202FDE01A95BBF4FFE01EA5BFF4F59
:101480006C9180810E941C0A882359F0FE01EB5B5D
:10149000FF4FCC5BDF4F212F4F2D608188810E9451
:1014A0001C0ADF91CF911F910F91FF900895E82FB3
:1014B000F92FA62FB72FB183A08352968C91848BDE
:1014C0000895CF93DF93C82FD92FEA85FB8530E0AD
:1014D00020E040E068E2CE010995EE81FF8130E036
:1014E00020E040E064E1CE01099541E06BE4CE01EB
:1014F0000E944E0BE881F981448169E2CE010E948D
:101500004E0B40E06BE4CE010E944E0BE881F98166
:10151000448169E2CE010E944E0B41E06BE4CE01B2
:101520000E944E0BE881F981458169E2CE010E945B
:101530004E0BDF91CF9108950F931F93CF93DF93BD
:1015400000D000D00F92CDB7DEB7A82FB92F6C8393
:101550004D832B831A8309831496ED91FC91159783
:101560009E012F5F3F4F41E06FE0CD0109950F9045
:101570000F900F900F900F90DF91CF911F910F91CF
:101580000895A82FB92F1496ED91FC91159730E08E
:1015900020E040E069E0CD0109950895A82FB92F1A
:1015A0001496ED91FC91159730E020E040E06AE060
:1015B000CD0109950895A82FB92F462F1496ED91C6
:1015C000FC91159730E020E06BE0CD01099508957E
:1015D000A82FB92F1496ED91FC91159730E020E0DB
:1015E00040E060E1CD0109950895CF92DF92FF922E
:1015F0000F931F93CF93DF9300D000D00F92CDB7FE
:10160000DEB7082F192F1C8281E08B837A836983D0
:10161000D801ED91FC91F1881D82F801A081B18182
:10162000C480D5809E012F5F3F4F50964C916FE054
:10163000C801F60109958D818F5F8D838F1568F341
:101640000F900F900F900F900F90DF91CF911F91FF
:101650000F91FF90DF90CF900895CF93DF93CDB798
:10166000DEB728970FB6F894DEBF0FBECDBF28E0D7
:10167000E0E0F1E0DE01119601900D922A95E1F78C
:10168000BE016F5F7F4F0E94F50A28960FB6F8944F
:10169000DEBF0FBECDBFDF91CF910895A82FB92F28
:1016A0001A96ED91FC911B9730E020E0CD01099551
:1016B0000895BF92CF92DF92EF92FF920F931F9304
:1016C000CF93DF93E82EF92ED701DB96DC91DB97E1
:1016D000DC96CC91DC97ED91FC91B188D12CC12C9A
:1016E000D701ED91FC9111972089D9960D911C910C
:1016F0002C9DC0012D9D900D1124880F991F880FDE
:10170000991F880F991F080F191F4C2F60E0C70100
:101710000E949C0ACF5F81E08C0D8D1728F4BFEFEB
:10172000CB1ADB0ACB15E0F2DF91CF911F910F911D
:10173000FF90EF90DF90CF90BF900895E82FF92FA2
:10174000A081B18150964C9183AD489FA001112496
:10175000440F551F440F551F440F551F70E060E0A4
:1017600081AD92AD0E94B6150895CF93DF93C82F37
:10177000D92F6CAFEFA9F8AD0190F081E02DCE012B
:101780000995EFA9F8AD0280F381E02DCE0109950E
:10179000DF91CF910895CF93DF93C82FD92FFE010A
:1017A000E558FF4F8081811107C060E0CE010E94A3
:1017B000B50BDF91CF910895CE010E949E0BF5CF1E
:1017C0001F93CF93DF93C82FD92FCE010E94590BBF
:1017D0001CAD8BAD180FE881F9818189181778F459
:1017E000FE01E558FF4F808181110EC0612FCE01AF
:1017F0000E94B50B81E0DF91CF911F910895CE013A
:101800000E94E80A80E0F7CFCE010E949E0BEECF47
:10181000FC01E60FF11D849190E0982F8827319606
:10182000E4918E0F911D0895213041F0223041F056
:10183000222311F0861B0895840F0895860F0895C2
:10184000841B0895213041F0223041F0222311F011
:10185000840F0895860F0895841B0895861B0895AC
:1018600080E008950F931F93CF93DF93C82FD92F54
:10187000062F172FF801849188833196E491E9832C
:10188000F8013296E491EA83F8013396E491EB8310
:10189000F8013496E491EC83F8013596E491ED83F8
:1018A000F8013696E491EE83F8013796E491EF83E0
:1018B000F8013896E491E887F8013996E491E987D0
:1018C000F8013A96E491EA87F8013B96E491EB87B8
:1018D000F8013C96E491EC87F8013D96E491ED87A0
:1018E000F8013E96E491EE87F8013F96E491EF8788
:1018F000F8017096E491E88B61E1C8010E94080C40
:101900009A8B898B63E1C8010E94080C9C8B8B8B9E
:1019100065E1C8010E94080C9E8B8D8BDF91CF91F1
:101920001F910F910895A82FB92F18963C911897E1
:10193000ED91FC911197849190E0032E02C0959552
:1019400087950A94E2F7232F260F283010F4E82F0A
:101950000FC031961196FC93EE93E491F0E098E07D
:10196000931B02C0EE0FFF1F9A95E2F7E82B285059
:1019700018962C938FEF9FEF02C0880F991F6A95DE
:10198000E2F780958E2308950F931F93CF93DF93F3
:10199000082F192FE801C05BDF4F79836883188611
:1019A000F801EF59FF4F6081CE010E94930C8E83A6
:1019B000F801EE59FF4F6081CE010E94930C8F8396
:1019C000F801E658FF4F80818A8791E0811190E00D
:1019D0009B87DF91CF911F910F910895CF93C62FD1
:1019E0000E94930CC15021E030E002C0220F331F4F
:1019F000CA95E2F7821BCF9108952F923F924F92A2
:101A00005F926F927F928F929F92AF92BF92CF928E
:101A1000DF92EF92FF920F931F93CF93DF93A82E45
:101A2000B92ED62F542EF501E05BFF4FC4811581EE
:101A30007F014501EAE78E0E911C312C10C0F701A1
:101A40008285F4018083262D6D2DC5010E9424100E
:101A5000DC1570F1CD0FDC2FD7191F5FC32DF701F7
:101A60007680C72CCC1A6D2ECD1608F46C2CF7019D
:101A700023800485412E202F412F6C2F82810E94CC
:101A8000220CD82E202F412F6C2F822D0E94140C57
:101A9000482F5110D4CFF70181858111D9CF83858B
:101AA000F4018083262D6D2DC5010E942410D0CF16
:101AB000F501E05BFF4FCD0FC4834582DF91CF91ED
:101AC0001F910F91FF90EF90DF90CF90BF90AF905C
:101AD0009F908F907F906F905F904F903F902F904E
:101AE00008956F927F928F929F92AF92BF92CF9202
:101AF000DF92EF92FF920F931F93CF93DF93C82F44
:101B0000D92F7E0180E5E80EF11CCE010E94C40CA5
:101B1000FE01E95AFF4F60803C966081C7010E9438
:101B2000EE0CB82EFE01EC59FF4F6081C7010E94F8
:101B3000EE0C182FFE01EB59FF4F6081C7010E9488
:101B4000EE0C782EF701968019140CF06FC0048506
:101B5000160D1195202F412F6B2D82810E94220C92
:101B6000A82EF7018283202F412F6B2D83810E94A5
:101B7000140C482FF7018383023009F46CC068F419
:101B8000002309F463C08A2D861921E02A0D092D4E
:101B9000040FAA24A394A80E0CC0033041F4262DF0
:101BA0002A0D891901E0040F41E0480F02C0082FF7
:101BB0002A2D6A2DCE010E94300A8823B9F1FE0138
:101BC000E05BFF4F148215825E01FFE5AF0EB11C92
:101BD0006E0180E6C80ED11C8E01005B1F4FF5011F
:101BE0006081C7010E94930C882EF6016081C701B5
:101BF0000E94930C982E40E0682DCE010E94FD0CAF
:101C000041E0692DCE010E94FD0C61E0C7010E94F8
:101C1000930C8111F0CFF8018581861504F3FE0144
:101C2000E658FF4FC05BDF4F8A858083872DDF91A9
:101C3000CF911F910F91FF90EF90DF90CF90BF90C9
:101C4000AF909F908F907F906F900895292D2A0DCF
:101C5000062D080FAECF81E0982F991921E02A0DAB
:101C6000861901E0040F480FA90EA3CFEF92FF924F
:101C70000F931F93CF93DF93282F392F062F172F02
:101C8000F901E45BFF4FC081D18167960F3F1105D9
:101C900011F008F03AC00136110560F120593F4FAC
:101CA000F90180819181C80FD91FCE010196FC01F5
:101CB0002491222309F466C0FE0124912017110605
:101CC00081F0FC018491C80FD11DCE010196FC0169
:101CD0002491222309F459C0FE01249120171106F2
:101CE00081F7CE010296DF91CF911F910F91FF9066
:101CF000EF90089501341105C0F222593F4FF901C8
:101D000080819181C80FD91FD0CF2E583F4FF90144
:101D100080819181C80FD91F7E0160E0C7010E94B8
:101D2000080CC80FD91F62E0C7010E94080CF4E03C
:101D3000EF0EF11C8017910780F3FE01849190E073
:101D4000982F88273196E4918E2B009709F1081778
:101D5000190791F0FE013296E491CE0FD11DFE01DC
:101D6000849190E0982F88273196E4918E2B0097EC
:101D700031F00817190771F7CE010396B4CF90E040
:101D800080E0B1CF90E080E0AECF90E080E0ABCFDC
:101D900090E080E0A8CFEF92FF920F931F93CF9334
:101DA000DF93C82FD92F062F142FE22EF32EFE011A
:101DB000E45AFF4F80818230E9F160F48823B1F06A
:101DC000FE01E25BFF4F0190F081E02DCE0109950D
:101DD000081B15C0833099F4FE01E25BFF4F0190B0
:101DE000F081E02DCE010995080F09C0FE01E25BEC
:101DF000FF4F0190F081E02DCE010995180FFE01F3
:101E0000EE5AFF4F0083319610836E2D7F2DCE0149
:101E10000E94360E682F792F80E06115710519F048
:101E2000CE010E94710DDF91CF911F910F91FF9014
:101E3000EF900895FE01E25BFF4F0190F081E02DED
:101E4000CE010995181BDBCFBF92CF92DF92EF92A4
:101E5000FF920F931F93CF93DF93C82FD92FC62ED6
:101E6000D42EE22EF32ECE010E94190A0E2D1F2D24
:101E7000B12C7E018CE5E80EF11C06C0933019F4FC
:101E8000D81A01C0C80EB80EF80161918F01EA811D
:101E9000FB81CE010995282F392F2F3F3207A1F062
:101EA0002E3F8FEF380781F34D2D6C2DCE010E9410
:101EB000CB0EF7019081923029F000F7992311F3AE
:101EC000D80EE1CFC81ADFCF8B2DDF91CF911F91B4
:101ED0000F91FF90EF90DF90CF90BF900895E82F83
:101EE000F92F8CE09AE093838283CF010E94240F24
:101EF0000895282F392FF901E45BFF4F80819181EC
:101F0000892B69F17E9680813C9680833B97408146
:101F10003C96408332979081992309F1913001F1E9
:101F2000F901E959FF4FE081D901A759BF4F5C91F1
:101F3000082E000C990B652F052E000C770B6E0FE9
:101F4000711DE7FD7A95861797071CF41D96E50F1E
:101F5000EC93541724F429583F4FF9015083089506
:101F600039979081891714F43A969083F901E359CF
:101F7000FF4F808184179CF729583F4FF9018083D8
:101F80000895FC01E25BFF4F80E39CE09183808336
:101F90000895CF93DF93C82FD92F862F972FFE0157
:101FA000E45BFF4F208131812817390759F0918375
:101FB0008083BC01CE01835A9F4F0E94320CCE0118
:101FC0000E94790FDF91CF91089522E0FC012083D8
:101FD00082EA92E00895A82FB92F462F1896ED9126
:101FE000FC91199730E020E060E2CD010995089559
:101FF000A82FB92F242F352F1896ED91FC91199702
:10200000462F67E1CD0109950895CF93DF930F9295
:10201000CDB7DEB76983AE014F5F5F4F61E00E94CD
:10202000F80F0F90DF91CF9108950F93A82FB92F3C
:10203000DF968C91DF97481BD596ED91FC91D69752
:10204000CD0109950F9108950F93A82FB92FFD0188
:10205000EC58FF4F9081992309F456C0222309F4CC
:1020600053C0223020F00230E9F0033099F100FF34
:102070001BC0FD01EC5BFF4F8081681708F444C072
:1020800031968081681708F03FC032969081319771
:102090003081842F820F8417D0F54917B8F58FEF60
:1020A000890F37C06F5F621BFD01EA5BFF4F8081C4
:1020B000481750F131968081481730F5329790815A
:1020C00031978081260F261748F4691730F42FEFD7
:1020D000290F06C04F5F421BCCCF682F6917A0F4B1
:1020E000821790F4681708F4682F291708F4922FC4
:1020F000292F261B00E0D796ED91FC91D8970480FC
:10210000F581E02DCD0109950F910895432F4917D1
:10211000D8F73817C8F7431708F4432F891708F47E
:10212000982F292F241B01E0E6CFCF93CFB7F89447
:102130008091F504811123C0EBEEF8E08491E7ED86
:10214000F8E09491E82FF0E0EE0FFF1FE75FF64F05
:10215000A591B491EC91E923D1F061E08AE00E946D
:1021600001158CB580618CBD8CB580648CBD61E03F
:102170008DE00E94011561E08BE00E9401158091C5
:10218000F5048F5F8093F504CFBFCF91089561E090
:102190008AE00E944015E1CF8091250590912605A7
:1021A000891B990B08959091260580912505981714
:1021B00058F4E92FF0E0E95DFA4F208130E09F5FAD
:1021C00090932605C90108952FEF3FEFFBCFE091D3
:1021D000260580912505E81730F4F0E0E95DFA4F17
:1021E000808190E008958FEF9FEF08950895CF923A
:1021F000DF92EF92FF920F931F93CF93DF93082FFD
:10220000192F862F972FC42ED52E20910205222319
:10221000E9F0C114D10481F0EC017C01EC0CFD1C4F
:102220006991D801ED91FC910190F081E02DC801F8
:102230000995CE15DF05A1F7C601DF91CF911F915A
:102240000F91FF90EF90DF90CF900895642F0E9440
:102250006D11F2CFCF93DF930F92CDB7DEB7E82F9A
:10226000F92F6983809102058823F1F0809103059D
:10227000803298F480910405E82FF0E0EB5FFA4F8C
:10228000998190838F5F809304058093030581E09B
:1022900090E00F90DF91CF91089581E090E09383DB
:1022A000828390E080E0F5CF61E0CE0101960E944C
:1022B0006D1181E090E0EDCFE6EFF4E01382128241
:1022C00088EE93E0A0E0B0E084839583A683B78393
:1022D00087E092E091838083089520916905260F1D
:1022E0003327331F21323105F4F42091B405243013
:1022F000E1F4662389F0A82FB92F90E080E0E09107
:1023000069052D91AC0145595A4FE40FF52FF11D88
:1023100020830196861798F380916905680F609372
:10232000690580E0089581E0089582E0089585EDD3
:102330008093BC00ECEBF0E0808184FDFDCF109237
:10234000B405089585EC8093BC001092B4050895FF
:102350001F920F920FB60F9211242F933F934F931A
:102360005F936F937F938F939F93AF93BF93EF93FD
:10237000FF93E091B900E87FE93C60F4F0E0E154BC
:10238000FA4E0C94B0158091B3058093BB0085EC98
:102390008093BC00FF91EF91BF91AF919F918F917E
:1023A0007F916F915F914F913F912F910F900FBE51
:1023B0000F901F90189590918C0580918B05981720
:1023C00068F08091B205811119C081E08093B10558
:1023D00084EA8093BC001092B405DCCFE0918C05B8
:1023E00081E08E0F80938C05F0E0E357FA4F8081F7
:1023F0008093BB0085EC8093BC00CCCF0E949711EA
:10240000C9CF80E2809347050E949711C3CF80E334
:10241000809347050E949711BDCF88E380934705BD
:102420000E94A211B7CFE0918C0581E08E0F8093BE
:102430008C058091BB00F0E0E357FA4F80839091C8
:102440008C0580918B05981720F485EC8093BC0057
:10245000A1CF85E88093BC009DCFE0918C0581E001
:102460008E0F80938C058091BB00F0E0E357FA4F0C
:1024700080838091B205811109C081E08093B1050C
:1024800084EA8093BC001092B40584CF0E94971117
:1024900081CF0E9497117ECF83E08093B405109284
:1024A000480585EC8093BC0075CF8091480580324B
:1024B00080F4E091480581E08E0F8093480580917B
:1024C000BB00F0E0E75BFA4F808385EC8093BC00B3
:1024D00061CF85E88093BC005DCF0E94A2118091FE
:1024E0004805803230F4E0914805F0E0E75BFA4FB0
:1024F00010826091480570E0E091AD05F091AE0565
:1025000089E495E009951092480544CF85E88093C9
:10251000BC0040CF84E08093B40510926A0510920D
:102520006905E091AF05F091B005099580916905C5
:10253000811105C081E08093690510926B05E091DF
:102540006A0581E08E0F80936A05F0E0E559FA4F45
:1025500080818093BB0090916A05809169059817EE
:1025600020F485EC8093BC0015CF85E88093BC00F7
:1025700011CF85EC8093BC001092B4050BCF109264
:1025800047050E94971106CFA82FB92F462F169600
:10259000ED91FC91179730E020E065E1CD010995C0
:1025A0000895A82FB92F462F1696ED91FC911797F5
:1025B00030E020E066E1CD01099508950F931F9367
:1025C000CF93DF93082F192FC62FD42F662361F0E6
:1025D000D8011696ED91FC9130E020E04D2F66E198
:1025E000C8010995C150A1F781E0DF91CF911F91FA
:1025F0000F910895A82FB92F242F352F1696ED91FE
:10260000FC911797462F67E1CD0109950895A82FF2
:10261000B92F1696ED91FC91179730E020E040E03D
:1026200068E1CD0109950895A82FB92F1696ED916F
:10263000FC91179730E020E040E069E1CD01099579
:102640000895EF92FF920F931F93CF93DF930F9212
:10265000CDB7DEB7E82EF92E062F172F23C0653130
:10266000A0F40F90DF91CF911F910F91FF90EF9009
:1026700008956E3FB1F7F8014181498369E2C701CE
:102680000E944E0B0E5F1F4F0DC0F8014181498320
:10269000D7011696ED91FC9130E020E0C701099535
:1026A0000E5F1F4FD8016C916A3118F7683178F4CA
:1026B0006731A8F2F80181818983AE014F5F5F4FD6
:1026C00061E0C7010E94FA120E5F1F4FEBCF0F5F50
:1026D0001F4FD7011696ED91FC9130E020E040E0CD
:1026E000C7010995DFCFEF92FF920F931F93CF930E
:1026F000DF93082F192FC62FD42FE22EF32E663129
:10270000F1F078F4643149F180E0653189F460E0FA
:10271000C8010E94EB0F6D2FC8010E94051081E0D7
:1027200007C06731B1F088EE860F8230B0F080E0EC
:10273000DF91CF911F910F91FF90EF90089561E08D
:10274000C8010E94EB0F6D2FC8010E94051081E0A7
:10275000EFCF61E0C8010E94EB0FD8011896ED9110
:10276000FC912E2D3F2D4D2F6C2FC8010995E0CFE8
:102770001F921FB61F9211242F933F938F939F9305
:10278000AF93BF938091B6059091B705A091B8051E
:10279000B091B9053091B50526E0230F2D3720F40F
:1027A0000296A11DB11D05C029E8230F0396A11DA6
:1027B000B11D2093B5058093B6059093B705A093FE
:1027C000B805B093B9058091BA059091BB05A09169
:1027D000BC05B091BD050196A11DB11D8093BA0540
:1027E0009093BB05A093BC05B093BD05BF91AF917D
:1027F0009F918F913F912F911F901FBE1F90189511
:10280000CF93DF9300D000D0CDB7DEB73FB7F894B9
:102810008091BA059091BB05A091BC05B091BD0512
:1028200026B5A89B05C02F3F19F00196A11DB11D2B
:102830003FBFBA2FA92F982F8827820F911DA11D66
:10284000B11D880F991FAA1FBB1F880F991FAA1FB0
:10285000BB1F9C01AD01220F331F441F551FCA012E
:10286000B9010F900F900F900F90DF91CF910895C5
:102870008F929F92AF92BF92CF92DF92EF92FF9290
:10288000CF93DF9300D000D0CDB7DEB7C62ED72EC2
:10289000E82EF92E0E940014862E972EA82EB92E0F
:1028A000C114D104E104F10439F10E949E1507C05E
:1028B000C114D104E104F104F9F00E949E150E94B4
:1028C0000014DC01CB0188199909AA09BB09883ECB
:1028D0009340A105B10560F321E0C21AD108E108D7
:1028E000F10888EE880E83E0981EA11CB11CC1146B
:1028F000D104E104F10419F70F900F900F900F909D
:10290000DF91CF91FF90EF90DF90CF90BF90AF908D
:102910009F908F900895282F392F2330310530F064
:10292000C901880F991F04970197F1F708957894CA
:1029300084B5826084BD84B5816084BD85B58260C4
:1029400085BD85B5816085BDEEE6F0E08081816062
:102950008083E1E8F0E01082808182608083808162
:1029600081608083E0E8F0E0808181608083E1EB3A
:10297000F0E0808184608083E0EBF0E08081816022
:102980008083EAE7F0E080818460808380818260D8
:10299000808380818E7F8083808180688083109295
:1029A000C10008958430E9F088F4823001F1833069
:1029B00031F4E0E8F0E080818F7780830895813002
:1029C00021F484B58F7784BD08950895873099F0F8
:1029D000883031F4E0EBF0E080818F7D80830895D2
:1029E0000895E0E8F0E080818F7D8083089584B5CC
:1029F0008F7D84BD0895E0EBF0E080818F77808348
:102A00000895CF93DF9390E0FC01E353F74F2491B7
:102A10008F51974FFC0184918823D1F090E0880F6B
:102A2000991FFC01E75FF64FA591B491FC01E150BD
:102A3000F74FC591D49161110EC09FB7F8948C9156
:102A4000E22FE0958E238C938881E823E8839FBF53
:102A5000DF91CF910895623039F08FB7F894EC91FF
:102A6000E22BEC938FBFF4CF9FB7F8943C91822F69
:102A7000809583238C93E881E22BE8839FBFE8CF86
:102A80001F93CF93DF93D62F282F30E0F901E7541F
:102A9000F74F8491F901E353F74F1491F901EF5186
:102AA000F74FC491CC23A1F0811116C0EC2FF0E0B8
:102AB000EE0FFF1FE150F74FA591B4918FB7F89437
:102AC000D1110DC09C91E12FE095E923EC938FBFCC
:102AD000DF91CF911F9108950E94D214E7CFEC911E
:102AE000E12BEC93F4CFCF93DF93282F30E0F90163
:102AF000E754F74F8491F901E353F74FD491F9016B
:102B0000EF51F74FC491CC23A1F081110FC0EC2FEE
:102B1000F0E0EE0FFF1FEB50F74FA591B491EC9151
:102B2000ED2381E090E039F480E005C00E94D214EA
:102B3000EECF80E090E0DF91CF9108950895089561
:102B40000E9497140E949F150E941805C0E0D0E0D3
:102B500002C00E9400000E9426052097D1F7FBCFFB
:102B6000EE0FFF1F0590F491E02D0994DC0101C0E8
:102B70006D9341505040E0F70895F894FFCFBF1295
:102B8000CA11CA11CA11CA11CA11CA11CA11C31174
:102B9000CA11CA11CA11CA11CA11CA11CA11C31164
:102BA000CA11CA11CA11CA11CA11CA11CA11DB113C
:102BB000CA11CA11CA11CA11CA11CA11CA11011205
:102BC000CA11CA11CA11CA11CA11CA11CA11DB111C
:102BD000CA11CA11CA11CA11CA11CA11CA110712DF
:102BE000CA11CA11CA11CA11CA11CA11CA110D12C9
:102BF000CA11CA11CA11CA11CA11CA11CA111F12A7
:102C0000CA11CA11CA11CA11CA11CA11CA1149126C
:102C1000CA11CA11CA11CA11CA11CA11CA11131292
:102C2000CA11CA11CA11CA11CA11CA11CA112D1268
:102C3000CA11CA11CA11CA11CA11CA11CA114C1239
:102C4000CA11CA11CA11CA11CA11CA11CA114C1229
:102C5000CA11CA11CA11CA11CA11CA11CA114C1219
:102C6000CA11CA11CA11CA11CA11CA11CA114C1209
:102C7000CA11CA11CA11CA11CA11CA11CA115512F0
:102C8000CA11CA11CA11CA11CA11CA11CA118612AF
:102C9000CA11CA11CA11CA11CA11CA11CA115512D0
:102CA000CA11CA11CA11CA11CA11CA11CA1186128F
:102CB000CA11CA11CA11CA11CA11CA11CA116D1298
:102CC000CA11CA11CA11CA11CA11CA11CA118A126B
:102CD000CA11CA11CA11CA11CA11CA11CA118A125B
:102CE000CA11CA11CA11CA11CA11CA11CA119F1236
:102CF000CA11CA11CA11CA11CA11CA11CA11B9120C
:102D0000CA11CA11CA11CA11CA11CA11CA11B912FB
:102D1000000000000000000048656C6C6F20576FD9
:102D2000726C64210000000000EC04BA04B604B91F
:102D30000400000000EC04BA04B604B9040B085AFD
:102D4000086F08181532165016AA165516AA16112D
:102D500016111600160016001600160016001600B2
:102D6000160016001600160016001600160016FFB4
:102D700016FF163F16001600160016001600160065
:102D80001600152216041520FEFAFEFAFEFAFEFAC7
:102D9000FEFAFEFAFE7819FF181510160015011636
:102DA0002716011600150316001504160A152C1611
:102DB000A8153A1616153B1608153C1633151116AC
:102DC0000715441600161D15451600160016271681
:102DD0000119FF152216041520FEFAFEFAFEFAFE6E
:102DE000FA19FF0001783C6464327D00093D00005F
:102DF00004289625100000280180001815221602CC
:102E00001520FE1419FF18152216C01520FEC8FE45
:102E10006419FF000000002A11F710B604F610CC68
:062E200010D310E71000C2
:00000001FF
