:100000000C94D4070C94FC070C94FC070C94FC078C
:100010000C94FC070C94FC070C94FC070C94FC0754
:100020000C94FC070C94FC070C94FC070C94FC0744
:100030000C94FC070C94FC070C94FC070C94FC0734
:100040000C947B240C94FC070C948F270C94C227EF
:100050000C94FC070C94FC070C94FC070C94FC0714
:100060000C94FC070C94FC070B000605060705031F
:1000700007375401FD4FE650EB00000000062C301E
:10008000C035346E5F31A6145A5D82201BB224182D
:10009000E2205502211422A126244A28E449AAC4B8
:1000A000492CA449AE8449B04451B0444932055169
:1000B000B40451B4E45036C55036C550388558386C
:1000C00085583885503A8550BA4558BA4558BA458A
:1000D00058BA4558BC2558BC2558BCFB3CEBB3FF6F
:1000E000BECBBB794BB0784BB0784BB0788AB07848
:1000F0008AB0748BB074CBA074CBA0740AA1740ABC
:10010000B1704AA17089A17089A16CCA916C09A2D1
:1001100068499268889264C99260C9926048935C09
:10012000C78358C89354478450C78448088540887B
:10013000853808962C079718895789D1B95400310A
:1001400030E1B3734F091DB11919722915333911F3
:10015000F4480DB510C7B2088A72A9FFFFFFFFFF70
:10016000FFFF6731154339D0847C40107C4000325A
:100170009AF573762F39E5045E9CA675D60704D4EC
:10018000070CD2071491824810E240CE213D8D41E8
:10019000398C61354C81354AA1310AB13109D131EF
:1001A00008D131C8F02D07F12DC7002EC7002EC78A
:1001B000002EAB6A4DD8D4AAAC099B62113661916E
:1001C000166191F66891F6E41AEEE19A7BCB5EC374
:1001D00035DEF2079381C143844243844253800356
:1001E0005384C35284C3528484527C86F2014CF2FD
:1001F000010DF2010DF2010EF2010DF201CEF1013D
:100200008FF1018FF101900100338C6EB46E3F25A8
:1002100022B4551756695307798F5244CDC13C8B90
:1002200001358A213509612D08712D07912D06A10F
:1002300029C6B029C5C02985D02985E02545F021EA
:1002400026AA444CC43CCEC33C4E3394404B284277
:100250003220C44D996565132775DCE441E0033A0B
:100260006223B246665C916A657A2562A2CCE33C61
:100270004EE33C4EE33C4E13526C05826005B25493
:1002800045D24885F23CC5122D4643050AC44D9916
:100290005575CB06003497F733725F1AF0F1A2DC84
:1002A000A455D8D5CAA8ADD4419FB30894931014CF
:1002B000B31094B21894922014B22094B12814B1BF
:1002C0003014913894B03814B04014904894AF482A
:1002D00014AF50148F5894AE5814AE6094AD689417
:1002E0008D7014AD7094AC78948C8014AC8094AB09
:1002F0008814AB90148B9894AA9814AAA0148AA876
:1003000094A9A814A9B094A8B89488C014A8C094BB
:10031000A7C89487D014A7D094A6D814A6E014E652
:1003200003FEFF8026545AF5FF3F06003585AF9443
:100330006EEF06ADB012901779D00779D00779D05B
:1003400007799107156A91166A91166A91166A9152
:10035000166A296546C8ABB4EBD22A4EFAA00F083C
:100360009E0F109E0F10AE4CB338AA9BBC0884425F
:100370004774C4666C46865CCA855C4A9599984AFF
:10038000A998692672A2771EE87122E7811EA881CA
:100390001EA8093D0E24338EC53210863212273234
:1003A00094C7399668319AC9401E4FDA2C8B833036
:1003B0000036B2B3946EDF12E8423A22532EA67290
:1003C000AA50E55450E55CDFC998CCB99C8CC93A79
:1003D00019933919933919933919B361868B391ED9
:1003E000A82926A711308611B4E503164452A0E3CC
:1003F000811CC3919CA2A19A82B19A81C19881C9A2
:100400001881C91861D99860D99860E19660E19621
:1004100060E16E9DBD6E09946E09144F09144F0979
:10042000964E09964E11944E11942E19144E219405
:100430004D21944D29922D31142D39120D41922CBC
:1004400049120C59100C59120B6910EB78100A81E3
:100450001009151D14F21C56B2209952249CF5491E
:100460002423013792F2736E6F7C40637C40537C8F
:1004700080537C40537C80537C80537C40537C80F1
:10048000537C80431CDF5114E15110E24110E251D2
:1004900010E24110E3410C234208E45108E4A12298
:1004A000EAB11E2AA21EEBA122EAB11E2AA21EEB6D
:1004B000A122EAB11E2AA21EEBA122EAB11E2AA2A3
:1004C0001EEBA122EAB11E2AA21EEBA1A2D4434533
:1004D000A9878A520F15A51E2A4A3DD64345D463E3
:1004E0003D54443DD64345D4633D54443DD64345F5
:1004F000D4633D320038D12ED46E0F3D5C75651348
:10050000A228D1E1240E12210C3221CB5121C96144
:1005100025077221C7812505922105922144922544
:100520004392254392254392254392254392258366
:100530008221848221C47221C46221C652210633E1
:100540002147232148032189E3208BC3208DA32049
:10055000CF7320104420531420D585515CE4459E70
:10056000D4C9362AB32E2390A68388A2C3889E03BB
:10057000899A638196A37994E3791024720C64724A
:100580000A846A88A46208E46284045B8424538435
:10059000245B02649BE364DCB44D5B12241B2224C5
:1005A0001B22241B3224194224195224D8612816F4
:1005B0007224159224D4B12810E2240E022D484250
:1005C0006557C539100039B7B374662F3922D56124
:1005D0001A822817D22414F2241212251032254E22
:1005E00042250D52250C72254A72294982254892CE
:1005F0002947A22547A22985A22985A22D84B229AF
:1006000083C22983C22D82C22D82C22D82D2298229
:10061000D22D81D22DC1C2DDB82558B82558B825B4
:1006200058B82558B82560B62560B64558B6456017
:10063000B44560B46558B465603086602E86602C21
:10064000C660A8E660A2E7709A0879102450944E1C
:1006500050988C501AAB581EE950A6455950255554
:10066000D00555D00555D00555A10BAA421754FD0C
:100670009D0AAA9C6AE642B24E64155A003A2CCEF4
:100680002D2F4C184652280323B0824660090BA137
:10069000148722FCE0330B042994811118610B9A12
:1006A000801198412990A3280000000004FFFF005A
:1006B000005F5570646174655F50617274005F55CE
:1006C00070646174655F50617274005F557064613D
:1006D00074655F46756C6C005F5570646174655F2E
:1006E00046756C6C005F506F7765724F6666005F91
:1006F000506F7765724F6E00203A20004275737913
:100700002054696D656F757421005F6E6578745053
:1007100061676532370040022D01000100000000D2
:1007200000000000000000000000000000000000C9
:1007300000000000000000000000000000000000B9
:1007400050022D0100010000000000000000000028
:100750000000000000000000000000000000000099
:1007600000000000000000000000A0022D010001B8
:100770000000000000000000000000000000000079
:100780000000000000000000000000000000000069
:100790000000000080022D010001000000000000A8
:1007A0000000000000000000000000000000000049
:1007B0000000000000000000000000000000000237
:1007C0002D010001000000000000000000000000FA
:1007D0000000000000000000000000000000000019
:1007E0000000000000000000000080170000000270
:1007F000901717000002800A01000001500E0E0041
:1008000000020000000000000000000000000000E6
:10081000000000008017000000029017170000027F
:10082000800A01000001500E0E00000200000000CE
:100830000000000000000000000000000000401761
:1008400000000002901717000002400A010000019A
:10085000A00E0E00000200000000000000000000DA
:100860000000000000000000401700000002901788
:1008700017000002400A01000001A00E0E00000255
:100880000000000000000000000000000000000068
:100890000000401700000002001717000002000AC5
:1008A00001000001000E0E00000200000000000028
:1008B0000000000000000000000000000000A00F89
:1008C0000F000005603232000002500F0F000005DB
:1008D0000000000000000000000000000000000018
:1008E0000000000000000000A00F0F0000056032B3
:1008F00032000002500F0F00000500000000000051
:1009000000000000000000000000000000000000E7
:100910000000500F0F000005603232000002A00FEF
:100920000F000005000000000000000000000000B3
:10093000000000000000000000000000500F0F0049
:100940000005603232000002A00F0F000005000019
:100950000000000000000000000000000000000097
:100960000000000000000000000F0F000005003232
:1009700032000002000F0F00000500000000000020
:100980000000000000000000000000000000000067
:1009900000003210181808181808000000000000A5
:1009A00000000000000000131444120000000000CA
:1009B000003250AA55AA11000000000000000000FB
:1009C000000000000000FFFF1F000000000000000A
:1009D00032180000000000000000000000000000CD
:1009E000000F0100000000000000000000003222A3
:1009F00055AA55AA55AA1100000000000000001ECB
:100A00001E1E1E1E1E1E1E010000000032101818A1
:100A10000818180800000000000000000000000096
:100A200000131444120000000000003250AA55AA1E
:100A300011000000000000000000000000000000A5
:100A4000FFFF1F0000000000000000000000003E4B
:100A50005B4F5B3E3E6B4F6B3E1C3E7C3E1C183C2E
:100A60007E3C181C577D571C1C5E7F5E1C00183C8A
:100A70001800FFE7C3E7FF0018241800FFE7DBE7D3
:100A8000FF30483A060E2629792926407F050507BA
:100A9000407F05253F5A3CE73C5A7F3E1C1C080816
:100AA0001C1C3E7F14227F22145F5F005F5F0609DB
:100AB0007F017F006689956A606060606094A2FF34
:100AC000A29408047E040810207E201008082A1C26
:100AD00008081C2A08081E101010100C1E0C1E0CF2
:100AE00030383E3830060E3E0E0600000000000092
:100AF000005F00000007000700147F147F14242A01
:100B00007F2A1223130864623649562050000807D2
:100B10000300001C2241000041221C002A1C7F1CF3
:100B20002A08083E080800807030000808080808F5
:100B3000000060600020100804023E5149453E005C
:100B4000427F400072494949462141494D331814BA
:100B5000127F1027454545393C4A49493141211109
:100B600009073649494936464949291E00001400FB
:100B7000000040340000000814224114141414141E
:100B8000004122140802015909063E415D594E7C7C
:100B90001211127C7F494949363E414141227F4131
:100BA00041413E7F494949417F090909013E41418F
:100BB00051737F0808087F00417F41002040413F7A
:100BC000017F081422417F404040407F021C027F89
:100BD0007F0408107F3E4141413E7F090909063EDE
:100BE0004151215E7F0919294626494949320301AD
:100BF0007F01033F4040403F1F2040201F3F4038BF
:100C0000403F631408146303047804036159494D99
:100C100043007F4141410204081020004141417FCF
:100C20000402010204404040404000030708002045
:100C3000545478407F284444383844444428384445
:100C400044287F385454541800087E090218A4A47C
:100C50009C787F0804047800447D40002040403D9B
:100C6000007F1028440000417F40007C0478047815
:100C70007C080404783844444438FC1824241818A8
:100C8000242418FC7C080404084854545424040404
:100C90003F44243C4040207C1C2040201C3C4030F1
:100CA000403C44281028444C9090907C4464544C20
:100CB000440008364100000077000000413608007B
:100CC00002010204023C2623263C1EA1A161123A25
:100CD0004040207A38545455592155557941225471
:100CE000547842215554784020545579400C1E5276
:100CF000721239555555593954545459395554541B
:100D0000580000457C410002457D420001457C4081
:100D10007D1211127DF0282528F07C5455450020C5
:100D200054547C547C0A097F4932494949323A4437
:100D300044443A324A4848303A4141217A3A4240A2
:100D40002078009DA0A07D3D4242423D3D40404074
:100D50003D3C24FF2424487E4943662B2FFC2F2B47
:100D6000FF0929F620C0887E0903205454794100E8
:100D700000447D413048484A32384040227A007A67
:100D80000A0A727D0D19317D2629292F2826292945
:100D9000292630484D402038080808080808080867
:100DA000382F10C8ACBA2F102834FA00007B00008E
:100DB00008142A142222142A14085500550055AA92
:100DC00055AA55AAFF55FF55FF000000FF0010105F
:100DD00010FF00141414FF001010FF00FF1010F09B
:100DE00010F0141414FC001414F700FF0000FF00AE
:100DF000FF1414F404FC141417101F10101F101FFC
:100E00001414141F00101010F0000000001F101028
:100E100010101F10101010F010000000FF10101024
:100E2000101010101010FF10000000FF140000FF41
:100E300000FF00001F10170000FC04F4141417102A
:100E4000171414F404F40000FF00F714141414141D
:100E50001414F700F7141414171410101F101F1493
:100E60001414F4141010F010F000001F101F0000F4
:100E7000001F14000000FC140000F010F01010FF20
:100E800010FF141414FF141010101F00000000F0C5
:100E900010FFFFFFFFFFF0F0F0F0F0FFFFFF00009A
:100EA000000000FFFF0F0F0F0F0F3844443844FCC1
:100EB0004A4A4A347E02020606027E027E026355D8
:100EC0004941633844443C04407E201E2006027E93
:100ED000020299A5E7A5991C2A492A1C4C720172A5
:100EE0004C304A4D4D303048784830BC625A463D0F
:100EF0003E494949007E0101017E2A2A2A2A2A44C4
:100F0000445F444440514A444040444A51400000F8
:100F1000FF0103E080FF000008086B6B0836123603
:100F20002436060F090F06000018180000001010E4
:100F3000003040FF0101001F01011E00191D1712A2
:100F4000003C3C3C3C0000000000000000080002A7
:100F5000010000030407000000000000000001027F
:100F60000408102040800102040810200102040837
:100F70001020040404040404040402020202020215
:100F800003030303030300000000230026002900DD
:100F900000000000250028002B00000000002400B5
:100FA00027002A008E08F22711241FBECFEFD8E0B9
:100FB000DEBFCDBF11E0A0E0B1E0ECEDF8E502C08E
:100FC00005900D92A63CB107D9F726E0A6ECB1E05A
:100FD00001C01D92A931B207E1F717E0C4EDD7E0D7
:100FE00004C02197FE010E945F29C23DD107C9F7C5
:100FF0000E9421280C946C2C0C94000090E080E05E
:1010000008950895CF92DF92EF92FF920F931F936E
:10101000CF93DF93082F192FC62FD72FC42ED52E8D
:10102000C114D104F9F0CC0EDD1EF12CE12CCE015F
:101030002196D801ED91FC910190F081E02DDC0129
:101040006C91C8010995E80EF91ECC16DD0679F7FA
:10105000C701DF91CF911F910F91FF90EF90DF902B
:10106000CF9008957601F4CFCF93DF93C82FD92F77
:10107000CE010E94FB23282F392F2A303105F1F0B1
:101080002D30310589F12E3F8FEF380740F54BA900
:101090005CA969A97AA9CE0104960E94C323282FCE
:1010A000392F888D823099F110F5882349F18BA969
:1010B0009CA9280F391F3CAB2BAB11C01AAA19AA47
:1010C00088A5082E000C990B29A5821B910927FDE4
:1010D00093952BA93CA9820F931F9CAB8BAB81E00E
:1010E00090E0DF91CF9108951AAA19AAF8CF833022
:1010F000B1F78BA99CA9821B930B9CAB8BABEFCF59
:1011000089A99AA9280F391F3AAB29ABE8CF89A939
:101110009AA9821B930B9AAB89ABE1CFEF920F9305
:101120000F2EF7E0EF2EF02D09E028E04AE062E014
:1011300070E080E092E00E947F0AE8ECF1E0138228
:10114000128284E291E0918380831782168281E08B
:1011500090E097878687878B108E12AA11AA14AA0F
:1011600013AA17AA0F91EF9008950E946D098BE5BD
:1011700095E0909316068093150686E091E00E9414
:101180006A2980E092E00E94000B61E080E092E03A
:101190000E94681D80E092E00E94940B80E092E043
:1011A0009093CD018093CC0161E08CEC91E00E94A2
:1011B000BD2360E08CEC91E00E94C02370E060E011
:1011C0008CEC91E00E94F3236FEF7FEF8CEC91E0C9
:1011D0000E94F72368E670E08CEC91E00E94E12326
:1011E00008950F931F93CF93DF938091C6011F92B1
:1011F0008F938091C70190E001969F938F9384E134
:1012000091E09F938F9380E091E09F938F930E9452
:10121000962901E510E02BE031E04EE250E06EE06F
:1012200070E080E092E00E94FF1980E092E00E946E
:10123000F6138DB79EB708960FB6F8949EBF0FBEF3
:101240008DBFC8ECD1E00FE010E06FEF7FEF80E0E2
:1012500092E00E946F0A80910A0290910B0201971E
:101260001AAB09AB9CAB8BAB1FAA60E071E0CE015F
:101270000E94B12680E092E00E942E198111E5CFF4
:101280008091C70190E001966CE070E00E942929EE
:101290008093C7018091C60190E001966CE370E0F5
:1012A0000E9429298093C601DF91CF911F910F9150
:1012B0000895E0ECF0E0908195FFFDCF8093C600AB
:1012C000E0ECF0E0808186FFFDCFE0ECF0E0808193
:1012D0008064808390E080E00895EBE5F5E089E5A7
:1012E00099E0918780871386128682E08383158632
:1012F00014861092C5008CE08093C40088E080932F
:10130000C10086E08093C2000895EF92FF920F9390
:101310001F93CF93DF93E82FF92F862F972F642FFA
:10132000752F422F532F99230CF476C020853185D9
:10133000821793070CF070C077230CF46DC0A28560
:10134000B3856A177B070CF067C0A2A9AA2329F00E
:10135000D901A81BB90BCD0101972689223009F4C8
:101360006AC0233009F477C0213009F45CC021A998
:10137000222341F026813781D901A61BB70BBD017D
:1013800061507109DC0199230CF46EC0B595A795E5
:10139000B595A795B595A795C3A1D4A127A130A5CB
:1013A000121613060CF062C003A514A5209F70014D
:1013B000219FF00C309FF00C11246E197F0962F10F
:1013C0006017710748F5C69F9001C79F300DD69FE3
:1013D000300D11242A0F3B1F452B09F05DC0DF01A2
:1013E000A20FB31FAC014770507899230CF44DC085
:1013F00087E090E0BC01641B750BAB0181E090E0DD
:10140000BC0102C0660F771F4A95E2F7E20FF31F97
:1014100083AD862BDB968C93DF91CF911F910F913B
:10142000FF90EF90089524813581261B370BBC0176
:10143000C90101979CCF24813581D901A81BB90B23
:10144000CD01019726813781D901A61BB70BBD01BC
:10145000615071098CCF26813781281B390BCB0154
:10146000B9016150710983CF179690CFC69F900143
:10147000C79F300DD69F300D11242A0F3B1F2032FD
:10148000B3E03B0708F4A8CFC7CF41505109486FDC
:101490005F6F4F5F5F4FACCFDF01A20FB31FAC0197
:1014A000477050789923A4F087E090E0BC01641B5A
:1014B000750B81E090E002C0880F991F6A95E2F7F2
:1014C0008095E20FF31F93AD8923DB968C93A4CF15
:1014D00041505109486F5F6F4F5F5F4FE5CF282F35
:1014E000392F41E0672B09F040E04195F901FB9667
:1014F000255A3C4F4193E217F307E1F70895AF9265
:10150000BF92CF92DF92EF92FF920F931F93CF93F0
:10151000DF93C82FD92FC62ED72EF42E122F5601A7
:10152000F601EE0FFF1FEE0FFF1FE85AFE4F42813C
:10153000538160817181CE010E94871D80E391E01B
:1015400099838883DC8ECB8EFD8E1E8F0F8FE8A251
:101550008FEF9FEF98A78FA31FA61AAA81E08DA7F0
:101560001EA66C817D8176956795769567957695B3
:1015700067957CA36BA3EE81FF816E9FC0016F9F77
:10158000900D7E9F900D11249EA38DA380E293E089
:101590000E941529162F472F6BA77CA7CF010E9409
:1015A000152921E030E0892B11F430E020E0CF0153
:1015B000612F742F0E941529260F371F3AA729A7DC
:1015C00081E0C816D104D1F083E089A381E0CA94F8
:1015D000CD2809F080E089AB81E093E0A916B10441
:1015E0000CF080E08AA3DF91CF911F910F91FF90C3
:1015F000EF90DF90CF90BF90AF90089581E0E5CF5E
:10160000CF93DF93C82FD92F8D8D88230CF046C040
:101610008E8D88230CF04AC08F8D88230CF04EC02D
:1016200088A188230CF06CC00E9444248CB5837F71
:101630008CBD8CB58F7D8CBD80916B05882349F066
:101640009FB7F89480916B05813009F45DC0909349
:10165000690580E58CBD81E08DBD80916B05882397
:1016600051F09FB7F89480916B05813009F457C011
:10167000809169058FBFE881F98102A0F3A1E02D77
:101680006FEF7FEFCE01099581E08DA71EA68FEF4A
:101690009FEF98A78FA3DF91CF91089561E00E94FB
:1016A000F72561E08D8D0E94B825B2CF61E00E94E0
:1016B000F72561E08E8D0E94B825AECF61E00E94D3
:1016C000F72561E08F8D0E94B82564E170E080E02D
:1016D00090E00E94FB2460E08F8D0E94F72564E17A
:1016E00070E080E090E00E94FB2461E08F8D0E941A
:1016F000F72568EC70E080E090E00E94FB2490CF3A
:1017000060E00E94B82590CF8DB3809369052DB31A
:1017100080916A05809582238DBB9FBF9ACF80916F
:1017200069058DBB9FBFA7CFFC0117A608951F9326
:10173000CF93DF93C82FD92F162F8E8D88239CF43B
:101740008D8D8823A4F41EBD00000DB407FEFDCFCF
:101750008EB58D8D88237CF48E8D882384F4DF9163
:10176000CF911F91089560E00E94F725E9CF60E0D6
:101770000E94F725E8CF61E00E94F725EDCF61E0F8
:101780000E94F725ECCF1F93CF93DF93C82FD92F5B
:10179000162F8D8D88236CF41EBD00000DB407FE3E
:1017A000FDCF8EB58D8D882344F4DF91CF911F91AD
:1017B000089560E00E94F725EFCF61E00E94F725D1
:1017C000F4CFEF92FF920F931F93CF93DF93082FE5
:1017D000F92EC62FD4E0E12C13E00BC06E2D0CC007
:1017E000622BCC0FCC0F802F9F2D0E94C30BD150AA
:1017F00051F0612FCC2394F36295607F212FC6FFB7
:10180000EFCF2E2DEDCFDF91CF911F910F91FF9054
:10181000EF900895EF92FF920F931F93CF93DF9372
:10182000082F192FF62EE72EC42FD52FF801858DFE
:101830008823F4F42097A9F0EF2DFE2D91E09F1955
:1018400084918EBD00000DB407FEFDCF8EB5892FAB
:101850008E0F31968C171D0698F3F801858D88231D
:101860006CF4DF91CF911F910F91FF90EF9008954D
:1018700060E00E94F7252097F9F6EFCF61E00E9423
:10188000F725EFCFCF92DF92EF92FF921F93CF9386
:10189000DF93C82FD92FE62EF72E142F8E8D882395
:1018A000ACF58D8D8823B4F567018FEFC81AD80A7F
:1018B000F701E490EEBC00000DB407FEFDCF8EB53D
:1018C0008E8D88235CF5812F8150990BAC01181601
:1018D00019068CF4EC2DFD2D91E09C1984918EBDA0
:1018E00000000DB407FEFDCF8EB5892F8E0F319607
:1018F000841715069CF38D8D8823A4F4DF91CF9176
:101900001F91FF90EF90DF90CF90089560E00E94CC
:10191000F725C7CF60E00E94F725C6CF61E00E949F
:10192000F725D1CF61E00E94F725E8CFCF92DF9273
:10193000EF92FF920F931F93CF93DF9300D000D0CD
:1019400000D0CDB7DEB78D839E83062F172F0E9460
:10195000C324C62ED72EE82EF92EAD81BE819096D7
:101960008C910E942A26ED81FE8122A1281719065A
:10197000E9F461E070E080E090E00E94FB240E94C6
:10198000C32469837A838B839C83DC01CB018C190C
:101990009D09AE09BF0981389649A849B105E8F209
:1019A0006CEF76E086E795E00E94DE2601151105D2
:1019B000E9F00E94C324DC01CB018C199D09AE091A
:1019C000BF096C017D01B80186E795E00E9485267C
:1019D00068EF76E086E795E00E9485262AE030E011
:1019E000B701A60186E795E00E94782726960FB6F4
:1019F000F894DEBF0FBECDBFDF91CF911F910F9145
:101A0000FF90EF90DF90CF900895AF92BF92CF926A
:101A1000DF92EF92FF920F931F93CF93DF93D82F14
:101A2000C92FC62ED72EE42EF52EA22EB32E64E497
:101A30000E94970BB6017695679576956795769592
:101A400067958D2F9C2F0E94C30BB70176956795E4
:101A500076956795769567958D2F9C2F0E94C30B81
:101A600065E48D2F9C2F0E94970B6A2D8D2F9C2F44
:101A70000E94C30B6B2D8D2F9C2F0E94C30B602FD8
:101A80008D2F9C2F0E94C30B612F8D2F9C2F0E94A6
:101A9000C30BDF91CF911F910F91FF90EF90DF90DB
:101AA000CF90BF90AF900895EF92FF920F931F9346
:101AB000CF93DF93D82FC92F062F172FE42EF52EA3
:101AC0006EE40E94970BB8017695679576956795B9
:101AD000769567958D2F9C2F0E94C30B6FE48D2FF9
:101AE0009C2F0E94970B6E2D8D2F9C2F0E94C30B55
:101AF0006F2D8D2F9C2F0E94C30BDF91CF911F91D3
:101B00000F91FF90EF9008956F927F928F929F9226
:101B1000AF92BF92CF92DF92EF92FF920F931F93FB
:101B2000CF93DF93F82ED92FA62EB72E842E952E85
:101B3000C22ED32E602E712ECE2D61E10E94970B06
:101B40006E2DC43008F063E08F2D9D2F0E94C30BD3
:101B5000C23009F44AC008F060C0CC23D1F0C130D3
:101B600081F581E0681A7108680C791CA601415062
:101B700051094A0D5B1D84019301B5018F2D9D2FE5
:101B80000E94050DA301B5018F2D9D2F0E94540DBC
:101B900018C081E0681A7108680C791C81E0C81AC5
:101BA000D108CA0CDB1C84019301A501B6018F2D5D
:101BB0009D2F0E94050DA301B6018F2D9D2F0E9420
:101BC000540D64E28F2D9D2F0E94970BDF91CF91D2
:101BD0001F910F91FF90EF90DF90CF90BF90AF904B
:101BE0009F908F907F906F90089581E0C81AD108E0
:101BF000CA0CDB1C830101501109080D191D940149
:101C0000A501B6018F2D9D2F0E94050DA401B601DF
:101C10008F2D9D2F0E94540DD4CF830101501109A7
:101C2000080D191DA601415051094A0D5B1D940173
:101C3000B5018F2D9D2F0E94050DA401B5018F2D9B
:101C40009D2F0E94540DBDCFAF92BF92CF92DF92D5
:101C5000EF92FF920F931F93CF93DF93C82FD92F4B
:101C6000E62EF72EA42EB52E822F932FC02ED12E26
:101C70002B8D3C8D2330310509F440C08C0101507F
:101C800011090E0D1F1D076088EFE82281E0C81AB8
:101C9000D108CA0CDB1C60E9CE010E94970B6F2DA6
:101CA000CE010E94C30B6E2DCE010E94C30B612F8B
:101CB000CE010E94C30B602FCE010E94C30B6B2D7F
:101CC000CE010E94C30B6A2DCE010E94C30B6D2D65
:101CD000CE010E94C30B6C2DCE010E94C30B61E0AC
:101CE000CE010E94C30BDF91CF911F910F91FF9006
:101CF000EF90DF90CF90BF90AF900895870107706D
:101D000011270796080F191F087F65E1CE010E9471
:101D1000970B6F2DCE010E94C30B6E2D687FCE01F5
:101D20000E94C30B6B2DCE010E94C30B6A2DCE0106
:101D30000E94C30B612FCE010E94C30B602FCE0106
:101D40000E94C30B6D2DCE010E94C30B6C2DCE01E2
:101D50000E94C30BC8CF8F929F92AF92BF92CF9237
:101D6000DF92EF92FF920F931F93CF93DF93D82FC1
:101D7000C92FE62EF72E942E852E670187E0C82204
:101D8000DD24295F3F4FC20ED31E88EFC822A02E4C
:101D9000B12E81E0A816B80618F0A12CBB24B3948C
:101DA00066E18D2F9C2F0E94970B6F2D8D2F9C2FFE
:101DB0000E94C30B6E2D687F8D2F9C2F0E94C30B3A
:101DC000682D8D2F9C2F0E94C30B692D8D2F9C2F6A
:101DD0000E94C30B6D2D8D2F9C2F0E94C30B6C2D69
:101DE0008D2F9C2F0E94C30B6B2D8D2F9C2F0E943B
:101DF000C30B6A2D8D2F9C2F0E94C30BDF91CF91B7
:101E00001F910F91FF90EF90DF90CF90BF90AF9018
:101E10009F908F9008955F926F927F928F929F9282
:101E2000AF92BF92CF92DF92EF92FF920F931F93E8
:101E3000CF93DF93C82FD92F6FA178A58BA59CA531
:101E4000689FA001699F500D789F500D112429A50E
:101E50003AA521503109840F951F6217730710F0BE
:101E60008E819F81CDA8DEA88601C416D50608F410
:101E70008A0129AD3AADC20ED31E8C159D0508F41A
:101E80006C010C151D0508F04BC0EBA8FCA8570110
:101E9000B694A794B694A794B694A7948FA998AD36
:101EA000E80EF91E21E0E21AF108F694E794F694A0
:101EB000E794F694E794041B150BC41AD50A0C1585
:101EC0001D0570F55A2C6B2C712C24C06095CE0129
:101ED0000E94C30BC4010196E814F904B1F04C014F
:101EE0002BA13CA1029FC001039F900D129F900D5A
:101EF0001124880D991D672D8032E3E09E0730F78D
:101F00008C0F9D1FFC0163ADE1CF0F5F1F4FC0160B
:101F1000D10631F0EA14FB04C0F3852C962CE0CFF7
:101F20008FA198A5019698A78FA329A53AA58217F6
:101F30009307D0F4E881F98102A0F3A1E02D6FEFBF
:101F40007FEFCE01099581E0DF91CF911F910F9135
:101F5000FF90EF90DF90CF90BF90AF909F908F90C9
:101F60007F906F905F90089509AD1AAD2FA938AD9D
:101F70004DA95EA96BA97CA9CE010E94AB0E6AE0B7
:101F800077E0CE010E94960C64EF71E080E090E073
:101F90000E94FB248FEF9FEF98A78FA380E0D4CF00
:101FA000CF93DF93C82FD92F8EA5811115C08B8DAC
:101FB0009C8D0397B4F462E2CE010E94970B60EC13
:101FC000CE010E94C30B60E2CE010E94970B6FEE20
:101FD00076E0CE010E94960C81E08EA7DF91CF9132
:101FE000089564E0CE010E94970BF1CFCF93DF9369
:101FF000C82FD92F8B8D9C8D0397ACF462E2CE0154
:102000000E94970B63ECCE010E94C30B60E2CE01ED
:102010000E94970B65EE76E0CE010E94960C1EA6FC
:10202000DF91CF91089562E0CE010E94970BF2CF2D
:10203000EF920F931F93CF93DF93C82FD92FE62EE4
:102040008B8D9C8D8330910509F4AEC108F0B2C030
:102050008130910509F445C18230910509F051C0E4
:1020600061E0CE010E94970B8E819F810197BC0198
:10207000707899230CF48FC1CE010E94C30B8E811E
:102080009F8101979C010AF48CC1632FCE010E94AD
:10209000C30B60E0CE010E94C30B6CE0CE010E9436
:1020A000970B67EDCE010E94C30B66EDCE010E9437
:1020B000C30B6DE9CE010E94C30B6CE2CE010E94FE
:1020C000970B68EACE010E94C30B6AE3CE010E941F
:1020D000970B6AE1CE010E94C30B6BE3CE010E9415
:1020E000970B68E0CE010E94C30B0E811F812C81EB
:1020F0003D8150E040E070E060E0CE010E94840D40
:1021000053C0892B09F050C061E0CE010E94970BAB
:102110008E819F810197BC01707899230CF4D8C0FF
:10212000CE010E94C30B8E819F8101979C010AF40E
:10213000D5C0632FCE010E94C30B60E0CE010E9488
:10214000C30B6CE0CE010E94970B67EDCE010E949D
:10215000C30B66EDCE010E94C30B6DE9CE010E9458
:10216000C30B6CE2CE010E94970B6BE9CE010E947B
:10217000C30B6AE3CE010E94970B6AE1CE010E9475
:10218000C30B6BE3CE010E94970B68E0CE010E9467
:10219000C30B0E811F812C813D8150E040E070E037
:1021A00060E0CE010E94840DDF91CF911F910F91CD
:1021B000EF9008958430910509F4A7C10597A1F720
:1021C0008EA5811104C08F8D88230CF0B7C165E600
:1021D000CE010E94970B61E0CE010E94C30B6BEA17
:1021E000CE010E94970B65E6CE010E94970B60E03E
:1021F000CE010E94C30B61E0CE010E94970B67E302
:10220000CE010E94C30B60E0CE010E94C30B60E0D0
:10221000CE010E94970B6FECCE010E94C30B68E0C9
:10222000CE010E94C30B66E0CE010E94970B67ECC3
:10223000CE010E94C30B6CECCE010E94C30B68E27E
:10224000CE010E94C30B60E3CE010E94970B6CE3AA
:10225000CE010E94C30B61E4CE010E94970B60E0A7
:10226000CE010E94C30B60E5CE010E94970B67E789
:10227000CE010E94C30B60E6CE010E94970B62E282
:10228000CE010E94C30B61E6CE010E94970B62E073
:10229000CE010E94C30B60E8CE010E94C30B61E037
:1022A000CE010E94C30B60E8CE010E94C30B62E81E
:1022B000CE010E94970B6EE1CE010E94C30B65EE2A
:1022C000CE010E94970B63E0CE010E94C30B6CCF3E
:1022D000615071097F6F6F5F7F4F22CF21503F4F59
:1022E00028CF61E0CE010E94970B8E819F810197DC
:1022F000BC01707899230CF445C0CE010E94C30B39
:102300008E819F8101979C010AF442C0632FCE0108
:102310000E94C30B60E0CE010E94C30B6CE0CE01B3
:102320000E94970B67EDCE010E94C30B66EDCE01B4
:102330000E94C30B6DE9CE010E94C30B6CE2CE017B
:102340000E94970B68EACE010E94C30B6AE3CE019C
:102350000E94970B6AE1CE010E94C30B6BE3CE0192
:102360000E94970B68E0CE010E94C30B0E811F8173
:102370002C813D8150E040E070E060E0CE010E94A1
:10238000840D12CF615071097F6F6F5F7F4FB5CFA2
:1023900021503F4FBBCF615071097F6F6F5F7F4FFF
:1023A0006BCE21503F4F71CE61E0CE010E94970B62
:1023B00063E0CE010E94C30B60E0CE010E94C30B1C
:1023C0006BE2CE010E94C30B6BE2CE010E94C30BF5
:1023D00069E0CE010E94C30B66E0CE010E94970B1C
:1023E00067E0CE010E94C30B67E0CE010E94C30BE1
:1023F00067E1CE010E94C30B68EFCE010E94970BEC
:1024000060E6CE010E94C30B65EACE010E94C30BB9
:1024100068EFCE010E94970B69E8CE010E94C30BC2
:1024200065EACE010E94C30B68EFCE010E94970BB4
:1024300060E9CE010E94C30B60E0CE010E94C30B95
:1024400068EFCE010E94970B63E9CE010E94C30B97
:102450006AE2CE010E94C30B68EFCE010E94970B87
:1024600060EACE010E94C30B65EACE010E94C30B55
:1024700068EFCE010E94970B61EACE010E94C30B68
:1024800060E0CE010E94C30B68EFCE010E94970B63
:1024900063E7CE010E94C30B61E4CE010E94C30B2F
:1024A00066E1CE010E94970B60E0CE010E94C30B53
:1024B00060E0CE010E94970B6FE9CE010E94C30B32
:1024C00060E3CE010E94970B6AE3CE010E94C30B2A
:1024D00061E6CE010E94970B60E0CE010E94C30B23
:1024E00060EBCE010E94C30B61E0CE010E94C30BE2
:1024F00068E0CE010E94C30B62E8CE010E94970BF8
:1025000062E1CE010E94C30B4FCE66E0CE010E9475
:10251000970B67E1CE010E94C30B67E1CE010E94D9
:10252000C30B67E1CE010E94C30B60E0CE010E94A5
:10253000970B6FE3CE010E94C30B36CE60E00E9482
:10254000F7256AE070E080E090E00E94FB2461E003
:102550008F8D0E94F7256AE070E080E090E00E9495
:10256000FB2435CECF93DF93C82FD92FCE010E9405
:1025700018108B8D9C8D8230910509F456C008F49B
:102580003FC08330910509F457C0049709F047C054
:1025900060E2CE010E94970B4CE250E062E978E0E5
:1025A000CE010E940A0C61E2CE010E94970B4AE222
:1025B00050E068E678E0CE010E940A0C62E2CE01AB
:1025C0000E94970B4AE250E06EE378E0CE010E9451
:1025D0000A0C63E2CE010E94970B4AE250E064E1EC
:1025E00078E0CE010E940A0C64E2CE010E94970BB3
:1025F0004AE250E06AEE77E0CE010E940A0C0FC07A
:10260000892B39F04EE16EEE79E0CE010E94420C4A
:1026100006C04FE16BE27AE0CE010E94420CCE018F
:102620000E94D00FDF91CF9108954FE161EB79E0E7
:10263000CE010E94420CF3CF60E2CE010E94970BC4
:102640004CE250E066E679E0CE010E940A0C61E2BD
:10265000CE010E94970B4AE250E06CE379E0CE0194
:102660000E940A0C62E2CE010E94970B4AE250E0FF
:1026700062E179E0CE010E940A0C63E2CE010E9481
:10268000970B4AE250E068EE78E0CE010E940A0C17
:1026900064E2CE010E94970B4AE250E06EEB78E0D4
:1026A000CE010E940A0CBBCFCF93DF93C82FD92F46
:1026B000CE010E9418108B8D9C8D8230910509F4FB
:1026C00056C008F43FC08330910509F457C0049701
:1026D00009F047C060E2CE010E94970B4CE250E047
:1026E0006EEB77E0CE010E940A0C61E2CE010E94FF
:1026F000970B4AE250E064E977E0CE010E940A0CB1
:1027000062E2CE010E94970B4AE250E06AE677E06F
:10271000CE010E940A0C63E2CE010E94970B4AE2AE
:1027200050E060E477E0CE010E940A0C64E2CE0142
:102730000E94970B4AE250E066E177E0CE010E94EA
:102740000A0C0FC0892B39F04EE160ED79E0CE0123
:102750000E94420C06C04FE16CE07AE0CE010E947C
:10276000420CCE010E94D00FDF91CF9108954FE12E
:1027700062E979E0CE010E94420CF3CF60E2CE0123
:102780000E94970B4CE250E066E679E0CE010E9491
:102790000A0C61E2CE010E94970B4AE250E06CE322
:1027A00079E0CE010E940A0C62E2CE010E94970BF2
:1027B0004AE250E062E179E0CE010E940A0C63E255
:1027C000CE010E94970B4AE250E068EE78E0CE011D
:1027D0000E940A0C64E2CE010E94970B4AE250E08C
:1027E0006EEB78E0CE010E940A0CBBCFEF920F9304
:1027F0001F93CF93DF93C82FD92F18A61FA218AA13
:102800008FA5811129C08B8D9C8D8530910580F419
:102810000397C8F469A1CE010E94B21264E2CE010E
:102820000E94970BDF91CF911F910F91EF90089528
:102830000597C1F769A1CE010E94B21260E1CE01F5
:102840000E94970BEFCF69A1CE010E94B21263E103
:10285000CE010E94970BE6CF8FA998AD892B11F37B
:1028600089AD9AAD892BF1F28B8D9C8D84309105C9
:10287000F1F190F4039750F169A1CE010E94541335
:1028800009AD1AAD2FA938AD4DA95EA96BA97CA9D8
:10289000CE010E94240EC6CF059721F669A1CE0174
:1028A0000E94541361E9CE010E94970B09AD1AAD45
:1028B0002FA938AD4DA95EA96BA97CA9CE010E94B4
:1028C000240E60E1CE010E94970BACCF69A1CE012E
:1028D0000E94541309AD1AAD2FA938AD4DA95EA9B8
:1028E0006BA97CA9E9A0CE010E94840D9BCF69A1B0
:1028F000CE010E94541361E9CE010E94970B09ADED
:102900001AAD2FA938AD4DA95EA96BA97CA9CE013E
:102910000E94240E63E1CE010E94970B83CFCF93D8
:10292000DF93C82FD92F8B8D9C8D0397C4F462E25F
:10293000CE010E94970B64ECCE010E94C30B60E2B3
:10294000CE010E94970B68ED76E0CE010E94960CB6
:102950006FEFCE010E94970BDF91CF91089562E156
:10296000CE010E94970B6BEC76E0CE010E94960C94
:10297000F3CFDF92EF92FF920F931F93CF93DF93EA
:10298000082F192FF80147A150A583A594A521A5CB
:1029900032A5215031094217530758F0489F900142
:1029A000499F300D589F300D112486819781821BDD
:1029B000930BF80123A134A1829F7001839FF00C37
:1029C000929FF00C1124E114F104B1F0D0E0C0E0CA
:1029D000D12C08C06095C8010E94C30B2196EC164B
:1029E000FD0651F06D2DC032F3E0DF0798F7F801D6
:1029F000EC0FFD1F63ADEECFF80187A190A5019606
:102A000090A787A321A532A58217930760F180A91B
:102A1000882389F0C8010E94F60F8FEF9FEFF8011D
:102A200090A787A380E0DF91CF911F910F91FF9036
:102A3000EF90DF900895C8010E948F1468EC70E059
:102A400080E090E00E94FB2481E0F80180AB10A6BA
:102A500017A261A1C8010E94541364E2C8010E9438
:102A6000970B81E0E0CF81E0DECFDF92EF92FF9223
:102A70000F931F93CF93DF93082F192FF80147A1CE
:102A800050A583A594A521A532A52150310942174F
:102A9000530758F0489F9001499F300D589F300DC3
:102AA000112486819781821B930BF80123A134A105
:102AB000829F7001839FF00C929FF00C1124E1140F
:102AC000F104B1F0D0E0C0E0D12C08C06095C8019D
:102AD0000E94C30B2196EC16FD0651F06D2DC032FD
:102AE000F3E0DF0798F7F801EC0FFD1F63ADEECFC1
:102AF000F80187A190A5019690A787A321A532A5EB
:102B00008217930748F481E0DF91CF911F910F91D5
:102B1000FF90EF90DF900895C8010E948F1468EC39
:102B200070E080E090E00E94FB24C8010E94F60F54
:102B30008FEF9FEFF80190A787A380E0E5CFDF92AA
:102B4000EF92FF920F931F93CF93DF93082F192FCC
:102B5000F80147A150A583A594A521A532A5215030
:102B600031094217530758F0489F9001499F300D93
:102B7000589F300D112486819781821B930BF80199
:102B800023A134A1829F7001839FF00C929FF00CCF
:102B90001124E114F104B1F0D0E0C0E0D12C08C060
:102BA0006095C8010E94C30B2196EC16FD0651F0FA
:102BB0006D2DC032F3E0DF0798F7F801EC0FFD1F31
:102BC00063ADEECFF80187A190A5019690A787A3EA
:102BD00021A532A5C1E082179307A0F0C5A5C111B8
:102BE0001AC0C8010E948F1468EC70E080E090E089
:102BF0000E94FB24C8010E94F60F8FEF9FEFF8019F
:102C000090A787A38C2FDF91CF911F910F91FF90F9
:102C1000EF90DF900895C8010E948F1468EC70E077
:102C200080E090E00E94FB24F80115A610A617A2F0
:102C300063E1C8010E94970BE5CFDF92EF92FF920C
:102C40000F931F93CF93DF93082F192FF80147A1FC
:102C500050A583A594A521A532A52150310942177D
:102C6000530758F0489F9001499F300D589F300DF1
:102C7000112486819781821B930BF80123A134A133
:102C8000829F7001839FF00C929FF00C1124E1143D
:102C9000F104A9F0D0E0C0E0D12C07C0C8010E9427
:102CA000E10B2196EC16FD0651F06D2DC032F3E0DC
:102CB000DF07A0F7F801EC0FFD1F63ADEFCFF801C0
:102CC00087A190A5019690A787A321A532A5821779
:102CD000930748F481E0DF91CF911F910F91FF900E
:102CE000EF90DF900895C8010E948F1468EC70E0A7
:102CF00080E090E00E94FB24C8010E94F60F8FEF55
:102D00009FEFF80190A787A380E0E5CFCF93DF93F3
:102D1000C82FD92F8B8D9C8D0397C4F462E2CE010E
:102D20000E94970B64E0CE010E94C30B60E2CE01CB
:102D30000E94970B6EEB76E0CE010E94960C6FEF2F
:102D4000CE010E94970BDF91CF91089562E1CE01F1
:102D50000E94970B61EB76E0CE010E94960CF3CFB8
:102D60007F928F929F92AF92BF92CF92DF92EF921B
:102D7000FF920F931F93CF93DF93C82FD92F6FA18B
:102D800078A58BA59CA5689FA001699F500D789F91
:102D9000500D112429A53AA521503109840F951F02
:102DA0006217730710F08E819F81CDA8DEA869ADF0
:102DB0007AAD29A921112EC08601C416D50608F4C2
:102DC0008A01C60ED71E8C159D0508F46C010C15E2
:102DD0001D0508F05AC0EBA8FCA85701B694A794AB
:102DE000B694A794B694A7948FA998ADE80EF91E4F
:102DF000F7E0EF0EF11CF694E794F694E794F6945E
:102E0000E794041B150BC41AD50A0C151D05E8F52B
:102E1000712C36C02E813F81F901EC19FD096F013B
:102E20008F01061B170B0417150708F48A018C1570
:102E30009D0568F66C01CBCF6095CE010E94C30B57
:102E4000FFEF8F1A9F0AE814F904A9F02BA13CA107
:102E5000029FC001039F900D129F900D1124880DB9
:102E6000991D672D803223E0920730F78C0F9D1F4C
:102E7000FC0163ADE1CF0F5F1F4FC016D10629F0F3
:102E8000AE14BF04C0F74501E1CF8FA198A501960C
:102E900098A78FA329A53AA582179307E0F088A9E0
:102EA000882321F168EC70E080E090E00E94FB2430
:102EB0008FEF9FEF98A78FA380E0DF91CF911F91B5
:102EC0000F91FF90EF90DF90CF90BF90AF909F90C9
:102ED0008F907F900895E881F98102A0F3A1E02D01
:102EE0006FEF7FEFCE01099581E0E7CFCE010E9421
:102EF000861668EC70E080E090E00E94FB2481E0A0
:102F000088AB18A61FA209AD1AAD2FA938AD4DA9DF
:102F10005EA96BA97CA9E9A0CE010E94840D81E085
:102F2000CCCF5F926F927F928F929F92AF92BF921F
:102F3000CF92DF92EF92FF920F931F93CF93DF9385
:102F4000882E992ED40197966D917C9198979B9697
:102F50008D919C919C97689FA001699F500D789FCF
:102F6000500D112499962D913C9121503109840FD7
:102F7000951F6217730718F0F40186819781D401B9
:102F8000D596CD90DC908601C416D50608F48A014A
:102F9000F40121AD32ADC20ED31E8C159D0508F48F
:102FA0006C010C151D0508F050C0D401D396AD90EE
:102FB000BC90D497D796ED90FC90EA0CFB1CB1E046
:102FC000EB1AF108F694E794F694E794F694E794F4
:102FD000B694A794B694A794B694A794041B150B23
:102FE000C41AD50A0C151D0580F55A2C6B2C712CB2
:102FF00026C06095C4010E94C30BCE010196EC1659
:10300000FD06C1F0EC01D40193962D913C91029FF5
:10301000C001039F900D129F900D11248C0F9D1FD6
:10302000672D8032B3E09B0720F7880D991DFC01C6
:1030300063ADDFCF0F5F1F4FC016D10631F0EA142A
:10304000FB04C0F3C52DD62DDECFD40197968D910C
:103050009C919897019698969C938E9397979996A2
:103060002D913C919A9782179307F0F0F40180A973
:10307000882329F162E9C4010E94970B8FEF9FEF2B
:10308000F40190A787A380E0DF91CF911F910F916A
:10309000FF90EF90DF90CF90BF90AF909F908F9078
:1030A0007F906F905F900895ED91FC9102A0F3A145
:1030B000E02D6FEF7FEFC401099581E0E5CFC401FA
:1030C0000E948616D40198961C921E92979781E0D2
:1030D000D0968C93D097ED91FC9102A0F3A1E02DB6
:1030E0006FEF7FEFC401099563E1C4010E94970B64
:1030F00081E0CACF5F926F927F928F929F92AF9240
:10310000BF92CF92DF92EF92FF920F931F93CF93D4
:10311000DF93C82FD92F6FA178A58BA59CA5689F99
:10312000A001699F500D789F500D112429A53AA543
:1031300021503109840F951F6217730710F08E819B
:103140009F81CDA8DEA88601C416D50608F48A01A1
:1031500029AD3AADC20ED31E8C159D0508F46C0145
:103160000C151D0508F049C0ABA8BCA8EFA8F8AC29
:10317000EA0CFB1C21E0E21AF108F694E794F694BD
:10318000E794F694E794B694A794B694A794B6946B
:10319000A794041B150BC41AD50A0C151D0568F558
:1031A0005A2C6B2C712C23C0CE010E94E10BC40160
:1031B0000196E814F904B1F04C012BA13CA1029F47
:1031C000C001039F900D129F900D1124880D991D31
:1031D000672D8032E3E09E0738F78C0F9D1FFC01BE
:1031E00063ADE2CF0F5F1F4FC016D10631F0EA1476
:1031F000FB04C0F3852C962CE0CF8FA198A50196F7
:1032000098A78FA329A53AA582179307D0F4E88140
:10321000F98102A0F3A1E02D6FEF7FEFCE010995B8
:1032200081E0DF91CF911F910F91FF90EF90DF90A0
:10323000CF90BF90AF909F908F907F906F905F9056
:103240000895CE010E94861662E9CE010E94970B76
:103250008FEF9FEF98A78FA380E0E3CFE82FF92FA0
:1032600087A581111DC0238D348D24303105A1F037
:1032700038F42330310560F0CF010E9435150895F0
:103280002530310521F4CF010E941D1608950895BF
:10329000CF010E94B9140895CF010E949F1508958F
:1032A00087A990AD892B01F181AD92AD892BF1F009
:1032B000838D948D8430910599F030F4039760F0FC
:1032C000CF010E940B0F0895059721F4CF010E94B2
:1032D0007A18089580E00895CF010E94B0160895ED
:1032E000CF010E949117089580E0089580E008952D
:1032F000EF92FF920F931F93CF93DF93A82FB92FD5
:10330000C62FD72FE42EF52E822F932F202F312F6B
:1033100056964C915697423081F1433009F44DC096
:10332000413039F0DF91CF911F910F91FF90EF90D5
:10333000089548815981F70160817181798368839B
:1033400051834083FC0140815181F9016081718189
:10335000FC0171836083F9015183408328813981A5
:10336000FC0180819181280F391F14968D919C91C9
:10337000821B930B99838883D5CF48815981FC01A7
:1033800080819181480F591F14968D919C911597BA
:10339000841B950B99838883F70180819181F901C2
:1033A00020813181280F391F16968D919C91821BA7
:1033B000930BF70191838083B5CF48815981F70141
:1033C000608171817983688351834083FC014081EE
:1033D0005181F90160817181FC0171836083F90180
:1033E00051834083F70180819181480F591F1696C0
:1033F0008D919C91841B950B9183808393CFEF9249
:10340000FF920F931F93CF93DF93CDB7DEB728972B
:103410000FB6F894DEBF0FBECDBFE82EF92E7A832B
:1034200069835C834B833E832D8318870F838E01D2
:10343000095F1F4F9E012B5F3F4FAE014D5F5F4FF6
:10344000BE016F5F7F4FC7010E94781981E0F701CD
:1034500087A72481358169817A812617370708F487
:10346000B901F70174AB63AB868197814B815C81B5
:103470008417950708F4AC01F70156AB45ABED8115
:10348000FE81261B370BE217F30708F49F01F701B3
:1034900030AF27AB2F813885841B950B2817390750
:1034A00008F4C901F70192AF81AF28960FB6F894DE
:1034B000DEBF0FBECDBFDF91CF911F910F91FF9067
:1034C000EF9008952F923F924F925F926F927F926A
:1034D0008F929F92AF92BF92CF92DF92EF92FF9224
:1034E0000F931F93CF93DF9300D000D000D0CDB7C0
:1034F000DEB7A82EB92E862E972E842F952F2D83DA
:103500003E83C02ED12EE982FA829601281B390B08
:103510003901DAF12D813E81281939098901D2F169
:10352000061517055CF43D812E81DE82CD82C32E07
:10353000D22E382D292D4C01832F922F2D813E81A3
:10354000281539050CF46CC0AD81BE81A819B909E4
:10355000BC83AB839601281B390B29010AF483C075
:10356000EB80FC80FF200CF483C0F594E7948C156D
:103570009D05CCF46C019D818E819E828D82892E69
:10358000982E22242394312C33C066247724621A87
:10359000730AC0CF00271127021B130BC1CF2224AF
:1035A0002394312C25C06C019D818E819E828D8259
:1035B000892E982E22242A94322C1AC0D501ED91FE
:1035C000FC910484F585E02D29813A81A6016D8165
:1035D0007E81C5010995E418F508DAF04D815E8118
:1035E0004F5F5F4F5E834D83841695060CF444C095
:1035F000061517051CF7D501ED91FC910484F5859E
:10360000E02D29813A814D815E81B601C501099580
:10361000E2CFC20CD31C2B813C81E20EF31EDECF25
:10362000D4012D813E81A21BB30BBC83AB839C01D3
:103630002C193D09290172F0EB80FC80FF207CF001
:10364000F594E794C816D9060CF4A9CF22242A943D
:10365000322CCECF44245524421A530AEDCF3FEFEB
:10366000E31AF30AEDCF44245524421A530A78CFC3
:10367000BFEFEB1AFB0A79CF26960FB6F894DEBFA0
:103680000FBECDBFDF91CF911F910F91FF90EF90B3
:10369000DF90CF90BF90AF909F908F907F906F9072
:1036A0005F904F903F902F9008950895A82FB92FC5
:1036B000ED91FC9111970084F185E02DCD010995E4
:1036C00008950F931F93A82FB92FED91FC91119797
:1036D000048CF58DE02DCD0109951F910F91089572
:1036E0000F931F93A82FB92FED91FC911197068C82
:1036F000F78DE02DCD0109951F910F910895EF925F
:10370000FF920F931F93A82FB92FED91FC91119762
:1037100000A0F1A1E02DCD0109951F910F91FF901F
:10372000EF90089508958F929F92AF92BF92CF929B
:10373000DF92EF92FF920F931F93CF93DF93C82FE7
:10374000D92F862E972EA42EB52EC22ED32EE02E44
:10375000F12EE881F9810284F385E02DCE010995EF
:10376000CA0CDB1C860101501109E881F98104882B
:10377000F589E02D282D392DA501682D792DCE0153
:103780000995E881F9810688F789E02DCE01099530
:10379000DF91CF911F910F91FF90EF90DF90CF902D
:1037A000BF90AF909F908F9008958F929F92AF920D
:1037B000BF92CF92DF92EF92FF920F931F93CF931E
:1037C000DF93C82FD92FA62EB72E842E952EC22E6A
:1037D000D32EE02EF12EE881F9810284F385E02DCD
:1037E000CE01099595012C0D3D1D21503109E8812F
:1037F000F9810488F589E02D082D192D482D592DC2
:10380000B501CE010995E881F9810688F789E02D97
:10381000CE010995DF91CF911F910F91FF90EF900D
:10382000DF90CF90BF90AF909F908F9008956F9250
:103830007F928F929F92AF92BF92CF92DF92EF9240
:10384000FF920F931F93CF93DF93C82ED92EC62FCD
:10385000D72F642E752EA22EB32E802E912ED60138
:10386000ED91FC910284F385E02DC6010995AC0E23
:10387000BD1ECA15DB059CF4D601ED91FC910088B4
:10388000F189E02D0E2D1F2D282D392D462D572D78
:10389000BE01C60109952196CA15DB0569F7D60157
:1038A000ED91FC910688F789E02DC6010995DF911D
:1038B000CF911F910F91FF90EF90DF90CF90BF902D
:1038C000AF909F908F907F906F900895EF92FF92AE
:1038D0000F931F93A82FB92FE62EF72E1A960D914E
:1038E0001C911B9718962D913C911997ED91FC9185
:1038F000119700A0F1A1E02D50E040E070E060E001
:10390000CD0109951F910F91FF90EF9008956F924F
:103910007F928F929F92AF92BF92CF92DF92EF925F
:10392000FF920F931F93CF93DF93C82ED92E662E4D
:10393000772E842E952EA22EB32EC02FD12F6A144F
:103940007B0479F18C169D0609F443C0D601ED91F4
:10395000FC910284F385E02DC6010995D601ED9115
:10396000FC910488F589E02D8E019501A401B30135
:10397000C6010995D601ED91FC910688F789E02DE5
:10398000C6010995DF91CF911F910F91FF90EF90A4
:10399000DF90CF90BF90AF909F908F907F906F906F
:1039A0000895C815D9051CF44E01C42FD52F9E01CA
:1039B000281939092F5F3F4FD601ED91FC91048CF6
:1039C000F58DE02D0E2D1F2DA401B301C601099523
:1039D000D9CFA614B7041CF43501A62EB72E950135
:1039E000261937092F5F3F4FD601ED91FC91068CC8
:1039F000F78DE02D0E2D1F2DA401B301C6010995F1
:103A0000C1CF6F927F928F929F92AF92BF92CF92CF
:103A1000DF92EF92FF920F931F93CF93DF93C82F04
:103A2000D92FC62ED72EA42EB52E622E732E802E01
:103A3000912EE881F9810284F385E02DCE0109956C
:103A4000E881F9810288F389E02D0E2D1F2D930165
:103A5000A501B601CE010995A501480D591D41509A
:103A60005109E881F9810288F389E02D9301B601BB
:103A7000CE010995E881F9810088F189E02D940152
:103A8000A501B601CE010995B601660D771D6150FD
:103A90007109E881F9810088F189E02D9401A5017F
:103AA000CE010995E881F9810688F789E02DCE01DC
:103AB0000995DF91CF911F910F91FF90EF90DF90CB
:103AC000CF90BF90AF909F908F907F906F90089510
:103AD000E82FF92F6370668B623079F020F466234B
:103AE00061F0613049F48681978191878087848174
:103AF0009581938782870895089584819581918720
:103B00008087868197819387828708950895E82F1B
:103B1000F92F1382128288E891E091838083648375
:103B20007583468357836087718742875387168AD8
:103B3000158614861786168681E0858B848B2FEF79
:103B40003FEF338B228B318B208B878B108E128E25
:103B5000118E08952F923F924F925F926F927F92B3
:103B60008F929F92AF92BF92CF92DF92EF92FF928D
:103B70000F931F93CF93DF93CDB7DEB7A2970FB606
:103B8000F894DEBF0FBECDBF682E792E262E372EBD
:103B90004A8B5B8B2B830E831F838E2C9F2CCD82B5
:103BA000AC8AD30159964D915C915A9741155105B4
:103BB00009F460C0FA0134969491329725913491BA
:103BC000BB81B91BC901E7E0BE9F800D911D112487
:103BD000FA0185909490FC01C590D490FC01329636
:103BE0004490319624912F8B329624912C870696FF
:103BF000FC018491182FFD81F23008F475C1422F29
:103C0000220F550B5B874A87682F880F770B7C8FB5
:103C10006B8FD301ED91FC910284F385E02DC301FC
:103C20000995BF89BB2309F4E3C1188A1D8A19824B
:103C3000FC89EF2FF0E0FC83EB833D81232F30E004
:103C4000398728874A895B89410F511D17FD5A958D
:103C50005A8F498FB1018C85680F711D87FD7A9548
:103C600078A36F8F98859C87A985AE8749A2B0E01D
:103C7000BD8F9BC118968D919C9119972816390676
:103C80000CF0BEC11A968D919C911B97EA89FB8915
:103C9000E817F9070CF0B4C12C2D30E03A832983E2
:103CA000C901880F991F820F931F880F991FAC01BC
:103CB000420D531D5E8F4D8F141615060CF0A0C1DA
:103CC0006A2D70E07B876A87660F771F660F771F04
:103CD000660F771F78A36F8FCB018E0F9F1F18166B
:103CE00019060CF08DC158968C91811105C08B81FD
:103CF000803B10F08F5F8B83D301ED91FC910284A8
:103D0000F385E02DC3010995FB81EF2FF0E0CF0192
:103D1000880F991F880F991F8E0F9F1F3D81232F9A
:103D200030E0398B288BA1014B5F5F4F5E8B4D8B51
:103D30003D862C863F862E8682199309BC01665BE0
:103D4000754F788F6F8B7C89472E512C8A899B8980
:103D50009C8F8B8F3AA229A279C0D301ED91FC915F
:103D60000684F785E02D71010A851B8529813A813A
:103D7000A5016B817885C3010995E98DFA8DF595CB
:103D8000E795FA8FE98FE98DFFEFCF1ADF0AA40CD0
:103D9000B51C28E0C216D10409F446C02E2F30E02D
:103DA0003A8F298FE0FF16C03D813130B1F64C8942
:103DB000413099F6D301ED91FC910484F585E02D15
:103DC00091014B8D5C8D4C0D5D1D6C857D85C30116
:103DD0000995D3CF2814390481F2BD81B13089F01F
:103DE000D301ED91FC910684F785E02D74010A85DD
:103DF0001B8529813A81A5016B817885C3010995CD
:103E0000BCCFEC89E13061F7D301ED91FC910484E2
:103E1000F585E02D94014B8D5C8D4C0D5D1D6C8501
:103E20007D85C3010995A9CF4E855F85688979890C
:103E3000460F571F5F874E878C859D8501969D870E
:103E40008C87AD89BE898A179B0791F0EF89F88D21
:103E5000AC85BD85EA0FFB1FE491BE85BB833F8423
:103E6000AA88BB88D12CC12C38862E803F8096CF63
:103E700029A03AA0EE81FF81E815F905C1F0FD8186
:103E8000F130F1F06D8D7E8DE981FA816E1B7F0B33
:103E9000D301ED91FC910684F785E02D74010F8D1F
:103EA00018A129813A814A895B89C3010995D30107
:103EB000ED91FC910688F789E02DC3010995A0C01A
:103EC0002C892130F9F6B1016B5F7F4FD301ED9161
:103ED000FC910088F189E02D840128E030E04A89D6
:103EE0005B89C3010995E3CF3C89323008F087CE66
:103EF0001C8E1B8E1B861A868CCE5520ACF0550C62
:103F00004394BD8D4B1608F045C089A1877099A1D7
:103F10009F5F99A38111F1CFC6010196F401EC0DC9
:103F2000FD1D54906C01E9CFAD81A130F9F08A8577
:103F30009B85840D911DE885F9858E9FB0018F9F2B
:103F4000700D9E9F700D1124620D731DD301ED91B4
:103F5000FC910684F785E02DEE80FF800B811C81AB
:103F60002C853E85A501C3010995C9CFBC89B13017
:103F7000F1F6D301ED91FC910484F585E02D2E81BD
:103F80003F814D895E896F8D78A1640D711DC301DC
:103F90000995B5CFB9A35D8EE889EB0FE88BF98160
:103FA000FF5FF9832F89F21718F5E9A1EE23B9F322
:103FB0008B8D9C8DF9818F0F911D2B813C81829F70
:103FC0005001839FB00C929FB00C11244A895B89E9
:103FD000A40EB51E4888512C698D7A8D6F0F711D06
:103FE0007E8B6D8B852D5D8CED8F49A2482E8DCFFC
:103FF000D301ED91FC910688F789E02DC301099565
:10400000A2960FB6F894DEBF0FBECDBFDF91CF9161
:104010001F910F91FF90EF90DF90CF90BF90AF90E6
:104020009F908F907F906F905F904F903F902F90D8
:1040300008958F929F92AF92CF92EF92FF920F933B
:104040001F93CF93DF93C82FD92F262F898D9A8D59
:10405000009709F467C06A3009F4BFC06D3009F4F5
:10406000CAC0FC0134963491631708F4C4C0319679
:10407000E491E61708F4BFC0FC0132968590949055
:10408000462F431BE7E04E9F800C911C1124F40146
:10409000329634913196E4913323B9F1EE23A9F1AC
:1040A000F4013596E4914F89442311F16C890E2E69
:1040B000000CFF0BE30FF11D6E9FA0016F9F500DD1
:1040C00011246C857D85460F571F68857985641797
:1040D000750774F41D861C860696FC0184919D89E3
:1040E0004E855F85989F400D511D11245F874E8737
:1040F000EA88FB88088919894E855F856C857D85EE
:10410000AD88CC88CE010E94AA1DF4013496E491BA
:104110002C898C859D852E9F800D911D11249D8756
:104120008C8769C06A3009F447C06D3009F463C0F8
:104130008F89882319F18C89482F50E0CA01880F94
:10414000991F840F951F880F991F4C855D85840FDB
:10415000951F488559854817590784F41D861C8684
:104160008D8990E0880F991F880F991F880F991FDC
:104170004E855F85840F951F9F878E87EA88FB8811
:10418000088919894E855F856C857D85AD88CC88C9
:10419000CE010E94AA1D8C89282F30E0C901880F0A
:1041A000991F820F931F880F991F2C853D85820FC1
:1041B000931F9D878C871FC01D861C868D8990E06C
:1041C000880F991F880F991F880F991F2E853F858B
:1041D000820F931F9F878E870EC01D861C86FC0151
:1041E0003696E4912D898E859F852E9F800D911D99
:1041F00011249F878E8781E090E0DF91CF911F91FE
:104200000F91FF90EF90CF90AF909F908F90089577
:10421000FC01E60FF11D849190E0982F88273196DC
:10422000E4918E0F911D0895A82FB92F1E963C91F1
:104230001E97ED91FC911197849190E0032E02C09E
:10424000959587950A94E2F7232F260F283010F4CE
:10425000E82F0FC031961196FC93EE93E491F0E0B5
:1042600098E0931B02C0EE0FFF1F9A95E2F7E82B30
:1042700028501E962C938FEF9FEF02C0880F991F36
:104280006A95E2F780958E230895CF93C62F0E94FA
:104290001421C15021E030E002C0220F331FCA9523
:1042A000E2F7821BCF910895E82FF92F213081F09A
:1042B0002230A1F0222331F0CF01861B910967FD46
:1042C00093950895CF01840F911D47FD9A95089508
:1042D000CF01860F911D67FD9A950895CF01841B2C
:1042E000910947FD93950895E82FF92F213081F02A
:1042F0002230A1F0222331F0CF01840F911D47FD20
:104300009A950895CF01860F911D67FD9A9508959E
:10431000CF01841B910947FD93950895CF01861B1A
:10432000910967FD939508950F931F93CF93DF93A2
:10433000C82FD92F062F172FF80184918883319623
:10434000E491E983F8013296E491EA83F801339627
:10435000E491EB83F8013496E491EC83F80135960F
:10436000E491ED83F8013696E491EE83F8013796F7
:10437000E491EF83F8013896E491E887F8013996E3
:10438000E491E987F8013A96E491EA87F8013B96CF
:10439000E491EB87F8013C96E491EC87F8013D96B7
:1043A000E491ED87F8013E96E491EE87F8013F969F
:1043B000E491EF87F8017096E491E88B61E1C80120
:1043C0000E9408219A8B898B63E1C8010E94082111
:1043D0009C8B8B8B65E1C8010E9408219E8B8D8B85
:1043E000DF91CF911F910F910895CF92DF92EF92BD
:1043F000FF920F931F93CF93DF93E82FF92FA62FF0
:10440000B72FC42FD52FC22ED32E802F0E2D1F2DA8
:104410008230D1F180F4882309F180819181FC01FF
:1044200020813181F901E48CF58C9601AE01BD014A
:10443000F701099520C08330F1F480819181AE01AC
:104440004C195D094F5F5F4FEC01E881F981048CE5
:10445000F58DE02D9601BD0109950DC080819181FA
:10446000FC0120813181F901E68CF78C9601AE01C7
:10447000BD01F7010995DF91CF911F910F91FF9039
:10448000EF90DF90CF90089580819181BD016C19EC
:104490007D096F5F7F4FDC01ED91FC91068CF78DFC
:1044A000E02D9601AE010995E6CF4F925F926F9293
:1044B0007F928F929F92AF92BF92CF92DF92EF92B4
:1044C000FF920F931F93CF93DF93C82ED92ED62F31
:1044D000542EF601C6851785612C11C0F601E284C1
:1044E000F384242D30E0682D792DC6010E94F5213A
:1044F000DB15A8F1CD0FDC2FDA191F5FC62DF601F1
:10450000A088BA2CBC1A4D2EBD1608F44B2C712E67
:10451000442071F3F601E084F1840489202F412FB7
:104520006C2F868197810E947421882E992E202FCE
:10453000412F6C2FC7010E945421482F592F511031
:10454000CDCFF60183898111D3CFE484F584242D66
:1045500030E0682D792DC6010E94F521C9CFCD0F1D
:10456000F601C6877786DF91CF911F910F91FF905B
:10457000EF90DF90CF90BF90AF909F908F907F9003
:104580006F905F904F900895AF92BF92CF92DF925D
:10459000EF92FF920F931F93CF93DF93C82FD92FE2
:1045A0008E010C5F1F4F7D836C831A8A698DC80151
:1045B0000E941421888B6A8DC8010E941421E82E64
:1045C000D82E898B6B8DC8010E944521C82E6C8D19
:1045D000C8010E944521F82E6D8DC8010E94452119
:1045E000B82E88891816A4F5AC88FE0CF1942A2DF3
:1045F0004F2D6C2D8E819F810E9474219F838E830D
:104600002A2D4F2D6C2D888599850E9454219987DC
:1046100088871E861F866F89C8010E941421E82E94
:10462000688DC8010E941421F82E40E06E2DCE0145
:104630000E94552241E06F2DCE010E94552261E07B
:10464000C8010E9414218111F0CF9F859D151CF394
:104650008B2DDF91CF911F910F91FF90EF90DF9005
:10466000CF90BF90AF900895EF92FF920F931F935A
:10467000CF93DF93E82FF92F062F172FC281D38115
:1046800067960F3F110511F008F034C0013611058F
:1046900048F180A591A5C80FD91FCE010196FC0154
:1046A0002491222309F460C0FE01249120171106F1
:1046B00081F0FC018491C80FD11DCE010196FC014F
:1046C0002491222309F453C0FE01249120171106DE
:1046D00081F7CE010296DF91CF911F910F91FF904C
:1046E000EF90089501341105C0F286A197A1C80F7B
:1046F000D91FD3CF82A593A5C80FD91F7E0160E033
:10470000C7010E940821C80FD91F62E0C7010E949B
:104710000821F4E0EF0EF11C8017910780F3FE01F1
:10472000849190E0982F88273196E4918E2B009702
:1047300009F10817190791F0FE013296E491CE0FA6
:10474000D11DFE01849190E0982F88273196E49145
:104750008E2B009731F00817190771F7CE010396D9
:10476000BACF90E080E0B7CF90E080E0B4CF90E0A7
:1047700080E0B1CF90E080E0AECFFC01638B089584
:10478000FC01648B0895CF93DF93C82FD92FCB0101
:10479000622F732F9F838E8359874887CE010E9493
:1047A0003423682F792F90E080E06115710531F096
:1047B000CE010E94C422082E000C990BDF91CF91EC
:1047C0000895E82FF92F862F972F228133812817FC
:1047D000390741F093838283138ABC01CF01459648
:1047E0000E9494210895FC01738762870895FC015B
:1047F000758764870895E82FF92F662309F441C06F
:1048000087A9811126C06C3F58F4683F90F4603F3F
:10481000A0F4603EB0F4603CC0F4862F90E00895B0
:1048200085E087AB617070E076AB65AB8EEF9FEF94
:10483000089584E087AB6370F6CF83E087AB677041
:10484000F2CF82E087AB6F70EECF81E087AB6F7104
:10485000EACF2FEF280F27AB85A996A900249695BC
:1048600087950794969587950794982F802D6F7359
:10487000862B96AB85AB211101C008958EEF9FEF7B
:1048800008958FEF9FEFF9CFCF93CFB7F894809132
:104890006C05811123C0ECE7FFE08491E8E6FFE0BE
:1048A0009491E82FF0E0EE0FFF1FE656F04FA59130
:1048B000B491EC91E923D1F061E08AE00E94B8253F
:1048C0008CB580618CBD8CB580648CBD61E08DE061
:1048D0000E94B82561E08BE00E94B82580916C05AC
:1048E0008F5F80936C05CFBFCF91089561E08AE020
:1048F0000E94F725E1CF1F921FB61F9211242F931C
:104900003F938F939F93AF93BF9380916E05909148
:104910006F05A0917005B091710530916D0526E08D
:10492000230F2D3720F40296A11DB11D05C029E8E3
:10493000230F0396A11DB11D20936D0580936E0575
:1049400090936F05A0937005B093710580917205E7
:1049500090917305A0917405B09175050196A11D04
:10496000B11D8093720590937305A0937405B09365
:104970007505BF91AF919F918F913F912F911F909E
:104980001FBE1F901895CF93DF9300D000D0CDB7F6
:10499000DEB73FB7F8948091720590917305A091AE
:1049A0007405B091750526B5A89B05C02F3F19F079
:1049B0000196A11DB11D3FBFBA2FA92F982F88279F
:1049C000820F911DA11DB11D880F991FAA1FBB1F2A
:1049D000880F991FAA1FBB1F9C01AD01220F331F17
:1049E000441F551FCA01B9010F900F900F900F90EF
:1049F000DF91CF9108958F929F92AF92BF92CF9205
:104A0000DF92EF92FF92CF93DF9300D000D0CDB72B
:104A1000DEB7C62ED72EE82EF92E0E94C324862E8E
:104A2000972EA82EB92EC114D104E104F10439F156
:104A30000E941F2807C0C114D104E104F104F9F059
:104A40000E941F280E94C324DC01CB018819990908
:104A5000AA09BB09883E9340A105B10560F321E096
:104A6000C21AD108E108F10888EE880E83E0981E8A
:104A7000A11CB11CC114D104E104F10419F70F9079
:104A80000F900F900F90DF91CF91FF90EF90DF90FC
:104A9000CF90BF90AF909F908F900895789484B5F9
:104AA000826084BD84B5816084BD85B5826085BD2A
:104AB00085B5816085BDEEE6F0E080818160808310
:104AC000E1E8F0E0108280818260808380818160F3
:104AD0008083E0E8F0E0808181608083E1EBF0E0BA
:104AE000808184608083E0EBF0E08081816080835E
:104AF000EAE7F0E080818460808380818260808347
:104B000080818E7F80838081806880831092C10045
:104B100008958430E9F088F4823001F1833031F473
:104B2000E0E8F0E080818F7780830895813021F480
:104B300084B58F7784BD08950895873099F08830C3
:104B400031F4E0EBF0E080818F7D8083089508955B
:104B5000E0E8F0E080818F7D8083089584B58F7DCB
:104B600084BD0895E0EBF0E080818F778083089525
:104B7000CF93DF9390E0FC01E25AF04F24918E58DE
:104B8000904FFC0184918823D1F090E0880F991F09
:104B9000FC01E656F04FA591B491FC01E057F04FAF
:104BA000C591D49161110EC09FB7F8948C91E22FFA
:104BB000E0958E238C938881E823E8839FBFDF9163
:104BC000CF910895623039F08FB7F894EC91E22BD1
:104BD000EC938FBFF4CF9FB7F8943C91822F8095D0
:104BE00083238C93E881E22BE8839FBFE8CF1F9358
:104BF000CF93DF93D62F282F30E0F901E65BF04FFB
:104C00008491F901E25AF04F1491F901EE58F04FF6
:104C1000C491CC23A1F0811116C0EC2FF0E0EE0F6F
:104C2000FF1FE057F04FA591B4918FB7F894D111C1
:104C30000DC09C91E12FE095E923EC938FBFDF91AC
:104C4000CF911F9108950E948925E7CFEC91E12B28
:104C5000EC93F4CFCF93DF93282F30E0F901E65B9C
:104C6000F04F8491F901E25AF04FD491F901EE58D6
:104C7000F04FC491CC23A1F081110FC0EC2FF0E0D4
:104C8000EE0FFF1FEA57F04FA591B491EC91ED2381
:104C900081E090E039F480E005C00E948925EECFE4
:104CA00080E090E0DF91CF910895CF92DF92EF9274
:104CB000FF920F931F93CF93DF93E82EF92EC62F09
:104CC000D72FC42ED52EC114D104E9F010E000E096
:104CD000D701ED91FC910190F081E02D6881219642
:104CE000C7010995892B29F00F5F1F4FC016D10608
:104CF00079F7C801DF91CF911F910F91FF90EF904D
:104D0000DF90CF9008958601F4CFEF92FF920F933A
:104D10001F93CF93DF93082F192FE62EF72EF7015D
:104D200064916623D9F0D0E0C0E0D801ED91FC9108
:104D30000190F081E02DC8010995892B39F0219669
:104D4000FE01EE0DFF1D64916111EFCFCE01DF91E9
:104D5000CF911F910F91FF90EF900895D0E0C0E0A8
:104D6000F5CFCF93DF93C82FD92FA62FB72F10974A
:104D700099F0FD0101900020E9F73197AF014A1B3E
:104D80005B0BE881F9810280F381E02DBD01CE014A
:104D90000995DF91CF91089580E090E0FACFA82F98
:104DA000B92FED91FC9111970280F381E02D42E043
:104DB00050E060EB71E0CD01099508950F931F93CA
:104DC000CF93DF93D82FC92F0E948526082F192F44
:104DD0008D2F9C2F0E94CF26800F911FDF91CF91A6
:104DE0001F910F9108954F925F926F927F92AF92B1
:104DF000BF92CF92DF92EF92FF920F931F93CF93C8
:104E0000DF93CDB7DEB7A1970FB6F894DEBF0FBE24
:104E1000CDBFC82ED92E142F052FB62EA72E19A21E
:104E2000223048F07E0181E2E80EF11C422E512C26
:104E3000712C612C0BC02AE0F5CF605DF701629305
:104E40007F0184159505A605B705A0F0612F702F89
:104E50008B2D9A2DA30192010E943D29812F902F25
:104E6000AB2DBA2D122F032FB42EA52E6A302CF3A2
:104E7000695CE4CF309729F101900020E9F7319780
:104E8000AF014E195F09D601ED91FC910280F381CB
:104E9000E02DB701C6010995A1960FB6F894DEBFC3
:104EA0000FBECDBFDF91CF911F910F91FF90EF907B
:104EB000DF90CF90BF90AF907F906F905F904F90BA
:104EC000089580E090E0E8CFA82FB92F822F932F8C
:104ED000892B51F4ED91FC9111970190F081E02D17
:104EE000642FCD0109950895CD010E94F326089500
:104EF0000F931F93CF93DF93D82FC92F0E9464275E
:104F0000082F192F8D2F9C2F0E94CF26800F911FC5
:104F1000DF91CF911F910F9108950E9465292F93E2
:104F20002FB72F938F939F93AF93BF93EF93FF93DD
:104F3000E0918605F0918705808182FD14C0E6E747
:104F4000F5E0A689B7892C91818D8F5F8F73928D43
:104F5000891771F0DF01E18DF0E0EA58FA4F258FF3
:104F600059968C9305C0E0918C05F0918D05808158
:104F7000FF91EF91BF91AF919F918F912F912FBF93
:104F80002F9118951F920F920FB60F9211242F9305
:104F90003F934F935F936F937F938F939F93AF93C1
:104FA000BF93EF93FF9386E795E00E948328FF91DC
:104FB000EF91BF91AF919F918F917F916F915F9191
:104FC0004F913F912F910F900FBE0F901F9018950A
:104FD00086E795E00E9431289C0181E0232B09F4AB
:104FE00080E00895E6E7F5E01382128288EE93E010
:104FF000A0E0B0E084839583A683B78387EB91E03C
:105000009183808385EC90E09587848784EC90E0A1
:105010009787868780EC90E0918B808B81EC90E085
:10502000938B828B82EC90E0958B848B86EC90E066
:10503000978B868B118E128E138E148E0895089581
:1050400008950E944E250E9420280E94B508C3E7BB
:10505000D8E202C00E9473280E94F1082097D1F77D
:10506000FBCFE82FF92F818D228D90E0805C9F4F40
:10507000821B91098F7399270895E82FF92F918D3D
:10508000828D981731F0828DE80FF11D858D90E0AB
:1050900008958FEF9FEF0895E82FF92F918D828D5E
:1050A000981761F0A28DAE0FBF2FB11D5D968C9148
:1050B000928D9F5F9F73928F90E008958FEF9FEF87
:1050C0000895E82FF92F938D848D981720F4891B6C
:1050D000990B019708952FE330E0291B3109820FC6
:1050E000932F911D089588EE97E2892B41F080E07F
:1050F00090E0892B21F00E94E827811101C00895DA
:105100000E940000FCCFE82FF92FA48DAE0FBF2F17
:10511000B11DA35ABF4F2C91848D90E001968F73DF
:105120009078848FA689B7892C93A089B1898C91B6
:10513000837080648C93938D848D98130895028876
:10514000F389E02D80818F7D8083F8CFCF93DF932B
:10515000C82FD92F888D882371F0EA89FB8903C075
:105160000FB607FE0BC0808185FDFACFA889B989EB
:105170008C9186FFF5CFDF91CF910895808185FFD7
:10518000ECCFE889F989808185FFE7CFCE010E94C5
:105190008328E3CF0F931F93CF93DF93C82FD92F8B
:1051A000062F81E0888F9B8D8C8D9817A9F08B8DB1
:1051B00090E001968F739078182F8C8D81131EC00C
:1051C0000FB607FCFACFE889F989808185FFF5CF12
:1051D000CE010E948328F1CFE889F989808185FF7B
:1051E000E6CF9FB7F894EE89FF896083E889F98953
:1051F00080818370806480839FBF10C0EB8DEC0F33
:10520000FD2FF11DE35AFF4F00839FB7F8941B8FCA
:10521000EA89FB898081806280839FBF81E090E082
:10522000DF91CF911F910F910895AA1BBB1B51E1F4
:1052300007C0AA1FBB1FA617B70710F0A61BB70B06
:10524000881F991F5A95A9F780959095BC01CD01AB
:10525000089597FB072E16F4009407D077FD09D028
:105260000E94152907FC05D03EF4909581959F4F2B
:105270000895709561957F4F0895A1E21A2EAA1B9B
:10528000BB1BFD010DC0AA1FBB1FEE1FFF1FA217F6
:10529000B307E407F50720F0A21BB30BE40BF50BF3
:1052A000661F771F881F991F1A9469F7609570957C
:1052B000809590959B01AC01BD01CF010895EE0F43
:1052C000FF1F0590F491E02D099481E090E0F8949F
:1052D0000C946C2C0F931F93CF93DF93E0911506E2
:1052E000F0911606238110E000E021FD0EC00FEFC3
:1052F0001FEFC801DF91CF911F910F91089509957C
:10530000892B11F00FEF1FEFCE01EC018991609115
:10531000150670911606DB011896ED91FC9181112E
:10532000EECF8AE00995892B21F3E1CFAEE0B0E022
:10533000ECE9F9E20C94432C0D891E8986E08C83FC
:105340001A8309838FEF9FE79E838D83AE01475EAB
:105350005F4F6F89788DCE0101960E94B9292F8108
:105360003885020F131FF80110822E96E4E00C948A
:105370005F2CAFE0B0E0EFEBF9E20C94352C7C0150
:105380003B018A01DC0117961C921E921697139618
:105390008C9181FFC3C19AE0292EFE0131964F0105
:1053A000D70113969C91F30193FD859193FF819111
:1053B0003F01882309F448C1853239F493FD859172
:1053C00093FF81913F01853229F4B70190E00E945B
:1053D000A72BE6CFB12C412C512CBFE1B51538F0ED
:1053E0008B3209F188F4803201F1833221F157FCCC
:1053F0003AC020ED280F2A3040F556FE1FC0B29C5F
:10540000200D1124B22E06C08D3291F0803379F731
:10541000689450F8F30193FD859193FF81913F01CA
:105420008111DBCF20C0689451F8689452F8F2CF14
:10543000689453F8EFCF689454F8ECCF429C200D59
:105440001124422E689455F8E5CF8E3229F456FC8B
:10545000FBC0689456F8DECF8C3619F4689457F880
:10546000D9CF8836B9F2982F9F7D95549330C0F0EC
:105470008336A1F18337C1F1833509F05BC0D801D0
:10548000CD90DD908D016B2D70E056FC02C06FEF6A
:105490007FEFC6010E94912B5C01689457F80AC007
:1054A0000C5F1F4FEFE3E983AA24A394B12C64019E
:1054B000E89457F853FC04C04A141B0409F018F58B
:1054C000342CA114B10431F5332009F469CFB701AC
:1054D00080E290E00E94A72B3A94F6CFD8018C91FD
:1054E00089830E5F1F4FE0CFF801C190D1908F01EB
:1054F0006B2D70E056FC02C06FEF7FEFC6010E947B
:105500009C2B5C01D5CFB70180E290E00E94A72BD5
:105510004A94D2CFF60157FC859157FE81916F01D5
:10552000B70190E00E94A72B31103A94B1E0AB1A7A
:10553000B108C7CF843619F0893609F074C0F80174
:1055400057FE6AC061917191819191918F01E52D12
:10555000EF76DE2E97FF09C0909580957095619546
:105560007F4F8F4F9F4F6894D7F82AE030E0A40117
:105570000E94D72BC82EC818AC2C5D2CD6FE0CC0B0
:10558000E89450F8CB1440F4D4FE05C0D2FC03C01C
:105590005D2D5E7E552EAB2C54FE98C0FE01EC0DA9
:1055A000F11D8081803309F08AC0652D697E562EF9
:1055B000752D7870372E53FC98C050FE92C0BC2CCD
:1055C000A41418F44C0CB42CBA1854FE94C0B701AF
:1055D00080E390E00E94A72B52FE09C088E790E08C
:1055E00051FE02C088E590E0B7010E94A72BCB14C2
:1055F00008F48DC0CA94D12C8FEFC81AD80AC80CF1
:10560000D91CD6018E916D01B70190E00E94A72BA5
:105610008C149D04B1F758CF61917191072E000C45
:10562000880B990B93CFD52CE894D4F82AE030E07E
:10563000853739F1F52DF97FDF2E8037A9F058F441
:105640008835A9F08F36D9F0F701868197812F969A
:10565000E2E10C94512C8837B9F7D4FE02C068946B
:10566000D2F820E130E00DC06894D4F8F6CF54FEB3
:1056700003C02F2F2660D22E20E132E002C028E0A6
:1056800030E0F801D7FE15C04191519161917191BF
:105690004C875D876E877F878F01A4016C857D8530
:1056A0008E859F850E94D72BC82EC818E894D7F8FE
:1056B00063CF81919191AC0170E060E0E9CF52FC41
:1056C00002C0A39475CFA394A39472CF852D86783E
:1056D00009F46ECFF6CFB70180E290E00E94A72BCD
:1056E000A394A414C0F3312C70CF342C3A18A41412
:1056F00008F46BCFF8CF852D867809F478CF8BE24C
:1057000051FE80E257FC8DE2B70190E06ECFB70109
:1057100080E390E00E94A72BBA9469CF8FEF9FEFB0
:1057200096CFFC010590615070400110D8F780952C
:1057300090958E0F9F1F0895FC016150704001905D
:105740000110D8F7809590958E0F9F1F08950F93A5
:105750001F93CF93DF93182F092FEB018B8181FDCE
:1057600009C01FEF0FEF812F902FDF91CF911F9175
:105770000F91089582FF14C02E813F818C819D81FD
:10578000281739073CF4E881F981CF010196998304
:10579000888310838E819F8101969F838E83E3CFC0
:1057A000E885F985812F0995892BA1F3DACFFA01D4
:1057B000AA27283051F1203181F1E8946F936E7F50
:1057C0006E5F7F4F8F4F9F4FAF4FB1E03ED0B4E041
:1057D0003CD0670F781F891F9A1FA11D680F791F82
:1057E0008A1F911DA11D6A0F711D811D911DA11D93
:1057F00020D009F468943F912AE0269F11243019A3
:10580000305D3193DEF6CF010895462F4770405D3D
:105810004193B3E00FD0C9F7F6CF462F4F70405DEC
:105820004A3318F0495D31FD4052419302D0A9F747
:10583000EACFB4E0A6959795879577956795BA9541
:10584000C9F700976105710508959B01AC010A2E07
:1058500006945795479537952795BA95C9F7620FDE
:10586000731F841F951FA01D08952F923F924F9282
:105870005F926F927F928F929F92AF92BF92CF92E0
:10588000DF92EF92FF920F931F93CF93DF93CDB7E9
:10589000DEB7CA1BDB0B0FB6F894DEBF0FBECDBF61
:1058A00009942A88398848885F846E847D848C8432
:1058B0009B84AA84B984C884DF80EE80FD800C813B
:1058C0001B81AA81B981CE0FD11D0FB6F894DEBF1E
:0C58D0000FBECDBFED010895F894FFCF8E
:1058DC0031323A30300048656C6C6F20776F726CE7
:1058EC0064210D0025322E32643A25322E326400AA
:1058FC000000000034080208FE0701080000000048
:10590C0019205526FE0701088509551B561B7F1BC0
:10591C00611B701B621A921B681D861D931BD51B85
:10592C00171C6F0A871C011DC800C8008000FA00F4
:10593C0080002801B000080190012C018002800138
:10594C00C800C8006800D40080002801B00008011D
:10595C0090012C010000000019205526FE070108BB
:10596C008D27551B561B7F1B611B701B621A921BCC
:10597C00681D861D931BD51B171C661C871C011DDF
:10598C000D0A0000000000CA2855266128A62831FF
:06599C00284C283D280004
:00000001FF
